:030000000212CE1B
:1012CE00787FE4F6D8FD9060007F007E07E4F0A3FF
:0A12DE00DFFCDEFA75812102132304
:0C000300000000000000000000000000F1
:0B21C700EF1FAC0670011E4C70F622EA
:10002700AB07AA06EB1BAE0270011A4E600C7FAA43
:0B0037007E051221C775D9AA80EA22BD
:100C6300907120E04480F07F057E001221C7E4FFED
:100C7300FE12002775A75575AC5C9071327450F065
:100C83009071307403F0907136742FF090715C742E
:100C930003F090715BE054FCF07F18EF2466FDE4F1
:100CA30034718D82F583E4F00FEFB433EE9040118D
:100CB300E4935407FF90711CE054F84FF0904017F1
:100CC300E493547FFF90711DE054804FF0904010E7
:100CD300E493FF5401C43333335480FE907123E013
:100CE300547F4EF0EFC313543F4440FFA3E05480BE
:100CF3004FF0904012E493FF540FFE907146E0547E
:100D0300F04EF0EFC4540FFF90714FE054F04FF0EA
:100D1300904013E493543FFF907140E054C04FF070
:100D2300904014E493907126F0904015E4939071F1
:0B0D330028F0904016E49390712AF025
:010D3E002292
:07220100E475F0010200D7B3
:101C7400E5B154CF42B153A8BFD2AF75D102789C1D
:101C8400E254E3F2E2441CF2E254FCF2E24401F2D4
:101C940008E2547FF2E24420F278A17401F218744D
:101CA40076F2789CE2541FF2E244C0F243A8402248
:0300210002149036
:10149000C0E0C0F0C083C082C0D075D000C000C022
:1014A00001C002C003C004C005C006C007789DE2A9
:1014B00030E752E24480F290616AE0FEA3E0FFE48C
:1014C000FCFD7BFF7AFFF9F8D312025D40069061C4
:1014D0006A1222019060AF120297EF2401FFE43EEE
:1014E000FEE43DFDE43CFC9060AF1202AF90616C05
:1014F0001222019061761222011221DD1221A01226
:101500001F87121627D007D006D005D004D003D0ED
:1015100002D001D000D0D0D082D083D0F0D0E03241
:101DD500E5B254FC42B253A9FED2AF75D10490715D
:101DE500057409F0907104745FF0907101E0547FFF
:101DF500F0E04420F0907100E0E4F0E044C1F043ED
:031E0500A901220E
:03002400021B1E9E
:101B1E00C0E0C0F0C083C082C0D075D000C000C08D
:101B2E0001C002C003C004C005C006C00790710109
:101B3E00E030E70AE04480F012198D12192ED0071A
:101B4E00D006D005D004D003D002D001D000D0D022
:091B5E00D082D083D0F0D0E03237
:0E215000906107EFF01221F9906107E0FF2285
:1020A50078C2E254FCF2E24401F290717EE044040D
:0B20B500F075D60175D59F75D2102282
:0821F900E5D430E4FB8FD7228E
:040732004161A80079
:101E970012013290617C1202AF90617C0202977846
:101EA70069E24401F222F2AF93EF75F010A4FF222A
:0A1EB700E594C4540FFDEF4DFF2227
:101F610078C3E24403F218E2440CF2786AE244795D
:101F7100F27591FF9071227407F0439E704399406E
:061F810043AA04D2AF22C6
:101E39005399E0EF24FE601304701E907123E0545F
:101E4900D8F0E0445AF0439904800E907123E0548D
:101E5900D8F0E0445BF04399017869E24448F22202
:10210B00121EA6786BE230E1FA7402121EADAEF02D
:04211B00121EB722B7
:100EF400E490617AF0A3F0A31202BB00000000E4C6
:100F0400906180F0A3F074FFA3F0A3F0E4A3F0F0E9
:100F140012210B90617AEEF0A3EFF0906184E0C3AC
:100F240094024054906180E0FEA3E0FF90617AE077
:100F3400FCA3E0FDD39FEC9E4008906180ECF0A3FD
:100F4400EDF0906182E0FEA3E0FFC3ED9FEC9E50C4
:100F54000F90617AE0FFA3E0906182CFF0A3EFF0FD
:100F640090617C1202A390617AE0FEA3E0FFE4FCAE
:100F7400FD120125A31202AF906184E004F0E0C3E6
:100F84009414408C121EA0C006C007906180E0FE3D
:100F9400A3E0FBAA06E4F9F8D007D006121E97C016
:100FA40006C007906182E0FEA3E0FBAA06E4F8D045
:100FB40007D006121E97780412028490617AEEF02C
:030FC400A3EFF0A8
:010FC7002207
:101BF2009061A8E014601A14602124FD6029146029
:101C0200042406702B7F01121E399061A87401F022
:101C120022121EA69061A87402F0227F02121E39BF
:101C22009061A87405F022121EA69061A87406F0B5
:011C3200228F
:0300420002171A88
:10171A00C0E0C0F0C083C082C0D075D000C000C095
:0D172A0001C002C003C004C005C006C00716
:10173700786BE230E136E24402121EAD121EB7901A
:10174700610CE5F0F0A3EFF09061A8E024FA6011D6
:101757002404701890610CE0FEA3E0FF1221F080D2
:0C1767000B90610CE0FEA3E0FF1221E7F4
:10177300D007D006D005D004D003D002D001D000CA
:0B178300D0D0D082D083D0F0D0E03274
:10211F0075AF3F8FAF75AEB975A402E5A530E1FB82
:01212F00228D
:101D6A0090618E12031875AF3F8FAF906191E0C3F7
:101D7A0094014022E5A530E0FB90618EE475F00104
:101D8A00120301120045F5A675AEB975A40190615A
:071D9A0091E014F080D52256
:101DA1009060E81203189060EBE06027AE070FEE39
:101DB1002400FDE4343F8D82F583E493FE9060E8D6
:101DC100E475F001120301EE12005E9060EBE01485
:041DD100F080D322A9
:0507360042615B0000C0
:0D216C007E007F107D007B017A61794B229F
:0A21DD0090615BE475F0010200D789
:101FAC00E4FDFCEE30E703D38001C392A5D296EF9B
:101FBC0025E0FFEE33FEC2960DBD00010CED641062
:031FCC004C70E076
:011FCF0022EF
:0B1B67009060DE1203189060E1EDF0CA
:101B7200C296C2A4E4A3F09060E1E0FFA3E0FEC33A
:101B82009F50219060DE1202F875F002EEA4F582F9
:101B920085F0831200EDFFAEF0121FAC9060E2E020
:0A1BA20004F080D3D2A4C2A4C2A5AF
:011BAC002216
:10206D00C390615CE0943290615BE09400400CE4BD
:0C207D00F0A3F01221727D08121B6722F4
:0E215E0012216C1203741221727D08021B679D
:101CB40012216C12037478D3E254CFF2E24410F28E
:101CC40090718CE4F078E3E254F3F2E24404F2908D
:101CD4007193E4F0E254FCF2E24401F2907192E474
:0F1CE400F0C2A5C296C2A41221727D08021B672E
:0B21D2007379732072657365740A0056
:10000F0078E2E254F3F2E24404F290718FE4F0C22A
:02001F00A1221C
:101E690012000F1220A57BFF7A2179D212043812B1
:101E790021791221931221AD121F61121E08121C21
:0E1E8900B4121C74121DD57F017E00020027CA
:101FD000120C6375D95590715EE054FEF075D9BB53
:101FE000121E6975D9AA1221861215A9121163123F
:041FF000206D80EFF1
:0D21790078E2E254FCF278E0E24401F22248
:0D21860020A0047F018002E4FF1220F2225D
:10073B00C10A446112000000004461160000000071
:10074B0044611A0000000044611E0000000041617A
:10075B002200C10942610E0000416110004161118C
:01076B00008D
:101EC100120297EF2401FFE43EFEE43DFDE43CFCF9
:101ED10022E4FDFC1202A3C3020273E4FEFDFC0234
:081EE10002A31202A302012575
:0D21930078D3E254F3F278D0E24420F22237
:101D310090611A120297906116121EE390611A12B5
:101D410002AF9061161202BB0000000090611E12EA
:101D51000297906112121EE390611E1202AF906110
:091D6100121202BB000000002276
:10192E0090610EE475F0011200D7C390610FE09440
:10193E001490610EE09400402BE4F0A3F090611639
:10194E00121EC19061161202AF7F587E0290611670
:10195E00121ED2400F200A0C9061161202BB00001C
:10196E000000D20A30951520090F906112121EC187
:0E197E009061121202AF121D31D20922C2096D
:01198C002238
:100E1B009061851202BB000000009061891202BB39
:100E2B00000000007FF47E0190611A121ED2500662
:100E3B00200A03020EF3E47F2E7E04FDFC90611E5C
:100E4B001202A3120140E47B03FAF9F81201CB90D2
:100E5B0061891202AF300A22E4FFFEFDFC90611E95
:100E6B00121ED590618560091202BB000000018043
:100E7B002C1202BB0000000080237F24906189129A
:100E8B001EDC120140E47B0AFAF9F81201CB9061E7
:100E9B001A1202A31201CB9061851202AF90616608
:100EAB00120297906189121EE39061661202AF9055
:100EBB00611E1202BB0000000090611A1202BB00FF
:100ECB00000000C20A7FC7906185121EDCD312029C
:100EDB0073400A9061851202BB000000C7906185C8
:080EEB00120297906145EFF03F
:010EF30022DC
:0D21A000906122E0C394FF5003E004F022A0
:1019E100906110E0700F04F0906145E0906111F09A
:1019F100E0FF120B7D906122E0C394324033E4F0AA
:101A0100906145E0FF906111E0FED39F400BEED362
:101A110094004015E014F08010906145E0FFEEC3A2
:101A21009F5006906111E004F0906111E0FF120BEC
:011A31007D37
:011A32002291
:101C3300696E737472756D656E742E656E67696E09
:101C4300655F7370656564203D3D20256C750A00F2
:101C5300656E67696E655F73706565645F6C6576F5
:101C6300656C5F6F665F6C6167203D3D2025750A7B
:011C73000070
:10076C0042613400004261360000C10B416123003C
:08077C004161240041612500E8
:0D21BA009061300202A3E475F0010200D72D
:0D21AD0078C2E254CFF278C0E24404F2227E
:101CF30090612C1202979061261202A31201259083
:101D0300612C1202AF9061261202BB000000001288
:101D130021BA90612AE0FEA3E0FFE4FCFD12012555
:0E1D23009061301202AFE490612AF0A3F0222A
:10198D00906123E004F0E0C394144020E4F09061F2
:10199D002A1221C1C390612BE0945890612AE094E2
:1019AD00024009200C06E4F0A3F0D20C3082222074
:1019BD000B1C906126120297EF2401FFE43EFEE41A
:1019CD003DFDE43CFC9061261202AF121CF3D20BDC
:0319DD0022C20B18
:0119E00022E4
:1015A900E47FF47E01FDFC1221BAC31202735003D9
:1015B900300C6A300C0EC20C9060DE1202BB0000C7
:1015C9000000801CE47F607EEAFDFC90612C120221
:1015D900A31201401221BA1201CB9060DE1202AFB0
:1015E90090612C1202BB000000009061301202BB16
:1015F90000000000E47FFF7EFFFDFC9060DE120228
:10160900A3C3120273400A9060DE1202BB0000FFFE
:0D161900FF9060DE1202979061411202AF57
:0116260022A1
:101F8700C3906135E094FF906134E094FF500312F1
:101F970021C0C3906137E094FF906136E094FF5011
:051FA700031221C0221D
:1020C000E47BE87A03F9F89061411202971201CBA0
:0820D000EFD3940C40027F0CD9
:0120D80022E5
:10116300E49060DEF0906125E0700A04F01220C084
:10117300906124EFF0C3906135E094C8906134E04E
:1011830094004063E4F0A3F01220C09060DEEFF01F
:10119300906124E0FEC39F5005E004F08016906048
:1011A300DEE0FFEED39F400C906124E0D394004037
:1011B30003E014F07BFF7A1C7933906141120297AC
:1011C3009060E21202AF1204387BFF7A1C795390CD
:1011D3006124E0FF9060E2E4F0A3EFF012043890A2
:1011E3006124E0FF121223C3906137E094DB906126
:1011F30036E094014029E4F0A3F0906124E09408E0
:10120300401890614BE013A3E01330E005E054FD78
:0F121300F02290614CE04402F022E4FF122141EE
:0112220022A9
:06078400C10E41615D00A1
:101EE900120297EF2401FFE43EFEE43DFDE43CFCD1
:101EF90022120297120132E47B64FAF9F8C3020252
:081F0900731202A3C30202736C
:100D3F00C390616BE094E890616AE09403400F30D8
:100D4F000D0C122089C20DE490616AF0A3F0E47FCC
:100D5F00E87E03FDFC906166121F0A40657F187ED6
:100D6F00C67D9A7C3B906138121F0A500C906138F7
:100D7F00121EE99061381202AF7F7F7E967D987CBC
:100D8F000090613C121F0A500C90613C121EE990BA
:100D9F00613C1202AF906166120297C3EF94E8FFB5
:100DAF00EE9403FEED9400FDEC9400FC906166124E
:020DBF0002AF81
:100DC10090615DE004F0E0C3940A4004E4F0D20DC8
:100DD10090615E1202A3906138121EFA500C90616C
:100DE1003812029790615E1202AF9061621202A303
:100DF10090613C121EFA500C90613C120297906176
:100E0100621202AFC390616DE0948890616CE094CE
:090E1100134006E4F0A3F0B20E58
:010E1A0022B5
:10078A004260B300004460AF00000000602860B51A
:10079A00000000000000000000000000000000004F
:1007AA00000000000000000000000000000000003F
:1007BA0000000000000000004160DD004160AE0062
:101A8500FFEE34F9FEE434FFFDE434FFFCE4FAF93B
:101A9500F8120140E4229061ACE0FEA3E0FF22FAD7
:101AA500F9F81201CBAD07C322FFEE34FAFEE43498
:101AB500FFFDE434FFFCE42225E024B5F582E4349F
:0D1AC50060F58322FDFC1202A3C302027330
:0921E7009060B3EEF0A3EFF022CA
:04178E00AB07AA06F5
:10179200E4906192F0A31202BB00000000AE02AF1F
:1017A200039060DDE0FD04F0ED121ABDEEF0A3EF50
:1017B200F09060DDE0C394144002E4F0E4906192A2
:1017C200F09061931202A3906192E0121ABDE0FEC2
:1017D200A3E0FFE4FCFD1201259061931202AF9099
:1017E2006192E004F0E0B414D8E47B14FAF9F890C2
:0817F20061931202970201CB82
:10213000E4FDED121ABDEEF0A3EFF00DEDB414F2D4
:01214000227C
:0808CC009061ACEEF0A3EFF027
:1008D400E4FDC3EF94C5EE940B500A121A9B945591
:1008E400EE940150057DFF020A42D3EF94B9EE94D1
:1008F400074005E4FD020A42D3EF9433EE9404501A
:10090400057D64020A42D3EF94B9EE9407501FEFB9
:1009140094D0EE94064017121A9BEF24307B1212E7
:100924001A857BE9121AA474129DFD020A42121A56
:100934009BD394D0EE9406502AEF9427EE9406406D
:10094400229061ACA3EF24D97B22121A857BA912D1
:100954001AA474229DFDC394124003020A427D121C
:10096400020A42121A9BD39427EE9406502DEF9458
:10097400A8EE940540259061ACA3EF2458121AAE5A
:100984007B33121A937B7F121AA474339DFDC39494
:10099400224003020A427D22020A42121A9BD39485
:1009A400A8EE9405502AEF944AEE940540229061F3
:1009B400ACA3EF24B6121AAE7B44121A937B5E12D8
:1009C4001AA474449DFDC3943350737D33020A42C8
:1009D400121A9BD3944AEE9405502DEF94BCEE94D6
:1009E4000440259061ACA3EF2444FFEE34FB121ABB
:1009F400B27B54121A937B8E121AA474549DFDC3B5
:100A04009444503A7D448036121A9BD394BCEE949D
:100A140004502BEF9433EE940440239061ACA3EF85
:100A240024CDFFEE34FB121AB27B64121A937B8935
:100A3400121AA474649DFDC3945450027D54AF05EE
:010A4400228F
:1013FD00E49061A9F0A3F0A3F09061A6E0FEA3E054
:0C140D00FF12178E9061AAEEF0A3EFF022
:101419009060AEE0703A7FF47E01A3121AC94030A1
:101429009060AF1202BB00000000120EF49061A69A
:10143900EEF0A3EFF01221309061A6E0FEA3E0FFE9
:101449009061AAEEF0A3EFF012147C9060AE04F064
:10145900E47FE87E039060AF121AC940159060AF2F
:101469001202BB000000009061AAE0FEA3E0FF1297
:02147900147CE1
:10147B00221208CC9061A9EFF0906149F0E49061E1
:05148B00AAF0A3F0220D
:0207CA00C18FDD
:101F110090617212029790616E1202A31201CB902E
:101F210061721202AF906172020297AA06AB0712A8
:081F31002050A9079061722203
:0921F000906178EEF0A3EFF022FB
:1020D9007C0A7D50120347E47B0AFAF9F81201CB16
:0920E900E4FB7A10F9F80201CBC6
:10205000EFC3949640047E6480107E007C007D6413
:0C2060001200707D96120082AE07AF06E1
:01206C002251
:10136800E4FBFAF990616E120297EF2401FFE43E64
:10137800FEE43DFDE43CFC90616E1202AF300F319B
:10138800121F111220D9121F2C1202BB00000000DC
:1013980090616E1202BB00000000E4906176F0A339
:1013A800F0906148E9F0906146EAF0A3EBF0C20FD3
:1013B80022C3906177E094D0906176E0940740343E
:1013C800121F111220D9121F2C1202BB000000009C
:1013D80090616E1202BB00000000E4906176F0A3F9
:1013E800F0AF01906148EFF0AE02AF03906146EEB6
:0413F800F0A3EFF07F
:0113FC0022CE
:1007CC005361380000000000000000000000000031
:0607DC0000000000000017
:101E08007B017A6079DE9060EB7409F0E4FF121DC3
:101E1800A19060E6E0B4C5189060DE120297906168
:101E2800381202AF9060E212029790613C1202AF42
:011E38002287
:1020890090614074C5F0E4FF12211F7B017A6179E8
:0C209900389061917409F0E4FF021D6AA8
:1007E2004A60143F065B4F666D7D077F6F60546001
:1007F2001E030D030C020D03080309030B030A0376
:1008020000030203050307030603030304040E04A3
:100812000C04090408040A040D040B0401050F0466
:10082200040406040704000402050B050A04030479
:1008320005050D050E050C05030502050405070552
:1008420009050605055C6072070F070E070107021E
:100852000700070D070C06020601060F0207060E27
:100862000600060D6020608E0707070607050704CD
:1008720007080709070A070B06030604060506060A
:10088200060706080609060A4160130042600000D6
:1008920000416002004160030042600400004160C8
:1008A200060041600700426008000041600A004102
:1008B200600B0042600C000041600E0041600F00BE
:0908C200426010000041601200C8
:100A4500E0FE75F00EA42472F582E43460F583753A
:100A5500F002EF1202ECE025E0244BF582E434616C
:100A6500F5832275F0021202ECE0FF7E007401A806
:100A7500070822E04402F0A3E04480F0A3E0F0225E
:100A8500E0FCA3E0FDEE75F00EA42473F582E434DA
:100A950060F5832290614FE04401F0A3E0F022F479
:100AA500FFEEF45CFEED5FFF22E475F0010200D776
:100AB500E054FBF0E054F7F0E054DFF0E054BFF011
:100AC50022C3906001E09496906000E0940022C3F8
:100AD50090600DE0942C90600CE0940122EFF0748E
:100AE500142DF582E43460F583E02275F00EA4241C
:100AF5001FF582E43460F58322E4F0A3F0A37402C9
:100B0500F022C3906005E09464906004E0940022B4
:100B1500C3906009E094C8906008E0940022E04426
:100B250040F0A3E0F022E04408F0A3E0F02275F0E5
:100B35000EA4241EF582E4346022FFEC4EFEED4F38
:100B4500FF2225E0248EF582E43460F5832225E03A
:100B5500248FF582E43460F58322EEF0A3EFF09064
:100B65006109E004F022E0547FF0E054BFF0A3E017
:080B750022E0FCA3E0FDEF22E9
:101F390090614B120A7D90614EE04401F0E044103B
:101F4900F090614D120A9C90614DE04410F0A3E0BD
:081F5900F090614D120A7D2297
:0F21410090614CE054FDF0EF6004E04402F022A6
:10122300AD0790614E120AB5E0547FF090614DE036
:1012330054FDF0120AB590614BE054FEF0E054FD0A
:10124300F0ED12032112C60112BF0212B80312B14C
:101253000412AA0512A00612960712900812860914
:1012630012800A127A0B12700C000012CD90614B9F
:10127300E04402F0A3E0F090614B120A9C90614DB0
:10128300120B2390614DE04420F0A3E0F090614DF8
:10129300120B2B90614DE04404F0A3E0F090614DFC
:1012A300E04402F0A3E0F090614EE04480F09061EE
:1012B3004EE04440F090614EE04420F090614EE0F7
:0B12C3004408F090614EE04404F0226B
:10201400AD0790614FE054FBF0E054F7F0ED600D34
:0E202400E04404F0A3E0F090614F120B2B2279
:1020F200AD07906150E054EFF0E054DFF0ED60087E
:09210200E04410F0E04420F0225A
:101BAD00AD0790614F120B6B54FEF0E054FDF0E069
:101BBD0054FBF0ED14602714601E14601414600AB9
:101BCD00147021906150E04404F0906150E04402A3
:101BDD00F0906150E04401F090614F120B23906141
:051BED004F120A7D22E9
:101FF400E4906155F0A3E05401F0E4906155F0A33E
:10200400E05402F0EF6008E04401F0E04402F02202
:03109C0090610957
:10109F00120AE290610BF0E490610AF090610AE0AD
:1010AF00FFC394074003021162906109E0FE120B27
:1010BF0033120A52C083C082E0FCA3E0FDEE120A95
:1010CF00F0C083C08290610AE0FBD082D083120A05
:1010DF00688005C333CE33CED8F9120AA4D082D09C
:1010EF0083EEF0A3EFF07E007401A803088005C320
:1010FF0033CE33CED8F9FF90610BE0FDEF5D604A40
:10110F00906109E0FF120B33F583C083C0829061B9
:10111F000AE0D082D08375F002120A58C083C082D1
:10112F00120B76120AF0C083C08290610AE0D0825F
:10113F00D083120A688005C333CE33CED8F9120B91
:10114F003FD082D083EEF0A3EFF090610AE004F07D
:03115F000210ABD0
:01116200226A
:061A33009061971202AF62
:101A3900E490619BF090619BE0FFC39406503CC326
:101A490074059FFFC007E47B0AFAF9F890619712C1
:101A590002971201CBAF03AD07D00712109C90611A
:101A690097120297E47B0AFAF9F81201CB90619771
:0B1A79001202AF90619BE004F080BA05
:011A8400223F
:101AD20090619C1202AF906151120B6B54FDF0A306
:101AE200E0547FF0906155E054FEF07F01121FF444
:101AF20090619C120297121A339061A0E0600E90DE
:101B02006151120A7D906151E04440800A90615215
:0C1B1200120A78A3E04401F0A3E0F022E6
:10203200AD07906157E054F7F0E054EFF0ED600D1A
:0E204200120B2B906157E04410F0A3E0F02247
:030FC8009061092C
:100FCB00120AE290610BF0E490610AF090610AE082
:100FDB00FFC39407503A906109120A45C083C0823F
:100FEB00120A85C083C08290610AE0D082D083123E
:100FFB000A688005C333CE33CED8F9120AA4D08247
:10100B00D083EEF0A3EFF090610AE004F0020FD76B
:10101B00E490610AF090610AE0FFC39407507112EB
:10102B000A708005C333CE33CED8F9FF90610BE045
:10103B00FDEF5D6052906109E0FF75F00EA4247224
:10104B00F582E43460F583C083C08290610AE0D0FE
:10105B0082D08375F002120A58C083C082120B76BD
:10106B00120A8BC083C08290610AE0D082D08312B7
:10107B000A688005C333CE33CED8F9120B3FD0822A
:10108B00D083EEF0A3EFF090610AE004F0021020A1
:01109B002232
:050B7D009061A1EFF002
:100B8200E49061A4F0A3F090614FE054FEF0906114
:100B92005AE054F7F07F01122032E49061A2F0E4AF
:100BA2009061A3F09061A3E0FFC39407503A906173
:100BB200A2120A45C083C082120A85C083C08290F5
:100BC20061A3E0D082D083120A688005C333CE339A
:100BD200CED8F9120AA4D082D083EEF0A3EFF0901F
:100BE20061A3E004F0020BA69061A2E004F0E064CD
:100BF2000270AC9061A1E09061A5F09061A4E00464
:100C0200F0A3E075F00A84F070F19061A1E0C39462
:100C120064400A120A9990615AE04408F0E4906133
:100C2200A2F09061A2E0FFC3940250349061A4E06C
:100C3200B40105EF640160209061A2E0FFC374017A
:100C42009FFF9061A1E075F00A84ADF0120FC89089
:100C520061A1E075F00A84F09061A2E004F080C224
:010C6200226F
:0516A500906108EFF068
:1016AA00E4A3F0906109E0FF120B47120A5BC083C2
:1016BA00C082120B76120B53120A6E8005C333CE08
:1016CA0033CED8F9120AA4D082D083120B5FE0B4C9
:1016DA0010D1E4906109F0906108E0FFA3E0FEC335
:1016EA009F502CEE120B47120A5BC083C082E0FCAB
:1016FA00A3E0FDEE120B53120A6E8005C333CE33FC
:0F170A00CED8F9120B3FD082D083120B5F80C86C
:0117190022AD
:1017FA00906000120AAE906002E0FE7024120AC6DF
:10180A004057E4F0A3F0906003E004F0E0FF940C8A
:10181A0040449060027401F0E4906000F0A3F0800C
:10182A0035EEB40110C3906001E094C8120ACD40AD
:10183A0028120AFE22906002E0B4021D120AC64073
:10184A0018E4F0A3F0906003E0D394004003E0149E
:09185A00F0906003E0FF1212237C
:011863002262
:10186400906004120AAE906006E0FB701D120B0734
:101874004053E4F0A3F0906007E004F0E0FF94101C
:1018840040409060067401F08038EBB40113C390BB
:101894006005E09490906004E094014028120AFEF0
:1018A40022906006E0B4021D120B074018E4F0A376
:1018B400F0906007E0D394004003E014F0906007D8
:0518C400E0FF1216A573
:0118C90022FC
:10152000906008120AAE90600AE0FA7027120B155C
:101530004044E4F0A3F012157712159140FB90603F
:101540000BE004F0E0C3940A402C7409F090600AA8
:101550007401F022EA6401701D120B154018E4F0CA
:10156000A3F090600BE0D394004003E014F0121558
:061570007712159140FB0B
:101576002290600BE0FDE4FF120FC890600BE0FDC7
:101586007F01120FC8E4906108F022906108E0FF25
:1015960090600BE0FD12109C906108E004F0E0C33F
:0315A60094062286
:1018CA0090600C120AAE90600EE0FE701E120AD4EE
:1018DA004051E4F0A3F090600FE094055005E00455
:1018EA00F0803890600E7401F08030EEB40110C3BD
:1018FA0090600DE09490120ADB4028120AFE2290B2
:10190A00600EE0B4021D120AD44018E4F0A3F0906D
:10191A00600FE0D394004003E014F090600FE0FF02
:03192A00121BADE0
:01192D002297
:10162700906013E06077906012E07039121F397F85
:1016370001122141121FF4122032906151120A7DCA
:10164700906151120B23120A78A3120A9C7F011290
:1016570020141220F2120A9990615AE04408F0907F
:1016670060127401F0906010120AAE1217FA121885
:10167700641215201218CAC3906011E094A09060FC
:1016870010E0940F4017E4906013F0FF121223123A
:0D16970021411220141220F27F101216A51E
:0116A4002223
:1012E800021FD0E493A3F8E493A34003F68001F22D
:1012F80008DFF48029E493A3F85407240CC8C33307
:10130800C4540F4420C8834004F456800146F6DFD5
:10131800E4800B0102040810204080900732E47E2C
:10132800019360BCA3FF543F30E509541FFEE493CA
:10133800A360010ECF54C025E060A840B8E493A391
:10134800FAE493A3F8E493A3C8C582C8CAC583CABC
:10135800F0A3C8C582C8CAC583CADFE9DEE780BE74
:0108CB00002C
:10004500BB010689828A83E0225002E722BBFE02B9
:09005500E32289828A83E49322EC
:10005E00BB010689828A83F0225002F722BBFE0181
:02006E00F3227B
:10007000EF8DF0A4A8F0CF8CF0A428CE8DF0A42EA4
:02008000FE225E
:10008200BC000BBE0029EF8DF084FFADF022E4CC62
:10009200F875F008EF2FFFEE33FEEC33FCEE9DEC2B
:1000A200984005FCEE9DFE0FD5F0E9E4CEFD22ED71
:1000B200F8F5F0EE8420D21CFEADF075F008EF2FBB
:1000C200FFED33FD4007985006D5F0F222C398FDAC
:0500D2000FD5F0EA2249
:1000D700C5F0F8A3E028F0C5F0F8E58215827002B4
:0600E7001583E038F02251
:1000ED00BB0110E58229F582E5833AF583E0F5F051
:1000FD00A3E0225009E92582F886F008E622BBFE2E
:10010D000AE92582F8E2F5F008E222E5832AF58373
:08011D00E993F5F0A3E9932238
:0D012500EF2BFFEE3AFEED39FDEC38FC2229
:0E013200C3EF9BFFEE9AFEED99FDEC98FC22C8
:10014000E88FF0A4CC8BF0A42CFCE98EF0A42CFC5E
:100150008AF0EDA42CFCEA8EF0A4CDA8F08BF0A4DC
:100160002DCC3825F0FDE98FF0A42CCD35F0FCEB3B
:100170008EF0A4FEA9F0EB8FF0A4CFC5F02ECD3900
:0F018000FEE43CFCEAA42DCE35F0FDE43CFC226D
:10018F0075F008758200EF2FFFEE33FECD33CDCC27
:10019F0033CCC58233C5829BED9AEC99E5829840AA
:1001AF000CF582EE9BFEED9AFDEC99FC0FD5F0D687
:1001BF00E4CEFBE4CDFAE4CCF9A88222B800C1B9B1
:1001CF000059BA002DEC8BF084CFCECDFCE5F0CBEF
:1001DF00F97818EF2FFFEE33FEED33FDEC33FCEB28
:1001EF0033FB10D703994004EB99FB0FD8E5E4F9E3
:1001FF00FA227818EF2FFFEE33FEED33FDEC33FCD0
:10020F00C933C910D7059BE99A4007EC9BFCE99AC3
:10021F00F90FD8E0E4C9FAE4CCFB2275F010EF2F08
:10022F00FFEE33FEED33FDCC33CCC833C810D70708
:10023F009BEC9AE899400AED9BFDEC9AFCE899F843
:0E024F000FD5F0DAE4CDFBE4CCFAE4C8F922D6
:10025D00EB9FF5F0EA9E42F0E99D42F0EC6480C818
:06026D0064809845F022B8
:10027300EB9FF5F0EA9E42F0E99D42F0E89C45F0E1
:010283002258
:10028400E8600FECC313FCED13FDEE13FEEF13FF58
:03029400D8F1227C
:0C029700E0FCA3E0FDA3E0FEA3E0FF22DA
:0C02A300E0F8A3E0F9A3E0FAA3E0FB22DE
:0C02AF00ECF0A3EDF0A3EEF0A3EFF022C2
:1002BB00A8828583F0D083D0821202D21202D2128E
:1002CB0002D21202D2E473E493A3C583C5F0C583B3
:1002DB00C8C582C8F0A3C583C5F0C583C8C582C88D
:0102EB0022F0
:0C02EC00A42582F582E5F03583F583221D
:0902F800E0FBA3E0FAA3E0F92207
:10030100F8E0FBA3A3E0F925F0F0E5821582700285
:070311001583E0FA38F02229
:09031800EBF0A3EAF0A3E9F022E6
:10032100D083D082F8E4937012740193700DA3A36B
:1003310093F8740193F5828883E47374029368607F
:06034100EFA3A3A380DF7F
:10034700EC8EF0A4CCC5F0CCCDF8EFA4CEC5F02D43
:10035700FDE43CFCE8A42EC8C5F03DFDE43CFCEF01
:0D036700A4FFE5F028FEE43DFDE43CFC228F
:1003CD00E50824E2F582E43460F583E00508229027
:1003DD0060DF3007039060E2E475F0011203010263
:1003ED0000452000E97F2ED2008018EF540F249095
:1003FD00D43440D4FF30040BEF24BFB41A005003A3
:10040D002461FFE50960021509050CE50C70020574
:10041D000B30070E9060DFE475F001120301EF025F
:10042D00005E0221507403D2078003E4C207F50871
:10043D009060DF120318E4F509F50BF50CE5096082
:10044D00077F2012041080F5750AFFC201C200C299
:10045D0002C203C205C206C2081203DCFF700D30D2
:10046D0007057F00120421AF0CAE0B22B4255FC22D
:10047D00D5C2041203DCFF24D0B40A00501A75F063
:10048D000A780930D50508B6FF0106C6A426F62060
:10049D00D5047002D20380D924CFB41A00EF5004D2
:1004AD00C2E5D204020622D20180C6D20080C0D29B
:1004BD000280BCD2D580BAD20580B47F2012041040
:1004CD002002077401B5090040F11203CDFF12049B
:1004DD001002044AD208D20680951203CDFB1203F6
:1004ED00CDFA1203CDF94A4B700679F37A067BFFEC
:1004FD0020022EE509602A7E008E8275830012038C
:10050D00A060060EEE650A70F0C2D5EBC0E0EAC041
:10051D00E0E9C0E0EE120669D0E0F9D0E0FAD0E0F3
:10052D00FB120045FF60AAEBC0E0EAC0E0E9C0E0C5
:10053D00120410D0E02401F9D0E03400FAD0E0FB31
:10054D00E50A0460DCD50AD980877BFF7A067965D8
:10055D00D202809C791080027908C206C2088008F8
:10056D00D2D5790A8004790AC2D5E50A047002F55C
:10057D000AE4FAFDFEFF1203CDFC7B0820011312E5
:10058D0003CDFD7B1030000A1203CDFE1203CDFF0B
:10059D007B20EC3382D592D55013C3E43000069FF7
:1005AD00FFE49EFEE42001039DFDE49CFCE4CBF8FA
:1005BD00C201EC700CCFCECDCCE824F8F870F380EE
:1005CD0017C3EF33FFEE33FEED33FDEC33FCEB33AE
:1005DD00FB994002FB0FD8E9EB300105F8D0E0C4E0
:1005ED0048B201C0E00AEC4D4E4F78207B0070C23E
:1005FD00EAB50A0040BCC0E012066BD0F0D0E02096
:10060D000104C4C0E0C4B201C0F01203F9D0F0D5AA
:10061D00F0EB02044A12032104E75305615804B8B4
:10062D004C04B44205654F056D44056D4904CD4339
:08063D000573550557460557EA
:100645004505574707135004BC2D04C02E04E32B62
:1006550004C42304E12006FC2A047C48000004DBD2
:100665003F3F3F00790AA2D5200314300509B91090
:10067500020404B9080104A2D52006025001042091
:1006850002689202B509005034C0E07F203003199A
:100695007F30A20272067205500F1206C2C202C254
:1006A50006C205C2087F30800F300503E9C0E0129D
:1006B5000410300503D0E0F9D0E0B509CC300517BA
:1006C5007F30B9100C1204107F583004077F7880F2
:1006D50003B908031204103002057F2D0204107FB0
:1006E500202008F87F2B2006F322920280CF286E67
:1006F500756C6C2900D2011203CD3001F8C2017866
:100705000930D50108F602047C2D504349581203DF
:10071500CD2403B405004001E490070E93120401B3
:0D072500743A120401D20375090402056143
:10037400EF4E6012EF60010EEDBB010B89828A83A0
:10038400F0A3DFFCDEFA2289F05007F709DFFCA9AD
:0C039400F022BBFEFCF309DFFCA9F02204
:1003A000BB010CE58229F582E5833AF583E0225012
:1003B00006E92582F8E622BBFE06E92582F8E2225C
:0D03C000E58229F582E5833AF583E4932276
:00000001FF
