:03000000021219D0
:10121900787FE4F6D8FD9060007F007E07E4F0A3B4
:0A122900DFFCDEFA75812002126E70
:0C000300000000000000000000000000F1
:0B22C400EF1FAC0670011E4C70F622EC
:10002700AB07AA06EB1BAE0270011A4E600C7FAA43
:0B0037007E051222C475D9AA80EA22BF
:100D6D00907120E04480F07F057E001222C4E4FFE4
:100D7D00FE12002775A75575AC5C9071327450F05A
:100D8D009071307403F0907136742FF090715C7423
:100D9D0003F090715BE054FCF07F18EF2466FDE4E6
:100DAD0034718D82F583E4F00FEFB433EE90401182
:100DBD00E4935407FF90711CE054F84FF0904017E6
:100DCD00E493547FFF90711DE054804FF0904010DC
:100DDD00E493FF5401C43333335480FE907123E008
:100DED00547F4EF0EFC313543F4440FFA3E05480B3
:100DFD004FF0904012E493FF540FFE907146E05473
:100E0D00F04EF0EFC4540FFF90714FE054F04FF0DF
:100E1D00904013E493543FFF907140E054C04FF065
:100E2D00904014E493907126F0904015E4939071E6
:0B0E3D0028F0904016E49390712AF01A
:010E48002287
:101CD500E5B154CF42B153A8BFD2AF75D102789CBC
:101CE500E254E3F2E2441CF2E254FCF2E24401F273
:101CF50008E2547FF2E24420F278A17401F21874EC
:101D050076F2789CE2541FF2E244C0F243A84022E6
:030021000212B315
:1012B300C0E0C0F0C083C082C0D075D000C000C001
:1012C30001C002C003C004C005C006C007789DE288
:1012D30030E756E24480F29061DCE0FEA3E0FFE4F5
:1012E300FCFD7BFF7AFFF9F8D31202CD400A90612F
:1012F300DCE475F001120147906174E0C394FF5080
:1013030003E004F01221821221999061DEE475F06A
:10131300011201471221B0121DCD12216B12226B53
:10132300121F901221F2122216D007D006D005D038
:1013330004D003D002D001D000D0D0D082D083D04B
:04134300F0D0E032D4
:101EE400E5B254FC42B253A9FED2AF75D10490714D
:101EF400057409F0907104745FF0907101E0547FEF
:101F0400F0E04420F0907100E0E4F0E044C1F043DC
:031F1400A90122FE
:03002400021AA518
:101AA500C0E0C0F0C083C082C0D075D000C000C007
:101AB50001C002C003C004C005C006C00790710183
:101AC500E030E70AE04480F01219101218ADD00793
:101AD500D006D005D004D003D002D001D000D0D09C
:091AE500D082D083D0F0D0E032B1
:040451004161E6001F
:1021C700907123E054D8F0E04459F0227869E24452
:0621D70001F29061E62216
:101F6A0078C3E24403F218E2440CF2786AE2447954
:101F7A00F27591FF9071227407F0439E7043994065
:061F8A0043AA04D2AF22BD
:10203D005399E0EF24FE600B04700E1221C74399F3
:10204D000480061221C74399017869E24448F222BF
:101DCD009061E6E014601914601D1460261460041F
:101DDD00240470257F0112203D9061E67401F022EC
:101DED001221D37402F0227F0212203D9061E6741D
:0A1DFD0003F0221221D37404F02237
:030042000213D0D6
:1013D000C0E0C0F0C083C082C0D075D000C000C0E3
:0D13E00001C002C003C004C005C006C00764
:1013ED00786BE230E142E24402F2AF93EF75F01018
:1013FD00A4FFE594C4540FFDEF4DFF9061D4E5F0CB
:10140D00F0A3EFF09061E6E024FC60112402701867
:10141D009061D4E0FEA3E0FF121F17800B9061D402
:08142D00E0FEA3E0FF12201C09
:10143500D007D006D005D004D003D002D001D0000B
:0B144500D0D0D082D083D0F0D0E032B5
:101FFB009061C5F09061E102035590000612005EFE
:10200B00FE90000802005E9000091200D090000CB8
:01201B0022A2
:1006A600E49061C5F07FFFA374FFF09061E112034F
:1006B6007590000112005EFE120045FDEEC39D50CE
:1006C60003020838121FFF900001E41200D09000C8
:1006D6000E12037E1203D4EFF460089061E07423D7
:1006E600F080099061E0E06003E014F0121FFF90D3
:1006F600000312005E6F601590000512005E600D2B
:10070600900004E41200D090000302083490000523
:1007160012005EFE90000412005EC39E500B121F74
:10072600FF900004740102008B121FFF900002125A
:10073600005E6F6048EFF4701C122005C39E400AED
:100746007405121FFB9000028061121FFF90000AC1
:10075600740102082B121FFF900008740112201565
:1007660012005E6F9061E1600C1203557401122055
:1007760012EF02082B120355900009803DEFF4702A
:1007860041121FFF90000912005ED394005003022D
:10079600082E90000B12005EFE90000A12005ED337
:1007A6009E40117401121FFB90000C12005E9061B6
:1007B600C6F08054121FFF90000A740112008B02CB
:1007C600082E121FFF12200CC394FF500890000839
:1007D600740112008B122005B506089061C57403DA
:1007E600F08020121FFF9000071220086E703990CB
:1007F60061C57404121FFE90000612005E90000888
:100806001200D09061C6EFF0121FFFE4122012749E
:10081600FF1200D09061C6E09000111200D09061E6
:10082600C5E09000121200D0121FFF900002EF12D6
:0208360000D0F0
:01083800229D
:10000F0075AF3F8FAF75AEB975A402E5A530E1FBB3
:01001F0022BE
:101E79009061D012037575AF3F8FAF9061D3E0C306
:101E890094014022E5A530E0FB9061D0E475F001B2
:101E990012035E120045F5A675AEB975A4019061ED
:071EA900D3E014F080D52204
:101EB0009061D01203759061D3E06027AE070FEEFA
:101EC0002400FDE4343F8D82F583E493FE9061D0DD
:101ED000E475F00112035EEE1200BE9061D3E014CF
:041EE000F080D32299
:050455004261C300003C
:0722D8007B017A6179B3225A
:10216B00C39061C4E094FF9061C3E094FF5007E417
:07217B0075F001120147227B
:101FB500E4FDFCEE30E703D38001C392A5D296EF92
:101FC50025E0FFEE33FEC2960DBD00010CED641059
:031FD5004C70E06D
:011FD80022E6
:0B1B35009061C51203759061C8EDF0CF
:101B4000C296C2A4E4A3F09061C8E0FFA3E0FEC384
:101B50009F50219061C512035575F002EEA4F582E5
:101B600085F08312015DFFAEF0121FB59061C9E0F0
:0A1B700004F080D3D2A4C2A4C2A5E1
:011B7A002248
:1020B800C39061C4E094329061C3E09400400CE4A2
:0C20C800F0A3F01222D87D08121B352274
:101BC1007E007F107D001222D812040778D3E254E0
:101BD100CFF2E24410F290718CE4F078E3E254F336
:101BE100F2E24404F2907193E4F0E254FCF2E24434
:101BF10001F2907192E4F0C2A5C296C2A41222D859
:051C01007D08021B3507
:101FD90012224412229F12225E122278121F6A12C2
:101FE9001AEE121BC1121CD5121EE47F017E0002DB
:021FF9000027BF
:101C0600120D6D75D95590715EE054FEF075D9BB15
:101C1600121FD912145075D9AA1222517B017A616A
:101C260079731206A6121779120AA7120975120BF2
:101C36009F1214CF12154D120F1D1216A51216392A
:051C46001220B880D15E
:0D22440078E0E24401F278E2E254FCF2227C
:0D22510020A0047F018002E4FF1221222260
:10045A00C10144610D000000004461110000000068
:10046A004461150000000044611900000000416168
:10047A001D006028611E000000000000000000004E
:10048A000000000000000000000000000000000062
:10049A0000000000000000000000000000004161B0
:1004AA004600C100426108000041610A0041610B37
:0104BA000041
:101A08009061C8E0FF241EF582E43461F5832290DA
:101A180061C5FEFDFC0203009061AEE0FF90610B22
:101A2800E0221202F4EF2401FFE43EFEE43DFDE46F
:101A38003CFC22906111020300E4FAF9F802023B2F
:101A48009F9061C7F0E0FFC3940A22E4FDFC020303
:011A5800008D
:1021DD00E4FE741E2E121A0FEFF00EEEB428F3E487
:0421ED00906146F0C7
:0121F10022CB
:10213B00906146E0121A0DEFF0906146E004F0E07A
:08214B00C394284002E4F022D5
:10116F009061C912031800000000E49061CDF0A354
:10117F0074FFF0E49061C8F09061C91203009061B0
:10118F00C8E0121A0DE0FFE4FCFDFE12019590611C
:10119F00C912030C121A08E0FE9061CDE0C39E50F5
:1011AF000B741E2F121A0FE09061CDF0121A08E087
:1011BF00FE9061CEE0D39E400B741E2F121A0FE0EB
:1011CF009061CEF09061C8E004F0E0642870A990BF
:1011DF0061C91202F4C006C0079061CEE0FF9061B2
:1011EF00CDE02FFFE433AB07FA3395E0F9F8D007E2
:1011FF00D0061201A29061C912030CE47B26FAF902
:0A120F00F89061C91202F402023BDC
:0D225E0078D3E254F3F278D0E24420F2226B
:101D91009061151202F4121A3B120195906115120D
:101DA100030C9061111203180000000090611912D8
:101DB10002F490610D120300120195906119120352
:0C1DC1000C90610D1203180000000022BD
:1018AD00906108E475F001120147C3906109E0945D
:1018BD0014906108E09400402FE4F0A3F0906111C2
:1018CD00121A2A90611112030CE47F587E02FDFC5E
:1018DD00121A3BC31202E3400F20010C906111124A
:1018ED00031800000000D20130951520000F906103
:1018FD000D121A2A90610D12030C121D91D20022A5
:02190D00C20016
:01190F0022B5
:100AA7009061C5120318000000009061C912031875
:100AB700000000007FF47E01906115121A53C312E3
:100AC70002E35006200103020B9E7F2E7E049061F5
:100AD70019121A531201B07B03121A419061C912FD
:100AE700030C300123E4FF906119121A1AC3120292
:100AF700E39061C5600912031800000001802C1201
:100B07000318000000008023E47F24FEFDFC9061B1
:100B1700C91203001201B07B0A121A419061151223
:100B2700030012023B9061C512030C9061D81202B8
:100B3700F49061C91203001201959061D812030C59
:100B47009061191203180000000090611512031834
:100B570000000000C201E4FF121A17D31202E3409B
:100B670015E47F66121A171201B0E47B64121A4269
:100B77009061C512030CE47FC7121A17D31202E360
:100B8700400A9061C5120318000000C79061C512A2
:070B970002F49061AEEFF0E3
:010B9E002234
:0D226B0090611DE0C394FF5003E004F022D9
:1009750090610AE0702204F09061AEE090610BF0A6
:100985009061AEE090610CF090610BE0FF120C8776
:100995009061AEE0FF1221DD90611DE0C3944B50E4
:1009A50003020AA6E4F0121A20D39F403B121A2034
:1009B500121A485003020A3BEF943240089061C670
:1009C5007414F08011EFC394149061C64005740A45
:1009D500F080037405F090610BE0FF9061C6E0FEC6
:1009E500C3EF9E90610B803B121A20C39F5047E0D6
:1009F500FF9061AEE0C3121A48403BEF94324008C5
:100A05009061C67414F08011EFC394149061C640D0
:100A150005740AF080037405F09061C6E0FF9061EB
:100A25000BE02FF09061AEE0FF1221DD9061AEE0AA
:100A350090610CF080639061AEE0FF12213B1211D2
:100A45006F9061C5EFF0E0C3940A5007E090610C28
:100A5500F0802590610CE075F003A4FDACF0906189
:100A6500C5E075F007A42DFFE5F03CFE7C007D0A8E
:100A75001200F290610CEFF090610CE09061C5F00E
:100A8500121A23D39F4005E014F0800D9061C51222
:100A95001A23C39F5003E004F090610BE0FF120C92
:010AA50087C9
:010AA600222D
:1004BB0042619C000042619E0000C10241618B00C1
:0804CB0041618C0041618D00CC
:0D228500906198020300E475F0010201472A
:0D22780078C2E254CFF278C0E24404F222B2
:101D15009061941202F490618E1203001201959065
:101D2500619412030C90618E1203180000000012DA
:101D35002285906192E0FEA3E0FFE4FCFD1201958F
:0E1D450090619812030CE4906192F0A3F022DA
:1019100090618BE004F0E0C394144020E4F0906107
:101920009212228CC3906193E09458906192E0945B
:10193000024009200306E4F0A3F0D2033082222003
:10194000021C90618E1202F4EF2401FFE43EFEE4DB
:101950003DFDE43CFC90618E12030C121D15D20279
:0319600022C2029E
:011963002261
:1014CF00E47FF47E01FDFC122285C31202E3500378
:1014DF0030036A30030EC2039061C5120318000077
:1014EF000000801CE47F607EEAFDFC906194120393
:1014FF00001201B012228512023B9061C512030C3B
:10150F009061941203180000000090619812031864
:10151F0000000000E47FFF7EFFFDFC9061C5120319
:10152F0000C31202E3400A9061C51203180000FFC6
:0D153F00FF9061C51202F49061AA12030C26
:01154C00227C
:101F9000C390619DE094FF90619CE094FF50031218
:101FA000228BC390619FE094FF90619EE094FF506C
:051FB0000312228B2248
:1020F000E47BE87A03F9F89061AA1202F412023B39
:08210000EFD3940C40027F0CA8
:0121080022B4
:10154D00E49061C5F090618DE0700A04F01220F016
:10155D0090618CEFF0C390619DE094C890619CE028
:10156D0094004052E4F0A3F01220F09061C5EFF02A
:10157D0090618CE0FEC39F5005E004F080169061F1
:10158D00C5E0FFEED39F400C90618CE0D3940040FA
:10159D0003E014F090618CE0C3940840089061B0B2
:1015AD007401F08009E49061B0F0FF122235906172
:0615BD008CE0FF1210B6E5
:0115C3002205
:0804D3004161D7004161D60030
:102153001202F4EF2401FFE43EFEE43DFDE43CFC07
:0821630022120300C30202E393
:100B9F00C39061DDE094E89061DCE09403400F3096
:100BAF00040C1220D4C204E49061DCF0A3F0E47FC3
:100BBF00E87E03FDFC9061D812216440657F187EAA
:100BCF00C67D9A7C3B9061A0122164500C9061A06D
:100BDF001221539061A012030C7F9C7EE07DF57C67
:100BEF00059061A4122164500C9061A412215390BE
:100BFF0061A412030C9061D81202F4C3EF94E8FFC2
:100C0F00EE9403FEED9400FDEC9400FC9061D8127D
:020C1F00030CC4
:100C21009061D6E004F0E0C3940A4004E4F0D204F9
:100C31009061D7E0600FC39061DFE094E89061DEDE
:100C4100E094034040E49061DEF0A3F09061D704AA
:100C5100F09061A8E06017E47BE87A03F9F890610D
:100C6100A01202F412023B9061C974018013E47B6B
:100C710064FAF9F89061A41202F412023BE4906163
:050C8100C9F0121A5930
:010C8600224B
:1004DB004260B200004260B40000602860B60000C9
:1004EB000000000000000000000000000000000001
:1004FB0000000000000000000000000000000000F1
:10050B000000000000004160DE004160AF00602889
:10051B0060DF000000000000000000000000000091
:10052B0000000000000000000000000000000000C0
:10053B000000000000000000000041610700416066
:06054B00B0004160B100A8
:101E070025E024B6F582E43460F583EEF0A3EFF025
:101E17002225E024DFF582E4346022F583E0FEA387
:101E2700E0FFE4FCFD0201959061C5E0FEA3E0FF41
:0A1E370022E47B14FAF9F80202F429
:0B22AC00E4FDED121E070DEDB414F769
:0122B7002204
:10201C009060AFE0700504F00222AC9060DEE0123C
:10202C001E079060DEE004F0E0C394144002E4F07C
:01203C002281
:101D53009061C912031800000000E49061C8F0907C
:101D630061C91203009061C8E025E024B6F582E45E
:101D73003460121E229061C912030C9061C8E00402
:0E1D8300F0E0B414DA9061C9121E3802023B7F
:10218200C39060B3E094FF9060B2E094FF5007E424
:0721920075F0011201472264
:10219900C39060B5E094FF9060B4E094FF5007E409
:0721A90075F001120147224D
:0E222600E4FDED121E18121E100DEDB414F49E
:012234002287
:10210900906107E0121E18121E10906107E004F09A
:09211900E0C394144002E4F0223A
:101E41009061C912031800000000E49061C8F0908D
:101E510061C91203009061C8E0121E18121E22907F
:101E610061C912030C9061C8E004F0E0B414E09081
:081E710061C9121E3802023B98
:101B7B00E4FDC3EF94AAEE940540028036C3EF94C4
:101B8B00B4EE940440047D018029C3EF94BEEE941F
:101B9B000340047D02801CC3EF94C8EE9402400402
:101BAB007D03800FC3EF94D2EE940140047D04803B
:051BBB00027D05AF05ED
:011BC0002202
:100F1D00E49061C7F0C39060B3E094C89060B2E014
:100F2D0094005003020FD5E4F0A3F0121D537C077B
:100F3D007DD01203DAE4FB7A10F9F812023B9061CE
:100F4D00C5EEF0A3EFF09060B0E0702704F0121E34
:100F5D002F122226121E2F121B7BA3EFF09060B1D1
:100F6D00F0700B9061B2E07010120FE4800B120F55
:100F7D00D68006121E2F122109C39060B5E0948809
:100F8D009060B4E094134040E4F0A3F0121E4112BF
:100F9D001B7B9061C7EFF09060B1E0FEC39F5005E1
:100FAD00E004F080109061C7E0FFEED39F40069003
:100FBD0060B1E014F09060B1E0700A9061B2E07041
:080FCD0007120FE422120FD6F7
:100FD50022E49061B2F09060B1E0FF121C4B22FF59
:0A0FE500121C4B9061B27401F0225F
:100551006028614A00000000000000000000000067
:10056100000000000000000000000000000000008A
:100571000000000000000000000000004161720066
:04058100416147008D
:0C22B80025E0244AF582E43461F583221D
:10220500E4FDED1222B8EEF0A3EFF00DEDB414F2FB
:0122150022A6
:101F1700906147E0700A1222059061477401F02230
:101F2700906172E01222B8EEF0A3EFF0906172E0D8
:0A1F370004F0E0C394144002E4F04B
:011F4100227D
:101964009061C812031800000000E49061C7F09071
:1019740061C81203009061C7E01222B8E0FEA3E040
:10198400FFE4FCFD1201959061C812030C9061C73D
:10199400E004F0E0B414D89061C81202F4E47B14BB
:1019A400FAF9F812023B9061C812030C9061C80264
:0219B40002F43B
:1021B000C3906149E094FF906148E094FF5007E4C8
:0721C00075F0011201472236
:1016A500C3906149E094C8906148E09400405AE4D1
:1016B500F0A3F0121964E4FCFD7B607A617902F80D
:1016C5001201B0E47B0AFAF9F812023BE4FB7A1046
:1016D500F9F812023BEF2464FFE43EFE9061C5F089
:1016E500A3EFF0C3943CEE94284009E49061B1F077
:1016F500FF022292C39061C6E094109061C5E09408
:091705002750069061B17401F057
:01170E0022B8
:100585005361A00000000000000000000000000012
:0605950000000000000060
:101AEE007B017A6179C59061D3740AF0E4FF121E0E
:101AFE00B09061CEE0B4C5219061C51202F4906140
:101B0E00A012030C9061C91202F49061A412030C8E
:101B1E009061CDE09061A8F0229061A87401F0A3CD
:061B2E0074C5F01220D482
:011B3400228E
:1020D4009061A974C5F0E4FF12000F7B017A617965
:0C20E400A09061D3740AF0E4FF021E79A2
:10059B004A60113F065B4F666D7D077F6F6054604D
:1005AB001B030D030C020D03080309030B030A03C2
:1005BB0000030203050307030603030304040E04ED
:1005CB000C04090408040A040D040B0401050F04B0
:1005DB00040406040704000402050B050A040304C3
:1005EB0005050D050E050C0503050205040507059C
:1005FB0009050605055C606F070F070E070107026B
:10060B000700070D070C06020601060F0207060E70
:10061B000600060D6020608B070707060705070419
:10062B0007080709070A070B060306040605060653
:10063B00060706080609060A416010004260AB0077
:10064B0000C1054260AD0000426000000041600245
:10065B0000416003004260040000416006004160FD
:10066B000700426008000041600A0041600B004235
:0C067B00600C000041600E0041600F00A8
:10083900E0FE75F00EA4246FF582E43460F583754B
:10084900F002EF120349E025E024B3F582E43461B4
:10085900F5832275F002120349E0FF7E007401A8B6
:10086900070822E04402F0A3E04480F0A3E0F0226C
:10087900E0FCA3E0FDEE75F00EA42470F582E434EB
:1008890060F58322E04404F0A3E0F09061B7E0440E
:1008990008F0A3E0F022E475F0010201479061B786
:1008A900E04401F0A3E0F022F4FFEEF45CFEED5F1A
:1008B900FF22AD07E054FBF0E054F7F022C390604B
:1008C90001E09496906000E0940022C390600DE0EE
:1008D900942C90600CE0940122EFF074112DF582B4
:1008E900E43460F583E02275F00EA4241CF582E45B
:1008F9003460F58322E4F0A3F0A37402F022C390DC
:100909006005E09464906004E0940022C39060095B
:10091900E094C8906008E0940022E04440F0A3E02D
:10092900F02275F00EA4241BF582E4346022FFEC5A
:100939004EFEED4FFF2225E0248BF582E43460F56D
:10094900832225E0248CF582E43460F58322EEF0DD
:10095900A3EFF09061C6E004F022E0547FF0E05488
:0C096900BFF0A3E022E0FCA3E0FDEF22C1
:101F42009061B31208719061B6E04401F0E0441070
:101F5200F09061B51208A99061B5E04410F0A3E0D9
:081F6200F09061B51208712234
:0F2235009061B4E054FDF0EF6004E04402F02249
:1010B6009061B61208BBE054DFF0E054BFF0E05494
:1010C6007FF09061B5E054FDF01208BDE054DFF00A
:1010D600E054BFF09061B3E054FEF0E054FDF0ED53
:1010E6001203AE1167011160021159031152041166
:1010F6004B05114106113707113108112709112136
:101106000A111B0B11110C0000116E9061B3E04423
:1011160002F0A3E0F09061B31208A99061B512093C
:10112600239061B5E04420F0A3E0F09061B5120889
:10113600979061B5E04404F0A3E0F09061B5E04417
:1011460002F0A3E0F09061B6E04480F09061B6E072
:101156004440F09061B6E04420F09061B6E0440867
:09116600F09061B6E04404F022AF
:0D2292009061B71208BBED600312088D22A9
:10212200AD079061B8E054EFF0E054DFF0ED6008E5
:09213200E04410F0E04420F0222A
:101C4B00AD079061B712096354FEF0E054FDF0E06C
:101C5B0054FBF0ED14602714601E14601414600A1A
:101C6B001470219061B8E04404F09061B8E0440234
:101C7B00F09061B8E04401F09061B71209239061D4
:051C8B00B712087122F0
:10205D00E49061BDF0A3E05401F0E49061BDF0A304
:10206D00E05402F0EF6008E04401F0E04402F02299
:030FEF009061CF3F
:100FF2001208E29061D1F0E49061D0F09061D0E00B
:10100200FFC3940740030210B59061CFE0FE1209BE
:101012002B120846C083C082E0FCA3E0FDEE12085A
:10102200F0C083C0829061D0E0FBD082D0831208EE
:101032005C8005C333CE33CED8F91208B1D082D04A
:1010420083EEF0A3EFF07E007401A803088005C3CD
:1010520033CE33CED8F9FF9061D1E0FDEF5D604A27
:101062009061CFE0FF12092BF583C083C0829061AB
:10107200D0E0D082D08375F00212084CC083C082C7
:1010820012096E1208F0C083C0829061D0E0D08253
:10109200D08312085C8005C333CE33CED8F912094F
:1010A20037D082D083EEF0A3EFF09061D0E004F06D
:0310B200020FFE2C
:0110B5002218
:0619B6009061CA12030C4F
:1019BC00E49061CEF09061CEE0FFC39406503CC33E
:1019CC0074059FFFC007E47B0AFAF9F89061CA120C
:1019DC0002F412023BAF03AD07D007120FEF906178
:1019EC00CA1202F4E47B0AFAF9F812023B9061CABB
:0B19FC0012030C9061CEE004F080BAF2
:011A070022BC
:101A59009061C512030C9061B912096354FDF0A39A
:101A6900E0547FF09061BDE054FEF07F0112205DEB
:101A79009061C51202F41219B69061C9E0600E9026
:101A890061B91208719061B9E04440800A9061BA65
:0C1A990012086CA3E04401F0A3E0F0226E
:10207D00AD079061BFE054F7F0E054EFF0ED600D67
:0E208D001208979061BFE04410F0A3E0F0222B
:030E49009061CDE8
:100E4C001208E29061CFF0E49061CEF09061CEE0B8
:100E5C00FFC39407503A9061CD120839C083C08209
:100E6C00120879C083C0829061CEE0D082D0831208
:100E7C00085C8005C333CE33CED8F91208B1D082CA
:100E8C00D083EEF0A3EFF09061CEE004F0020E58A8
:100E9C00E49061CEF09061CEE0FFC39407507112E4
:100EAC0008648005C333CE33CED8F9FF9061CFE010
:100EBC00FDEF5D60529061CDE0FF75F00EA4246FE4
:100ECC00F582E43460F583C083C0829061CEE0D0BB
:100EDC0082D08375F00212084CC083C08212096E56
:100EEC0012087FC083C0829061CEE0D082D0831282
:100EFC00085C8005C333CE33CED8F9120937D082C3
:100F0C00D083EEF0A3EFF09061CEE004F0020EA1DE
:010F1C0022B2
:050C87009061C8EFF0D0
:100C8C00E49061CBF0A3F09061B7E054FEF090617A
:100C9C00C2E054F7F07F0112207DE49061C9F0E4CA
:100CAC009061CAF09061CAE0FFC39407503A90611A
:100CBC00C9120839C083C082120879C083C08290DF
:100CCC0061CAE0D082D08312085C8005C333CE3376
:100CDC00CED8F91208B1D082D083EEF0A3EFF09009
:100CEC0061CAE004F0020CB09061C9E004F0E06469
:100CFC000270AC9061C8E09061CCF09061CBE004E4
:100D0C00F0A3E075F00A84F070F19061C8E0C39430
:100D1C0064400A1208A69061C2E04408F0E49061B5
:100D2C00C9F09061C9E0FFC3940250349061CBE0EC
:100D3C00B40105EF640160209061C9E0FFC3740148
:100D4C009FFF9061C8E075F00A84ADF0120E4990D7
:100D5C0061C8E075F00A84F09061C9E004F080C2CB
:010D6C002264
:0515C4009061C5EFF08D
:1015C900E4A3F09061C6E0FF12093F12084FC083FF
:1015D900C08212096E12094B1208628005C333CE0C
:1015E90033CED8F91208B1D082D083120957E0B4AA
:1015F90010D1E49061C6F09061C5E0FFA3E0FEC39D
:101609009F502CEE12093F12084FC083C082E0FCA4
:10161900A3E0FDEE12094B1208628005C333CE33F5
:0F162900CED8F9120937D082D08312095780C862
:01163800228F
:10170F0090600012089F906002E0FE70241208C6DD
:10171F004057E4F0A3F0906003E004F0E0FF940C76
:10172F0040449060027401F0E4906000F0A3F080F8
:10173F0035EEB40110C3906001E094C81208CD409B
:10174F00281208FE22906002E0B4021D1208C64063
:10175F0018E4F0A3F0906003E0D394004003E0148A
:09176F00F0906003E0FF1210B6D7
:01177800224E
:1017E30090600412089F906006E0FB701D120907C9
:1017F3004053E4F0A3F0906007E004F0E0FF94109E
:1018030040409060067401F08038EBB40113C3903C
:101813006005E09490906004E0940140281208FE73
:1018230022906006E0B4021D1209074018E4F0A3F9
:10183300F0906007E0D394004003E014F090600759
:05184300E0FF1215C4D6
:01184800227D
:1013470090600812089F90600AE0FA70271209154A
:101357004044E4F0A3F012139E1213B840FB9060D0
:101367000BE004F0E0C3940A402C7409F090600A83
:101377007401F022EA6401701D1209154018E4F0A7
:10138700A3F090600BE0D394004003E014F0121335
:061397009E1213B840FB9A
:10139D002290600BE0FDE4FF120E4990600BE0FD22
:1013AD007F01120E49E49061C5F0229061C5E0FF06
:1013BD0090600BE0FD120FEF9061C5E004F0E0C30B
:0313CD0094062261
:1018490090600C12089F90600EE0FE701E1208D482
:101859004051E4F0A3F090600FE094055005E004D6
:10186900F0803890600E7401F08030EEB40110C33E
:1018790090600DE094901208DB40281208FE229037
:10188900600EE0B4021D1208D44018E4F0A3F090F1
:10189900600FE0D394004003E014F090600FE0FF84
:0318A900121C4BC3
:0118AC002219
:10221600906010E0B401089060AB12089FD20522CE
:101450009060107401F0121F427F01122235122099
:101460005D12207D9061B91208719061B912092353
:1014700012086CA31208A97F0112229212212212D3
:1014800008A69061C2E04408F0906010E0603F75EB
:10149000D9AA3005F4C20512170F1217E312134729
:1014A000121849C39060ACE094A09060ABE0940F38
:1014B0004017E4906010F0FF1210B612223512228D
:0F14C000921221227F101215C41220B880BB2275
:1021F200C39060AEE094FF9060ADE094FF50031294
:03220200089F2210
:10163900C39060AEE094DB9060ADE09401405CE45F
:10164900F0A3F09061B0E060189061B3E013A3E0FB
:101659001330E006E054FDF080079061B4E04402E5
:10166900F09061B1E060169061B7E01313543F3018
:10167900E0051208BD80069061B712088D9061B22D
:10168900E060189061B7E0C4131313540130E0050A
:0C169900E0547FF0229061B7120871222B
:100687005361730A000000000332410000000000BC
:0E06970001FF22CF000045618601010203042D
:10209B007B64FA9061A4F9F81202F402023BEC752E
:0D20AB00F005A42486F582E43461F583225B
:0D229F0078C0E24420F278C3E254F3F2224A
:0922CF002085037F01227FFF221C
:101C9000E4FEFCFBEDB401030B8016EDB403047B02
:101CA00002800EEDB404047B038006EDB405027BD4
:101CB00004ECC39401501B1220A9E0B507111220B7
:101CC000A9E5822BF582E43583F583E0FE80030CE1
:041CD00080DFAF06FC
:011CD40022ED
:10177900906184E06063E0FFA3E0FD121C90E490B7
:101789006184F0A3F0EF24FE603004704C9061A8EE
:10179900E0600BE4F012209BE49061C9801690612F
:1017A900A87401F0E47BE87A039061A01220A1906B
:1017B90061C97401F0121A59801C9061A8E070196E
:1017C9009061A412031800000000E412209BE49029
:0917D90061C9F0121A591220D462
:0117E20022E4
:10123300021C06E493A3F8E493A34003F68001F2AF
:1012430008DFF48029E493A3F85407240CC8C333BC
:10125300C4540F4420C8834004F456800146F6DF8B
:10126300E4800B0102040810204080900451E47EC6
:10127300019360BCA3FF543F30E509541FFEE49380
:10128300A360010ECF54C025E060A840B8E493A347
:10129300FAE493A3F8E493A3C8C582C8CAC583CA72
:1012A300F0A3C8C582C8CAC583CADFE9DEE780BE2A
:0106A5000054
:10004500BB010689828A83E0225002E722BBFE02B9
:09005500E32289828A83E49322EC
:10005E00BB010CE58229F582E5833AF583E0225057
:10006E0006E92582F8E622BBFE06E92582F8E222A1
:0D007E00E58229F582E5833AF583E49322BB
:10008B00BB010FF8E58229F582E5833AF583E02879
:10009B00F0225009C58229F8E58226F622BBFE091B
:1000AB00C58229F8E22582F222F8EA2583F583E955
:0300BB0093282265
:1000BE00BB010689828A83F0225002F722BBFE0121
:0200CE00F3221B
:1000D000F8BB010DE58229F582E5833AF583E8F066
:1000E000225006E92582C8F622BBFE05E92582C812
:0200F000F222FA
:1000F200BC000BBE0029EF8DF084FFADF022E4CCF2
:10010200F875F008EF2FFFEE33FEEC33FCEE9DECBA
:10011200984005FCEE9DFE0FD5F0E9E4CEFD22ED00
:10012200F8F5F0EE8420D21CFEADF075F008EF2F4A
:10013200FFED33FD4007985006D5F0F222C398FD3B
:050142000FD5F0EA22D8
:10014700C5F0F8A3E028F0C5F0F8E5821582700243
:060157001583E038F022E0
:10015D00BB0110E58229F582E5833AF583E0F5F0E0
:10016D00A3E0225009E92582F886F008E622BBFEBD
:10017D000AE92582F8E2F5F008E222E5832AF58303
:08018D00E993F5F0A3E99322C8
:0D019500EF2BFFEE3AFEED39FDEC38FC22B9
:0E01A200C3EF9BFFEE9AFEED99FDEC98FC2258
:1001B000E88FF0A4CC8BF0A42CFCE98EF0A42CFCEE
:1001C0008AF0EDA42CFCEA8EF0A4CDA8F08BF0A46C
:1001D0002DCC3825F0FDE98FF0A42CCD35F0FCEBCB
:1001E0008EF0A4FEA9F0EB8FF0A4CFC5F02ECD3990
:0F01F000FEE43CFCEAA42DCE35F0FDE43CFC22FD
:1001FF0075F008758200EF2FFFEE33FECD33CDCCB7
:10020F0033CCC58233C5829BED9AEC99E582984039
:10021F000CF582EE9BFEED9AFDEC99FC0FD5F0D616
:10022F00E4CEFBE4CDFAE4CCF9A88222B800C1B940
:10023F000059BA002DEC8BF084CFCECDFCE5F0CB7E
:10024F00F97818EF2FFFEE33FEED33FDEC33FCEBB7
:10025F0033FB10D703994004EB99FB0FD8E5E4F972
:10026F00FA227818EF2FFFEE33FEED33FDEC33FC5F
:10027F00C933C910D7059BE99A4007EC9BFCE99A53
:10028F00F90FD8E0E4C9FAE4CCFB2275F010EF2F98
:10029F00FFEE33FEED33FDCC33CCC833C810D70798
:1002AF009BEC9AE899400AED9BFDEC9AFCE899F8D3
:0E02BF000FD5F0DAE4CDFBE4CCFAE4C8F92266
:1002CD00EB9FF5F0EA9E42F0E99D42F0EC6480C8A8
:0602DD0064809845F02248
:1002E300EB9FF5F0EA9E42F0E99D42F0E89C45F071
:0102F30022E8
:0C02F400E0FCA3E0FDA3E0FEA3E0FF227D
:0C030000E0F8A3E0F9A3E0FAA3E0FB2280
:0C030C00ECF0A3EDF0A3EEF0A3EFF02264
:10031800A8828583F0D083D08212032F12032F1274
:10032800032F12032FE473E493A3C583C5F0C58399
:10033800C8C582C8F0A3C583C5F0C583C8C582C82F
:010348002292
:0C034900A42582F582E5F03583F58322BF
:09035500E0FBA3E0FAA3E0F922A9
:10035E00F8E0FBA3A3E0F925F0F0E5821582700228
:07036E001583E0FA38F022CC
:09037500EBF0A3EAF0A3E9F02289
:10037E00BB010DE58229F582E5833AF5830203552B
:10038E005007E92582F8020433BBFE07E92582F8FF
:10039E0002043CE58229F582E5833AF583020445A1
:1003AE00D083D082F8E4937012740193700DA3A3DE
:1003BE0093F8740193F5828883E4737402936860F2
:0603CE00EFA3A3A380DFF2
:0603D4008A838982E473B4
:1003DA00EC8EF0A4CCC5F0CCCDF8EFA4CEC5F02DB0
:1003EA00FDE43CFCE8A42EC8C5F03DFDE43CFCEF6E
:0D03FA00A4FFE5F028FEE43DFDE43CFC22FC
:10040700EF4E6012EF60010EEDBB010B89828A830C
:10041700F0A3DFFCDEFA2289F05007F709DFFCA919
:0C042700F022BBFEFCF309DFFCA9F02270
:09043300E6FB08E6FA08E6F922EE
:09043C00E2FB08E2FA08E2F922F1
:0C044500E493FB740193FA740293F92213
:00000001FF
