:03000000020CD41B
:100CD400787FE4F6D8FD9060007F007E07E4F0A3FF
:0A0CE400DFFCDEFA758121020D2904
:0C000300000000000000000000000000F1
:0B160C00EF1FAC0670011E4C70F622B0
:10002700AB07AA06EB1BAE0270011A4E600C7FAA43
:0B0037007E0512160C75D9AA80EA2283
:10099500907120E04480F07F057E0012160CE4FF84
:1009A500FE12002775A75575AC5C9071327450F036
:1009B5009071307403F0907136742FF090715C74FF
:1009C50003F090715BE054FCF07F18EF2466FDE4C2
:1009D50034718D82F583E4F00FEFB433EE9040115E
:1009E500E4935407FF90711CE054F84FF0904017C2
:1009F500E493547FFF90711DE054804FF0904010B8
:100A0500E493FF5401C43333335480FE907123E0E3
:100A1500547F4EF0EFC313543F4440FFA3E054808E
:100A25004FF0904012E493FF540FFE907146E0544E
:100A3500F04EF0EFC4540FFF90714FE054F04FF0BB
:100A4500904013E493543FFF907140E054C04FF041
:100A5500904014E493907126F0904015E4939071C2
:0B0A650028F0904016E49390712AF0F6
:010A70002263
:07164600E475F0010200D77A
:1011E900E5B154CF42B153A8BFD2AF75D102789CB3
:1011F900E254E3F2E2441CF2E254FCF2E24401F26A
:1012090008E2547FF2E24420F278A17401F21874E2
:1012190076F2789CE2541FF2E244C0F243A84022DD
:03002100020F2AA1
:100F2A00C0E0C0F0C083C082C0D075D000C000C08D
:100F3A0001C002C003C004C005C006C007789DE214
:100F4A0030E74FE24480F29060E412164690607CEB
:100F5A00E0FEA3E0FFE4FCFD7BFF7AFFF9F8D31281
:100F6A00025D400690607C1216469060011202975C
:100F7A00EF2401FFE43EFEE43DFDE43CFC90600109
:100F8A001202AF90607E1216469060B61216461292
:100F9A001622D007D006D005D004D003D002D00143
:0D0FAA00D000D0D0D082D083D0F0D0E03283
:0D0E0300C109C10A4160DB004260DC000053
:10158A00120297EF2401FFE43EFEE43DFDE43CFC39
:01159A00222E
:10134A00E5B254FC42B253A9FED2AF75D1049071F2
:10135A00057409F0907104745FF0907101E0547F94
:10136A00F0E04420F0907100E0E4F0E044C1F04382
:03137A00A90122A4
:0300240002089F30
:10089F00C0E0C0F0C083C082C0D075D000C000C01F
:0D08AF0001C002C003C004C005C006C007A0
:0E08BC00907101E020E70302097AE04480F029
:1008CA009060DBE004F0E0C394144023E4F090600D
:1008DA00A475F0011200D7C39060A5E09458906007
:0F08EA00A4E094024009200E06E4F0A3F0D20E21
:1008F90030821620090F9060A012158A9060A0120C
:0B09090002AF121268D2098002C2097E
:100914009060DCE475F0011200D7C39060DDE094D0
:10092400149060DCE094004032E4F0A3F090609412
:1009340012158A9060941202AFE47F587E02FDFC87
:100944009060941202A3C3120273400F200D0C9006
:0B09540060941202BB00000000D20DF6
:10095F00309516200A0F90609012158A90609012B1
:0B096F0002AF1212A6D20A8002C20AD8
:10097A00D007D006D005D004D003D002D001D000D1
:0B098A00D0D0D082D083D0F0D0E0327B
:0E15BD00906058EFF012163E906058E0FF224A
:1015420078E2E254CFF2E24410F2907190E0440467
:0B155200F075D60175D59F75D21022F0
:08163E00E5D430E4FB8FD72254
:040E10004160E0005D
:1013DE001201329060BC1202AF9060BC020297788C
:1013EE0069E24401F222F2AF93EF75F010A4FF22EE
:0A13FE00E594C4540FFDEF4DFF22EB
:1014800078C3E24403F218E2440CF2786AE2447949
:10149000F27591FF9071227407F0439E704399405A
:0614A00043AA04D2AF22B2
:1013AE005399E0EF24FE601304701E907123E054F5
:1013BE00D8F0E0445AF0439904800E907123E05423
:1013CE00D8F0E0445BF04399017869E24448F22298
:101576001213ED786BE230E1FA74021213F4AEF056
:041586001213FE221C
:100B4D00E49060BAF0A3F0A31202BB00000000E431
:100B5D009060C0F0A3F074FFA3F0A3F0E4A3F0F055
:100B6D001215769060BAEEF0A3EFF09060C4E0C37A
:100B7D00940240549060C0E0FEA3E0FF9060BAE0A4
:100B8D00FCA3E0FDD39FEC9E40089060C0ECF0A369
:100B9D00EDF09060C2E0FEA3E0FFC3ED9FEC9E5030
:100BAD000F9060BAE0FFA3E09060C2CFF0A3EFF02A
:100BBD009060BC1202A39060BAE0FEA3E0FFE4FCDB
:100BCD00FD120125A31202AF9060C4E004F0E0C352
:100BDD009414408C1213E7C006C0079060C0E0FE6D
:100BED00A3E0FBAA06E4F9F8D007D0061213DEC085
:100BFD0006C0079060C2E0FEA3E0FBAA06E4F8D0B1
:100C0D0007D0061213DE78041202849060BAEEF05B
:030C1D00A3EFF052
:010C200022B1
:1011A8009060E0E014601A14602124FD6029146046
:1011B800042406702B7F011213AE9060E07401F0D6
:1011C800221213ED9060E07402F0227F021213AE37
:1011D8009060E07405F0221213ED9060E07406F060
:0111E80022E4
:0300420002103574
:10103500C0E0C0F0C083C082C0D075D000C000C081
:0D10450001C002C003C004C005C006C00702
:10105200786BE230E136E244021213F41213FE908E
:101062006059E5F0F0A3EFF09060E0E024FA60113F
:1010720024047018906059E0FEA3E0FF1216358038
:0C1082000B906059E0FEA3E0FF12162C5A
:10108E00D007D006D005D004D003D002D001D000B6
:0B109E00D0D0D082D083D0F0D0E03260
:10159B0075AF3F8FAF75AEB975A402E5A530E1FB12
:0115AB00221D
:1012DF009060CE12030C75AF3F8FAF9060D1E0C31B
:1012EF0094014022E5A530E0FB9060CEE475F0015B
:1012FF001202F5120045F5A675AEB975A4019060FE
:07130F00D1E014F080D522AB
:1013160090603A12030C90603DE06027AE070FEE36
:101326002400FDE4343F8D82F583E493FE90603A19
:10133600E475F0011202F5EE12005E90603DE014D5
:04134600F080D3223E
:050E140042608E0000A9
:0D15D9007E007F0E7D007B017A607980220C
:0A16220090608EE475F0010200D71D
:1014A600E4FDFCEE30E703D38001C392A5D296EFAC
:1014B60025E0FFEE33FEC2960DBD00010CED641073
:0314C6004C70E087
:0114C9002200
:0B11620090603012030C906033EDF041
:10116D00C296C2A4E4A3F0906033E0FFA3E0FEC3F7
:10117D009F50219060301202EC75F002EEA4F582C2
:10118D0085F0831200EDFFAEF01214A6906034E0EE
:0A119D0004F080D3D2A4C2A4C2A5BE
:0111A7002225
:10150A00C390608FE094F490608EE09401400CE404
:0C151A00F0A3F01215DF7D071211622211
:0E15CB001215D91203421215DF7D07021162BC
:101229001215D912034278D3E254CFF2E24410F2F4
:1012390090718CE4F078E3E254F3F2E24404F29022
:101249007193E4F0E254FCF2E24401F2907192E409
:0F125900F0C2A5C296C2A41215DF7D0702116272
:0B1617007379732072657365740A001C
:10000F0078E2E2543FF2E24440F2907191E4F0C2A0
:02001F00A3221A
:1014080012000F1215427BFF7A16791712042C125C
:1014180015E61215F312148012137D1212291211F7
:08142800E97F017E00020027AC
:1014CA0012099575D95590715EE054FEF075D9BB35
:1014DA00121408906080E4F0A304F075D9AA1215DA
:0314EA000A80F87D
:07164D0078E2E254FCF222F6
:01165A00226D
:100E1900C10D44609000000000446094000000008F
:0E0E29004460980000000044609C000000003F
:0C1600001202A3020125E4FDFC0202A37B
:0D15E60078D3E254F3F278D0E24420F222F0
:1012A60090609812029790609412160090609812BF
:1012B60002AF9060941202BB0000000090609C1286
:1012C600029790609012160090609C1202AF906098
:0912D600901202BB00000000228E
:100C21009060C51202BB000000009060C91202BBB7
:100C3100000000007FF47E01906098121606C31236
:100C410002735006200D03020CD37F2E7E049060A8
:100C51009C121606120140E47B03FAF9F81201CB4B
:100C61009060C91202AF300D0C9060C51202BB003A
:100C71000000008027E47F24FEFDFC9060C9120281
:100C8100A3120140E47B0AFAF9F81201CB906098B3
:100C91001202A31201CB9060C51202AF90607812CC
:100CA10002979060C91216009060781202AF9060AE
:100CB1009C1202BB000000009060981202BB000071
:100CC1000000C20D9060C5120297906068EEF0A31B
:020CD100EFF042
:010CD30022FE
:061654009060AA0202A34F
:0D15F30078C2E254CFF278C0E24404F22244
:101268009060A61202979060A01202A31201259026
:1012780060A61202AF9060A01202BB00000000122C
:1012880016549060A4E0FEA3E0FFE4FCFD120125E3
:0E1298009060AA1202AFE49060A4F0A3F022CE
:100FB700E47FF47E01FDFC121654C3120273500342
:100FC700300E6A300E0C9060D71202BB0000000092
:100FD700801CE47F607EEAFDFC9060A61202A312EB
:100FE70001401216541201CB9060D71202AF9060E5
:100FF700A61202BB000000009060AA1202BB00000C
:101007000000C20EE47FFF7EFFFDFC9060D7120256
:10101700A3C3120273400A9060D71202BB0000FFFD
:0D102700FF9060D71202979060641202AF34
:011034002299
:060E3700C10C41606F00D8
:10143000120297EF2401FFE43EFEE43DFDE43CFC94
:1014400022120297120132E47B64FAF9F8C3020215
:08145000731202A3C302027330
:100A7100C390607DE094E890607CE09403400F3087
:100A81000B0C121526C20BE490607CF0A3F0E47FFE
:100A9100E87E03FDFC90607812145140657F187E5A
:100AA100C67D9A7C3B90605B121451500C90605B48
:100AB10012143090605B1202AF7F7F7E967D987C2E
:100AC1000090605F121451500C90605F12143090CE
:100AD100605F1202AF906078120297C3EF94E8FF53
:100AE100EE9403FEED9400FDEC9400FC906078120E
:020AF10002AF52
:100AF30090606FE004F0E0C3940A4004E4F0D20B8A
:100B03009060701202A390605B121441500C9060CD
:100B13005B1202979060701202AF9060741202A38E
:100B230090605F121441500C90605F1202979060C6
:100B3300741202AFC390607FE0948890607EE0946B
:090B4300134006E4F0A3F0B20C2B
:010B4C002286
:100E3D00426005000044600100000000602860076A
:100E4D000000000000000000000000000000000095
:100E5D000000000000000000000000000000000085
:100E6D00000000000000000041602F004160000004
:10111500FFEE34F9FEE434FFFDE434FFFCE4FAF9B4
:10112500F8120140E4229060E6E0FEA3E0FF22FA17
:10113500F9F81201CBAD07C322FFEE34FAFEE43411
:10114500FFFDE434FFFCE42225E02407F582E434C6
:0D11550060F58322FDFC1202A3C3020273A9
:09162C00906005EEF0A3EFF0223E
:0410A900AB07AA06E1
:1010AD00E49060D2F0A31202BB00000000AE02AFCC
:1010BD000390602FE0FD04F0ED12114DEEF0A3EF63
:1010CD00F090602FE0C394144002E4F0E49060D2FD
:1010DD00F09060D31202A39060D2E012114DE0FEA9
:1010ED00A3E0FFE4FCFD1201259060D31202AF9046
:1010FD0060D2E004F0E0B414D8E47B14FAF9F8906F
:08110D0060D31202970201CB2E
:1015AC00E4FDED12114DEEF0A3EFF00DEDB414F2DD
:0115BC00220C
:080726009060E6EEF0A3EFF095
:10072E00E4FDC3EF94C5EE940B500A12112B9455B1
:10073E00EE940150057DFF02089CD3EF94B9EE9420
:10074E00074005E4FD02089CD3EF9433EE94045069
:10075E00057D6402089CD3EF94B9EE9407501FEF09
:10076E0094D0EE9406401712112BEF24307B121208
:10077E0011157BE912113474129DFD02089C1211A1
:10078E002BD394D0EE9406502AEF9427EE94064085
:10079E00229060E6A3EF24D97B221211157BA912B9
:1007AE00113474229DFDC39412400302089C7D12E5
:1007BE0002089C12112BD39427EE9406502DEF9421
:1007CE00A8EE940540259060E6A3EF245812113E42
:1007DE007B331211237B7F12113474339DFDC3942E
:1007EE0022400302089C7D2202089C12112BD394F6
:1007FE00A8EE9405502AEF944AEE9405402290609C
:10080E00E6A3EF24B612113E7B441211237B5E1237
:10081E00113474449DFDC3943350737D3302089C90
:10082E0012112BD3944AEE9405502DEF94BCEE94F6
:10083E000440259060E6A3EF2444FFEE34FB121132
:10084E00427B541211237B8E12113474549DFDC3BE
:10085E009444503A7D44803612112BD394BCEE94BE
:10086E0004502BEF9433EE940440239060E6A3EFF4
:10087E0024CDFFEE34FB1211427B641211237B89CF
:10088E0012113474649DFDC3945450027D54AF050F
:01089E002237
:100E9700E49060E1F0A3F0A3F09060DEE0FEA3E051
:0C0EA700FF1210A99060E2EEF0A3EFF043
:100EB300906000E0703A7FF47E01A3121159403034
:100EC3009060011202BB00000000120B4D9060DE27
:100ED300EEF0A3EFF01215AC9060DEE0FEA3E0FFAE
:100EE3009060E2EEF0A3EFF0120F1690600004F0B2
:100EF300E47FE87E03906001121159401590600170
:100F03001202BB000000009060E2E0FEA3E0FF12CB
:020F13000F16B7
:100F1500221207269060E1EFF090606DF0E490609A
:050F2500E2F0A3F02240
:020E7D00C18F23
:101458009060B21202979060AE1202A31201CB9074
:1014680060B21202AF9060B2020297AA06AB0712EE
:0814780014EDA9079060B222F7
:091635009060B8EEF0A3EFF02282
:10155D007C0A7D50120315E47B0AFAF9F81201CBCF
:09156D00E4FB7A10F9F80201CB4D
:1014ED00EFC3949640047E6480107E007C007D6482
:0C14FD001200707D96120082AE07AF0650
:0115090022BF
:100D6E00E4FBFAF99060AE120297EF2401FFE43E25
:100D7E00FEE43DFDE43CFC9060AE1202AF300F315C
:100D8E0012145812155D1214731202BB00000000EB
:100D9E009060AE1202BB00000000E49060B6F0A3BB
:100DAE00F090606CE9F090606AEAF0A3EBF0C20F8D
:100DBE0022C39060B7E094D09060B6E094074034C0
:100DCE0012145812155D1214731202BB00000000AB
:100DDE009060AE1202BB00000000E49060B6F0A37B
:100DEE00F0AF0190606CEFF0AE02AF0390606AEE70
:040DFE00F0A3EFF07F
:010E020022CD
:100E7F0054605B0000000000000000000000000054
:070E8F00000000000000005C
:10137D007B017A60793090603D7409F0E4FF1213BF
:10138D0016906038E0B4C5189060301202979060E6
:10139D005B1202AF90603412029790605F1202AF41
:0113AD00221D
:1015260090606374C5F0E4FF12159B7B017A6079C5
:0C1536005B9060D17409F0E4FF0212DF4A
:100CEE000214CAE493A3F8E493A34003F68001F23E
:100CFE0008DFF48029E493A3F85407240CC8C33307
:100D0E00C4540F4420C8834004F456800146F6DFD5
:100D1E00E4800B0102040810204080900E03E47E54
:100D2E00019360BCA3FF543F30E509541FFEE493CA
:100D3E00A360010ECF54C025E060A840B8E493A391
:100D4E00FAE493A3F8E493A3C8C582C8CAC583CABC
:100D5E00F0A3C8C582C8CAC583CADFE9DEE780BE74
:010E9600005B
:10004500BB010689828A83E0225002E722BBFE02B9
:09005500E32289828A83E49322EC
:10005E00BB010689828A83F0225002F722BBFE0181
:02006E00F3227B
:10007000EF8DF0A4A8F0CF8CF0A428CE8DF0A42EA4
:02008000FE225E
:10008200BC000BBE0029EF8DF084FFADF022E4CC62
:10009200F875F008EF2FFFEE33FEEC33FCEE9DEC2B
:1000A200984005FCEE9DFE0FD5F0E9E4CEFD22ED71
:1000B200F8F5F0EE8420D21CFEADF075F008EF2FBB
:1000C200FFED33FD4007985006D5F0F222C398FDAC
:0500D2000FD5F0EA2249
:1000D700C5F0F8A3E028F0C5F0F8E58215827002B4
:0600E7001583E038F02251
:1000ED00BB0110E58229F582E5833AF583E0F5F051
:1000FD00A3E0225009E92582F886F008E622BBFE2E
:10010D000AE92582F8E2F5F008E222E5832AF58373
:08011D00E993F5F0A3E9932238
:0D012500EF2BFFEE3AFEED39FDEC38FC2229
:0E013200C3EF9BFFEE9AFEED99FDEC98FC22C8
:10014000E88FF0A4CC8BF0A42CFCE98EF0A42CFC5E
:100150008AF0EDA42CFCEA8EF0A4CDA8F08BF0A4DC
:100160002DCC3825F0FDE98FF0A42CCD35F0FCEB3B
:100170008EF0A4FEA9F0EB8FF0A4CFC5F02ECD3900
:0F018000FEE43CFCEAA42DCE35F0FDE43CFC226D
:10018F0075F008758200EF2FFFEE33FECD33CDCC27
:10019F0033CCC58233C5829BED9AEC99E5829840AA
:1001AF000CF582EE9BFEED9AFDEC99FC0FD5F0D687
:1001BF00E4CEFBE4CDFAE4CCF9A88222B800C1B9B1
:1001CF000059BA002DEC8BF084CFCECDFCE5F0CBEF
:1001DF00F97818EF2FFFEE33FEED33FDEC33FCEB28
:1001EF0033FB10D703994004EB99FB0FD8E5E4F9E3
:1001FF00FA227818EF2FFFEE33FEED33FDEC33FCD0
:10020F00C933C910D7059BE99A4007EC9BFCE99AC3
:10021F00F90FD8E0E4C9FAE4CCFB2275F010EF2F08
:10022F00FFEE33FEED33FDCC33CCC833C810D70708
:10023F009BEC9AE899400AED9BFDEC9AFCE899F843
:0E024F000FD5F0DAE4CDFBE4CCFAE4C8F922D6
:10025D00EB9FF5F0EA9E42F0E99D42F0EC6480C818
:06026D0064809845F022B8
:10027300EB9FF5F0EA9E42F0E99D42F0E89C45F0E1
:010283002258
:10028400E8600FECC313FCED13FDEE13FEEF13FF58
:03029400D8F1227C
:0C029700E0FCA3E0FDA3E0FEA3E0FF22DA
:0C02A300E0F8A3E0F9A3E0FAA3E0FB22DE
:0C02AF00ECF0A3EDF0A3EEF0A3EFF022C2
:1002BB00A8828583F0D083D0821202D21202D2128E
:1002CB0002D21202D2E473E493A3C583C5F0C583B3
:1002DB00C8C582C8F0A3C583C5F0C583C8C582C88D
:0102EB0022F0
:0902EC00E0FBA3E0FAA3E0F92213
:1002F500F8E0FBA3A3E0F925F0F0E5821582700292
:070305001583E0FA38F02235
:09030C00EBF0A3EAF0A3E9F022F2
:10031500EC8EF0A4CCC5F0CCCDF8EFA4CEC5F02D75
:10032500FDE43CFCE8A42EC8C5F03DFDE43CFCEF33
:0D033500A4FFE5F028FEE43DFDE43CFC22C1
:1003C100E5082433F582E43460F583E005082290E2
:1003D1006030300703906033E475F0011202F502DA
:1003E10000452000E97F2ED2008018EF540F2490A1
:1003F100D43440D4FF30040BEF24BFB41A005003AF
:100401002461FFE50960021509050CE50C70020580
:100411000B30070E906030E475F0011202F5EF0227
:10042100005E0215BD7403D2078003E4C207F5081C
:1004310090603012030CE4F509F50BF50CE5096049
:10044100077F2012040480F5750AFFC201C200C2B1
:1004510002C203C205C206C2081203D0FF700D30EA
:1004610007057F00120415AF0CAE0B22B4255FC245
:10047100D5C2041203D0FF24D0B40A00501A75F07B
:100481000A780930D50508B6FF0106C6A426F6206C
:10049100D5047002D20380D924CFB41A00EF5004DE
:1004A100C2E5D204020616D20180C6D20080C0D2B3
:1004B1000280BCD2D580BAD20580B47F2012040458
:1004C1002002077401B5090040F11203C1FF1204B3
:1004D1000402043ED208D20680951203C1FB120326
:1004E100C1FA1203C1F94A4B700679E77A067BFF1C
:1004F10020022EE509602A7E008E82758300120398
:100501006E60060EEE650A70F0C2D5EBC0E0EAC07F
:10051100E0E9C0E0EE12065DD0E0F9D0E0FAD0E00B
:10052100FB120045FF60AAEBC0E0EAC0E0E9C0E0D1
:10053100120404D0E02401F9D0E03400FAD0E0FB49
:10054100E50A0460DCD50AD980877BFF7A067959F0
:10055100D202809C791080027908C206C208800804
:10056100D2D5790A8004790AC2D5E50A047002F568
:100571000AE4FAFDFEFF1203C1FC7B0820011312FD
:1005810003C1FD7B1030000A1203C1FE1203C1FF3B
:100591007B20EC3382D592D55013C3E43000069F03
:1005A100FFE49EFEE42001039DFDE49CFCE4CBF806
:1005B100C201EC700CCFCECDCCE824F8F870F380FA
:1005C10017C3EF33FFEE33FEED33FDEC33FCEB33BA
:1005D100FB994002FB0FD8E9EB300105F8D0E0C4EC
:1005E10048B201C0E00AEC4D4E4F78207B0070C24A
:1005F100EAB50A0040BCC0E012065FD0F0D0E020AE
:100601000104C4C0E0C4B201C0F01203EDD0F0D5C2
:10061100F0EB02043E12039B04DB5305555804AC76
:100621004C04A84205594F05614405614904C14381
:08063100056755054B46054B1A
:1006390045054B4707075004B02D04B42E04D72BAA
:1006490004B82304D52006F02A047048000004CF1A
:100659003F3F3F00790AA2D5200314300509B9109C
:10066900020404B9080104A2D5200602500104209D
:1006790002689202B509005034C0E07F20300319A6
:100689007F30A20272067205500F1206B6C202C26C
:1006990006C205C2087F30800F300503E9C0E012A9
:1006A9000404300503D0E0F9D0E0B509CC300517D2
:1006B9007F30B9100C1204047F583004077F78800A
:1006C90003B908031204043002057F2D0204047FD4
:1006D900202008F87F2B2006F322920280CF286E73
:1006E900756C6C2900D2011203C13001F8C201787E
:1006F9000930D50108F60204702D504349581203F8
:10070900C12403B405004001E4900702931203F5E4
:0D071900743A1203F5D20375090402055568
:10034200EF4E6012EF60010EEDBB010B89828A83D2
:10035200F0A3DFFCDEFA2289F05007F709DFFCA9DF
:0C036200F022BBFEFCF309DFFCA9F02236
:10036E00BB010CE58229F582E5833AF583E0225044
:10037E0006E92582F8E622BBFE06E92582F8E2228E
:0D038E00E58229F582E5833AF583E49322A8
:10039B00D083D082F8E4937012740193700DA3A3F1
:1003AB0093F8740193F5828883E473740293686005
:0603BB00EFA3A3A380DF05
:00000001FF
