:030000000210C724
:1010C700787FE4F6D8FD9060007F007E07E4F0A308
:0A10D700DFFCDEFA75812102111C16
:0C000300000000000000000000000000F1
:0B1A7900EF1FAC0670011E4C70F6223F
:10002700AB07AA06EB1BAE0270011A4E600C7FAA43
:0B0037007E05121A7975D9AA80EA2212
:100B9700907120E04480F07F057E00121A79E4FF0F
:100BA700FE12002775A75575AC5C9071327450F032
:100BB7009071307403F0907136742FF090715C74FB
:100BC70003F090715BE054FCF07F18EF2466FDE4BE
:100BD70034718D82F583E4F00FEFB433EE9040115A
:100BE700E4935407FF90711CE054F84FF0904017BE
:100BF700E493547FFF90711DE054804FF0904010B4
:100C0700E493FF5401C43333335480FE907123E0DF
:100C1700547F4EF0EFC313543F4440FFA3E054808A
:100C27004FF0904012E493FF540FFE907146E0544A
:100C3700F04EF0EFC4540FFF90714FE054F04FF0B7
:100C4700904013E493543FFF907140E054C04FF03D
:100C5700904014E493907126F0904015E4939071BE
:0B0C670028F0904016E49390712AF0F2
:010C7200225F
:071ABD00E475F0010200D7FF
:1015E700E5B154CF42B153A8BFD2AF75D102789CB1
:1015F700E254E3F2E2441CF2E254FCF2E24401F268
:1016070008E2547FF2E24420F278A17401F21874E0
:1016170076F2789CE2541FF2E244C0F243A84022DB
:030021000212893F
:10128900C0E0C0F0C083C082C0D075D000C000C02B
:1012990001C002C003C004C005C006C007789DE2B2
:1012A90030E752E24480F290614C121ABD9060F12D
:1012B900E0FEA3E0FFE4FCFD7BFF7AFFF9F8D3121F
:1012C900025D40069060F1121ABD906062120297A9
:1012D900EF2401FFE43EFEE43DFDE43CFC90606246
:1012E9001202AF9060F3121ABD90611B121ABD125F
:1012F9001A8F120AA3D007D006D005D004D003D084
:1013090002D001D000D0D0D082D083D0F0D0E0324A
:0D08AB00C109C10A416140004261410000E5
:1019E800120297EF2401FFE43EFEE43DFDE43CFCD7
:0119F80022CC
:10174800E5B254FC42B253A9FED2AF75D1049071F0
:10175800057409F0907104745FF0907101E0547F92
:10176800F0E04420F0907100E0E4F0E044C1F04380
:03177800A90122A2
:030024000209AD21
:1009AD00C0E0C0F0C083C082C0D075D000C000C010
:0D09BD0001C002C003C004C005C006C00791
:0E09CA00907101E020E703020A88E04480F00B
:1009D800906140E004F0E0C394144023E4F0906197
:1009E8000975F0011200D7C390610AE0945890612C
:0F09F80009E094024009200E06E4F0A3F0D20EAD
:100A070030821620090F9061051219E890610512CE
:0B0A170002AF121666D2098002C2096D
:100A2200906141E475F0011200D7C3906142E094F5
:100A320014906141E094004032E4F0A3F09060F938
:100A42001219E89060F91202AFE47F587E02FDFCB1
:100A52009060F91202A3C3120273400F200D0C9092
:0B0A620060F91202BB00000000D20D82
:100A6D00309516200A0F9060F51219E89060F51276
:0B0A7D0002AF1216A4D20A8002C20AC7
:100A8800D007D006D005D004D003D002D001D000C2
:0B0A9800D0D0D082D083D0F0D0E0326C
:0E1A2A009060B9EFF0121AB59060B9E0FF229B
:1019870078E2E254CFF2E24410F2907190E044041E
:0B199700F075D60175D59F75D21022A7
:081AB500E5D430E4FB8FD722D9
:0408B8004161450055
:1017DC001201329061211202AF90612102029778BE
:1017EC0069E24401F222F2AF93EF75F010A4FF22EC
:0A17FC00E594C4540FFDEF4DFF22E9
:1018A60078C3E24403F218E2440CF2786AE244791F
:1018B600F27591FF9071227407F0439E7043994030
:0618C60043AA04D2AF2288
:1017AC005399E0EF24FE601304701E907123E054F3
:1017BC00D8F0E0445AF0439904800E907123E05421
:1017CC00D8F0E0445BF04399017869E24448F22296
:1019D4001217EB786BE230E1FA74021217F2AEF0F0
:0419E4001217FC22B8
:100D4F00E490611FF0A3F0A31202BB00000000E4C7
:100D5F00906125F0A3F074FFA3F0A3F0E4A3F0F0EB
:100D6F001219D490611FEEF0A3EFF0906129E0C348
:100D7F0094024054906125E0FEA3E0FF90611FE0D4
:100D8F00FCA3E0FDD39FEC9E4008906125ECF0A3FF
:100D9F00EDF0906127E0FEA3E0FFC3ED9FEC9E50C6
:100DAF000F90611FE0FFA3E0906127CFF0A3EFF05A
:100DBF009061211202A390611FE0FEA3E0FFE4FC0B
:100DCF00FD120125A31202AF906129E004F0E0C3E8
:100DDF009414408C1217E5C006C007906125E0FE01
:100DEF00A3E0FBAA06E4F9F8D007D0061217DCC07F
:100DFF0006C007906127E0FEA3E0FBAA06E4F8D047
:100E0F0007D0061217DC780412028490611FEEF0EF
:030E1F00A3EFF04E
:010E220022AD
:1015A600906145E014601A14602124FD60291460DE
:1015B600042406702B7F011217AC9061457401F06C
:1015C600221217EB9061457402F0227F021217ACCB
:1015D6009061457405F0221217EB9061457406F090
:0115E60022E2
:030042000213970F
:10139700C0E0C0F0C083C082C0D075D000C000C01C
:0D13A70001C002C003C004C005C006C0079D
:1013B400786BE230E136E244021217F21217FC9025
:1013C40060BCE5F0F0A3EFF0906145E024FA601111
:1013D400240470189060BCE0FEA3E0FF121AAC80F5
:0C13E4000B9060BCE0FEA3E0FF121AA317
:1013F000D007D006D005D004D003D002D001D00051
:0B140000D0D0D082D083D0F0D0E032FA
:1019F90075AF3F8FAF75AEB975A402E5A530E1FBB0
:011A090022BA
:1016DD0090613312031875AF3F8FAF906136E0C341
:1016ED0094014022E5A530E0FB906133E475F001F3
:1016FD00120301120045F5A675AEB975A4019061EE
:07170D0036E014F080D52244
:1017140090609B12031890609EE06027AE070FEE66
:101724002400FDE4343F8D82F583E493FE90609BB6
:10173400E475F001120301EE12005E90609EE01465
:04174400F080D3223C
:0508BC004260E20000B3
:0D1A46007E007F107D007B017A6079D22246
:0A1A8F009060E2E475F0010200D758
:1018CC00E4FDFCEE30E703D38001C392A5D296EF82
:1018DC0025E0FFEE33FEC2960DBD00010CED641049
:0318EC004C70E05D
:0118EF0022D6
:0B156000906091120318906094EDF071
:10156B00C296C2A4E4A3F0906094E0FFA3E0FEC394
:10157B009F50219060911202F875F002EEA4F58253
:10158B0085F0831200EDFFAEF01218CC906095E061
:0A159B0004F080D3D2A4C2A4C2A5BC
:0115A5002223
:10194F00C39060E3E094329060E2E09400400CE4D6
:0C195F00F0A3F0121A4C7D081215602253
:0E1A3800121A46120374121A4C7D0802156031
:10162700121A4612037478D3E254CFF2E24410F24E
:1016370090718CE4F078E3E254F3F2E24404F29020
:101647007193E4F0E254FCF2E24401F2907192E407
:0F165700F0C2A5C296C2A4121A4C7D08021560FB
:0B1A84007379732072657365740A00AB
:10000F0078E2E2543FF2E24440F2907191E4F0C2A0
:02001F00A3221A
:1018060012000F1219877BFF7A1A79841204381294
:101816001A53121A601218A612177B1216271215DF
:08182600E77F017E00020027AC
:10147700120B9775D95590715EE054FEF075D9BB84
:101487001218061214AB75D9AA1214AB1214BC9019
:1014970060957401F0FF7E007D007C00121A99129E
:1014A70014BC80E29060957401F0FF7E007D007CA3
:1014B70000121A99227FF47E0112002712194F2277
:071AC40078E2E254FCF2227B
:011AD10022F2
:1008C100C10D4460F5000000004460F90000000023
:0E08D1004460FD0000000044610100000000D2
:0C1A6D001202A3020125E4FDFC0202A30A
:0D1A530078D3E254F3F278D0E24420F2227E
:1016A4009060FD1202979060F9121A6D9060FD121D
:1016B40002AF9060F91202BB0000000090610112B9
:1016C40002979060F5121A6D9061011202AF90605A
:0916D400F51202BB000000002227
:100E230090612A1202BB0000000090612E1202BBE7
:100E3300000000007FF47E019060FD121A73C3125C
:100E430002735006200D03020ED57F2E7E0490619F
:100E530001121A73120140E47B03FAF9F81201CB71
:100E630090612E1202AF300D0C90612A1202BB006A
:100E73000000008027E47F24FEFDFC90612E120217
:100E8300A3120140E47B0AFAF9F81201CB9060FD4A
:100E93001202A31201CB90612A1202AF9060ED12ED
:100EA300029790612E121A6D9060ED1202AF90615D
:100EB300011202BB000000009060FD1202BB0000A3
:100EC3000000C20D90612A1202979060CBEEF0A34E
:020ED300EFF03E
:010ED50022FA
:061ACB0090610F0202A36E
:0D1A600078C2E254CFF278C0E24404F222D2
:1016660090610B1202979061051202A31201259058
:10167600610B1202AF9061051202BB00000000125E
:101686001ACB906109E0FEA3E0FFE4FCFD12012500
:0E16960090610F1202AFE4906109F0A3F02200
:10131900E47FF47E01FDFC121ACBC3120273500361
:10132900300E6A300E0C90613C1202BB00000000C6
:10133900801CE47F607EEAFDFC90610B1202A3121F
:101349000140121ACB1201CB90613C1202AF90619D
:101359000B1202BB0000000090610F1202BB0000DB
:101369000000C20EE47FFF7EFFFDFC90613C12028B
:10137900A3C3120273400A90613C1202BB0000FF32
:0D138900FF90613C1202979060C71202AF06
:011396002234
:0608DF00C10C4160E400C1
:10182E00120297EF2401FFE43EFEE43DFDE43CFC92
:10183E0022120297120132E47B64FAF9F8C3020213
:08184E00731202A3C30202732E
:100C7300C39060F2E094E89060F1E09403400F3099
:100C83000B0C12196BC20BE49060F1F0A3F0E47F3C
:100C9300E87E03FDFC9060ED12184F40657F187EDF
:100CA300C67D9A7C3B9060BE12184F500C9060BE7C
:100CB30012182E9060BE1202AF7F7F7E967D987CC5
:100CC300009060C212184F500C9060C212182E9000
:100CD30060C21202AF9060ED120297C3EF94E8FF77
:100CE300EE9403FEED9400FDEC9400FC9060ED1295
:020CF30002AF4E
:100CF5009060E4E004F0E0C3940A4004E4F0D20B11
:100D05009060E51202A39060BE12183F500C9060EF
:100D1500BE1202979060E51202AF9060E91202A33D
:100D25009060C212183F500C9060C21202979060FA
:100D3500E91202AFC39060F4E094889060F3E09408
:090D4500134006E4F0A3F0B20C27
:010D4E002282
:1008E50042606600004460620000000060286068A5
:1008F50000000000000000000000000000000000F3
:1009050000000000000000000000000000000000E2
:10091500000000000000000041609000416061009F
:1014C700FFEE34F9FEE434FFFDE434FFFCE4FAF9FF
:1014D700F8120140E42290614EE0FEA3E0FF22FAF9
:1014E700F9F81201CBAD07C322FFEE34FAFEE4345C
:1014F700FFFDE434FFFCE42225E02468F582E434B0
:0D15070060F58322FDFC1202A3C3020273F3
:091AA300906066EEF0A3EFF02262
:04140B00AB07AA067B
:10140F00E4906137F0A31202BB00000000AE02AF00
:10141F0003906090E0FD04F0ED1214FFEEF0A3EFE7
:10142F00F0906090E0C394144002E4F0E4906137D0
:10143F00F09061381202A3906137E01214FFE0FEC2
:10144F00A3E0FFE4FCFD1201259061381202AF907A
:10145F006137E004F0E0B414D8E47B14FAF9F890A3
:08146F0061381202970201CB63
:101A0A00E4FDED1214FFEEF0A3EFF00DEDB414F2C5
:011A1A0022A9
:0807320090614EEEF0A3EFF020
:10073A00E4FDC3EF94C5EE940B500A1214DD9455F0
:10074A00EE940150057DFF0208A8D3EF94B9EE9408
:10075A00074005E4FD0208A8D3EF9433EE94045051
:10076A00057D640208A8D3EF94B9EE9407501FEFF1
:10077A0094D0EE940640171214DDEF24307B121247
:10078A0014C77BE91214E674129DFD0208A812141C
:10079A00DDD394D0EE9406502AEF9427EE940640C7
:1007AA002290614EA3EF24D97B221214C77BA9128F
:1007BA0014E674229DFDC3941240030208A87D1218
:1007CA000208A81214DDD39427EE9406502DEF9454
:1007DA00A8EE9405402590614EA3EF24581214F018
:1007EA007B331214D57B7F1214E674339DFDC394B8
:1007FA002240030208A87D220208A81214DDD3941D
:10080A00A8EE9405502AEF944AEE9405402290618E
:10081A004EA3EF24B61214F07B441214D57B5E1259
:10082A0014E674449DFDC3943350737D330208A8C3
:10083A001214DDD3944AEE9405502DEF94BCEE9435
:10084A0004402590614EA3EF2444FFEE34FB1214BA
:10085A00F47B541214D57B8E1214E674549DFDC396
:10086A009444503A7D4480361214DDD394BCEE94FD
:10087A0004502BEF9433EE9404402390614EA3EF7F
:10088A0024CDFFEE34FB1214F47B641214D57B8959
:10089A001214E674649DFDC3945450027D54AF054E
:0108AA00222B
:1011F600E4906146F0A3F0A3F0906143E0FEA3E023
:0C120600FF12140B906147EEF0A3EFF014
:10121200906061E0703A7FF47E01A312150B4030BA
:101222009060621202BB00000000120D4F906143F9
:10123200EEF0A3EFF0121A0A906143E0FEA3E0FF82
:10124200906147EEF0A3EFF012127590606104F026
:10125200E47FE87E0390606212150B401590606295
:101262001202BB00000000906147E0FEA3E0FF1203
:021272001275F3
:1012740022120732906146EFF09060D0F0E4906162
:0512840047F0A3F02279
:02092500C18F80
:101856009061171202979061131202A31201CB90A6
:1018660061171202AF906117020297AA06AB071220
:081876001932A9079061172245
:091AAC0090611DEEF0A3EFF022A1
:1019A2007C0A7D50120347E47B0AFAF9F81201CB54
:0919B200E4FB7A10F9F80201CB04
:10193200EFC3949640047E6480107E007C007D6438
:0C1942001200707D96120082AE07AF0606
:01194E002276
:10116100E4FBFAF9906113120297EF2401FFE43EC8
:10117100FEE43DFDE43CFC9061131202AF300F31FF
:101181001218561219A21218711202BB00000000A7
:101191009061131202BB00000000E490611BF0A3F8
:1011A100F09060CFE9F09060CDEAF0A3EBF0C20FD0
:1011B10022C390611CE094D090611BE094074034FD
:1011C1001218561219A21218711202BB0000000067
:1011D1009061131202BB00000000E490611BF0A3B8
:1011E100F0AF019060CFEFF0AE02AF039060CDEEB3
:0411F100F0A3EFF088
:0111F50022D7
:100927005460BE000000000000000000000000004E
:0709370000000000000000B9
:10177B007B017A60799190609E7409F0E4FF1217F7
:10178B0014906099E0B4C518906091120297906024
:10179B00BE1202AF9060951202979060C21202AF18
:0117AB00221B
:10196B009060C674C5F0E4FF1219F97B017A6079B7
:0C197B00BE9061367409F0E4FF0216DD36
:10093E004A60033F065B4F666D7D077F6F605460B4
:10094E000D030D030C020D03080309030B030A0329
:10095E0000030203050307030603030304040E0446
:10096E000C04090408040A040D040B0401050F0409
:10097E00040406040704000402050B050A0403041C
:10098E0005050D050E050C050305020504050705F5
:0E099E000905060505426000000041600200E8
:100F85009060BAE0FE75F00EA4240DF582E434609D
:100F9500F58375F002EF1202ECE025E024D2F5822C
:100FA500E43460F5832275F0021202ECE0FF7E0066
:100FB5007401A8070822E0FCA3E0FDEE75F00EA47D
:100FC500240EF582E43460F583229060D8E0547FE6
:100FD500F0E054BFF0A3E054FDF0A3E0547FF0909F
:100FE50060DCE054FEF022E04480F0A3E0F022E073
:100FF50054FBF0E054F7F0E054DFF0E054BFF0228A
:10100500E04401F0A3E0F022E04440F0A3E0F02248
:10101500EEF0A3EFF09060BBE004F0229060BAE040
:0610250004F0E064062265
:011AD20022F1
:10187E009060D2120FEC9060D5E04401F0E044107D
:10188E00F09060D41210059060D4E04410F0A3E004
:08189E00F09060D4120FEC225F
:0F1A1B009060D3E054FDF0EF6004E04402F0224D
:100ED600AD079060D5120FF4E0547FF09060D4E037
:100EE60054FDF0120FF49060D2E054FEF0E054FD91
:100EF600F0ED1203210F7D010F76020F6F030F68CD
:100F0600040F61050F57060F4D070F43080F3909E8
:100F16000F330A0F2D0B0F230C00000F849060D2A5
:100F2600E04402F0A3E0F09060D21210059060D485
:100F360012100D9060D4E04420F0A3E0F09060D44D
:100F4600E04408F0A3E0F09060D4E04404F0A3E0AD
:100F5600F09060D4E04402F0A3E0F09060D5E04465
:100F660080F09060D5E04440F09060D5E04420F0F9
:0F0F76009060D5E04408F09060D5E04404F0228C
:1018F000AD079060D6E054FBF0E054F7F0ED6011D6
:10190000E04404F0A3E0F09060D6E04408F0A3E0E7
:02191000F022C3
:1019BB00AD079060D7E054EFF0E054DFF0ED600836
:0919CB00E04410F0E04420F02299
:10151400AD079060D6E0547FF0E054BFF0A3E054F0
:10152400FEF0E054FDF0E054FBF0ED14602714608D
:101534001E14601414600A1470219060D7E04404EF
:10154400F09060D7E04402F09060D7E04401F0905E
:0C15540060D612100D9060D6120FEC2231
:10191200E49060DCF0A3E05401F0E49060DCF0A31A
:10192200E05402F0EF6008E04401F0E04402F022EB
:05102B00906149EFF0A7
:1010300074032DF582E43460F583E090614BF0E4B5
:1010400090614AF090614AE0FFC394075078120F14
:10105000B38005C333CE33CED8F9FF90614BE0FDAA
:10106000EF5D6059906149E0FF75F00EA4240DF525
:1010700082E43460F583C083C08290614AE0D0820C
:10108000D08375F002120F9BC083C082E0FCA3E006
:10109000FDEF120FC1C083C08290614AE0D082D0C0
:1010A00083120FAB8005C333CE33CED8F9FFEC4E9D
:1010B000FEED4FFFD082D083EEF0A3EFF090614AB7
:0610C000E004F002104400
:0110C6002207
:0A1A99009060911202AF120FCF22ED
:100AA300906000E475F0011200D7C3906001E094F8
:100AB300F4906000E094015003020B96E4F0A3F07D
:100AC300A3E0FD705D120FCFAF05121912E4906021
:100AD300BAF0E49060BBF09060BBE0FFC3940750B2
:100AE30035120F85C083C082120FBBC083C08290B2
:100AF30060BBE0D082D083120FAB8005C333CE330B
:100B0300CED8F9F4FFEEF45CFEED5FFFD082D08324
:100B1300121015020ADA12102170B79060027401E4
:100B2300F0229060D8120FEC9060D812100DE044C0
:100B330002F0A3120FECA3121005906002E0FF1263
:100B43001912E49060BAF0E49060BBF09060BBE0EF
:100B5300FFC394075033120F85C083C082120FBBAB
:100B6300C083C0829060BBE0D082D083120FAB8081
:100B730005C333CE33CED8F9FFEC4EFEED4FFFD095
:100B830082D083121015020B4F12102170B9E4901A
:030B93006002F00D
:010B9600223C
:1010E100021477E493A3F8E493A34003F68001F29A
:1010F10008DFF48029E493A3F85407240CC8C33310
:10110100C4540F4420C8834004F456800146F6DFDE
:10111100E4800B01020408102040809008ABE47EBB
:10112100019360BCA3FF543F30E509541FFEE493D3
:10113100A360010ECF54C025E060A840B8E493A39A
:10114100FAE493A3F8E493A3C8C582C8CAC583CAC5
:10115100F0A3C8C582C8CAC583CADFE9DEE780BE7D
:0109AC00004A
:10004500BB010689828A83E0225002E722BBFE02B9
:09005500E32289828A83E49322EC
:10005E00BB010689828A83F0225002F722BBFE0181
:02006E00F3227B
:10007000EF8DF0A4A8F0CF8CF0A428CE8DF0A42EA4
:02008000FE225E
:10008200BC000BBE0029EF8DF084FFADF022E4CC62
:10009200F875F008EF2FFFEE33FEEC33FCEE9DEC2B
:1000A200984005FCEE9DFE0FD5F0E9E4CEFD22ED71
:1000B200F8F5F0EE8420D21CFEADF075F008EF2FBB
:1000C200FFED33FD4007985006D5F0F222C398FDAC
:0500D2000FD5F0EA2249
:1000D700C5F0F8A3E028F0C5F0F8E58215827002B4
:0600E7001583E038F02251
:1000ED00BB0110E58229F582E5833AF583E0F5F051
:1000FD00A3E0225009E92582F886F008E622BBFE2E
:10010D000AE92582F8E2F5F008E222E5832AF58373
:08011D00E993F5F0A3E9932238
:0D012500EF2BFFEE3AFEED39FDEC38FC2229
:0E013200C3EF9BFFEE9AFEED99FDEC98FC22C8
:10014000E88FF0A4CC8BF0A42CFCE98EF0A42CFC5E
:100150008AF0EDA42CFCEA8EF0A4CDA8F08BF0A4DC
:100160002DCC3825F0FDE98FF0A42CCD35F0FCEB3B
:100170008EF0A4FEA9F0EB8FF0A4CFC5F02ECD3900
:0F018000FEE43CFCEAA42DCE35F0FDE43CFC226D
:10018F0075F008758200EF2FFFEE33FECD33CDCC27
:10019F0033CCC58233C5829BED9AEC99E5829840AA
:1001AF000CF582EE9BFEED9AFDEC99FC0FD5F0D687
:1001BF00E4CEFBE4CDFAE4CCF9A88222B800C1B9B1
:1001CF000059BA002DEC8BF084CFCECDFCE5F0CBEF
:1001DF00F97818EF2FFFEE33FEED33FDEC33FCEB28
:1001EF0033FB10D703994004EB99FB0FD8E5E4F9E3
:1001FF00FA227818EF2FFFEE33FEED33FDEC33FCD0
:10020F00C933C910D7059BE99A4007EC9BFCE99AC3
:10021F00F90FD8E0E4C9FAE4CCFB2275F010EF2F08
:10022F00FFEE33FEED33FDCC33CCC833C810D70708
:10023F009BEC9AE899400AED9BFDEC9AFCE899F843
:0E024F000FD5F0DAE4CDFBE4CCFAE4C8F922D6
:10025D00EB9FF5F0EA9E42F0E99D42F0EC6480C818
:06026D0064809845F022B8
:10027300EB9FF5F0EA9E42F0E99D42F0E89C45F0E1
:010283002258
:10028400E8600FECC313FCED13FDEE13FEEF13FF58
:03029400D8F1227C
:0C029700E0FCA3E0FDA3E0FEA3E0FF22DA
:0C02A300E0F8A3E0F9A3E0FAA3E0FB22DE
:0C02AF00ECF0A3EDF0A3EEF0A3EFF022C2
:1002BB00A8828583F0D083D0821202D21202D2128E
:1002CB0002D21202D2E473E493A3C583C5F0C583B3
:1002DB00C8C582C8F0A3C583C5F0C583C8C582C88D
:0102EB0022F0
:0C02EC00A42582F582E5F03583F583221D
:0902F800E0FBA3E0FAA3E0F92207
:10030100F8E0FBA3A3E0F925F0F0E5821582700285
:070311001583E0FA38F02229
:09031800EBF0A3EAF0A3E9F022E6
:10032100D083D082F8E4937012740193700DA3A36B
:1003310093F8740193F5828883E47374029368607F
:06034100EFA3A3A380DF7F
:10034700EC8EF0A4CCC5F0CCCDF8EFA4CEC5F02D43
:10035700FDE43CFCE8A42EC8C5F03DFDE43CFCEF01
:0D036700A4FFE5F028FEE43DFDE43CFC228F
:1003CD00E5082494F582E43460F583E00508229075
:1003DD006091300703906094E475F00112030102FF
:1003ED0000452000E97F2ED2008018EF540F249095
:1003FD00D43440D4FF30040BEF24BFB41A005003A3
:10040D002461FFE50960021509050CE50C70020574
:10041D000B30070E906091E475F001120301EF02AD
:10042D00005E021A2A7403D2078003E4C207F5089E
:10043D00906091120318E4F509F50BF50CE50960D0
:10044D00077F2012041080F5750AFFC201C200C299
:10045D0002C203C205C206C2081203DCFF700D30D2
:10046D0007057F00120421AF0CAE0B22B4255FC22D
:10047D00D5C2041203DCFF24D0B40A00501A75F063
:10048D000A780930D50508B6FF0106C6A426F62060
:10049D00D5047002D20380D924CFB41A00EF5004D2
:1004AD00C2E5D204020622D20180C6D20080C0D29B
:1004BD000280BCD2D580BAD20580B47F2012041040
:1004CD002002077401B5090040F11203CDFF12049B
:1004DD001002044AD208D20680951203CDFB1203F6
:1004ED00CDFA1203CDF94A4B700679F37A067BFFEC
:1004FD0020022EE509602A7E008E8275830012038C
:10050D00A060060EEE650A70F0C2D5EBC0E0EAC041
:10051D00E0E9C0E0EE120669D0E0F9D0E0FAD0E0F3
:10052D00FB120045FF60AAEBC0E0EAC0E0E9C0E0C5
:10053D00120410D0E02401F9D0E03400FAD0E0FB31
:10054D00E50A0460DCD50AD980877BFF7A067965D8
:10055D00D202809C791080027908C206C2088008F8
:10056D00D2D5790A8004790AC2D5E50A047002F55C
:10057D000AE4FAFDFEFF1203CDFC7B0820011312E5
:10058D0003CDFD7B1030000A1203CDFE1203CDFF0B
:10059D007B20EC3382D592D55013C3E43000069FF7
:1005AD00FFE49EFEE42001039DFDE49CFCE4CBF8FA
:1005BD00C201EC700CCFCECDCCE824F8F870F380EE
:1005CD0017C3EF33FFEE33FEED33FDEC33FCEB33AE
:1005DD00FB994002FB0FD8E9EB300105F8D0E0C4E0
:1005ED0048B201C0E00AEC4D4E4F78207B0070C23E
:1005FD00EAB50A0040BCC0E012066BD0F0D0E02096
:10060D000104C4C0E0C4B201C0F01203F9D0F0D5AA
:10061D00F0EB02044A12032104E75305615804B8B4
:10062D004C04B44205654F056D44056D4904CD4339
:08063D000573550557460557EA
:100645004505574707135004BC2D04C02E04E32B62
:1006550004C42304E12006FC2A047C48000004DBD2
:100665003F3F3F00790AA2D5200314300509B91090
:10067500020404B9080104A2D52006025001042091
:1006850002689202B509005034C0E07F203003199A
:100695007F30A20272067205500F1206C2C202C254
:1006A50006C205C2087F30800F300503E9C0E0129D
:1006B5000410300503D0E0F9D0E0B509CC300517BA
:1006C5007F30B9100C1204107F583004077F7880F2
:1006D50003B908031204103002057F2D0204107FB0
:1006E500202008F87F2B2006F322920280CF286E67
:1006F500756C6C2900D2011203CD3001F8C2017866
:100705000930D50108F602047C2D504349581203DF
:10071500CD2403B405004001E490070E93120401B3
:0D072500743A120401D20375090402056143
:10037400EF4E6012EF60010EEDBB010B89828A83A0
:10038400F0A3DFFCDEFA2289F05007F709DFFCA9AD
:0C039400F022BBFEFCF309DFFCA9F02204
:1003A000BB010CE58229F582E5833AF583E0225012
:1003B00006E92582F8E622BBFE06E92582F8E2225C
:0D03C000E58229F582E5833AF583E4932276
:00000001FF
