:03000000020E6489
:100E6400787FE4F6D8FD9060007F007E07E4F0A36D
:0A0E7400DFFCDEFA758124020EB9DE
:0C000300000000000000000000000000F1
:0B154A00EF1FAC0670011E4C70F62273
:10149600AB07AA06EB1BAE0270011A4E600C7FAAC0
:0B14A6007E0512154A75D9AA80EA22C3
:1009F300907120E04480F07F057E0012154AE4FFE9
:100A0300FE12149675A75575AC5C9071327450F054
:100A13009071307403F0907136742FF090715C74A0
:100A230003F090715BE054FCF07F18EF2466FDE463
:100A330034718D82F583E4F00FEFB433EE904011FF
:100A4300E4935407FF90711CE054F84FF090401763
:100A5300E493547FFF90711DE054804FF090401059
:100A6300E493FF5401C43333335480FE907123E085
:100A7300547F4EF0EFC313543F4440FFA3E0548030
:100A83004FF0904012E493FF540FFE907146E054F0
:100A9300F04EF0EFC4540FFF90714FE054F04FF05D
:100AA300904013E493543FFF907140E054C04FF0E3
:100AB300904014E493907126F0904015E493907164
:0B0AC30028F0904016E49390712AF098
:010ACE002205
:07156800E475F00102041E0E
:10119700E5B154CF42B153A8BFD2AF75D102789C05
:1011A700E254E3F2E2441CF2E254FCF2E24401F2BC
:1011B70008E2547FF2E24420F278A17401F2187435
:1011C70076F2789CE2541FF2E244C0F243A8402230
:03002100020BA32C
:100BA300C0E0C0F0C083C082C0D075D000C000C018
:100BB30001C002C003C004C005C006C007789DE29F
:100BC30020E703020C4FE24480F29060CB121568D9
:100BD300906094E0FEA3E0FFE4FCFD7BFF7AFFF965
:100BE300F8D312056C40069060941215689060313A
:100BF3001205A6EF2401FFE43EFEE43DFDE43CFCC8
:100C03009060311205BE9060C1121568C39060C236
:100C1300E094D09060C1E094074008E4F0A3F09022
:100C230060C0F09060C4121568C39060C5E094641E
:100C33009060C4E094004008E4F0A3F09060C3F037
:100C43009060961215689060BE121568D007D006A2
:100C5300D005D004D003D002D001D000D0D0D082B0
:070C6300D083D0F0D0E03295
:0D101700C11CC11D4160C6004260C7000041
:10000F001205A6EF2401FFE43EFEE43DFDE43CFCB7
:01001F0022BE
:10132B00E5B254FC42B253A9FED2AF75D104907111
:10133B00057409F0907104745FF0907101E0547FB3
:10134B00F0E04420F0907100E0E4F0E044C1F043A1
:03135B00A90122C3
:03002400020814BB
:10081400C0E0C0F0C083C082C0D075D000C000C0AA
:0D08240001C002C003C004C005C006C0072B
:0E083100907101E020E7030208EFE04480F040
:10083F009060C6E004F0E0C394144023E4F09060AD
:10084F00AC75F00112041EC39060ADE09458906037
:0F085F00ACE094024009202106E4F0A3F0D2217E
:10086E00308216201C0F9060A812000F9060A81204
:0B087E0005BE1211D7D21C8002C21C64
:100889009060C7E475F00112041EC39060C8E0943B
:10089900149060C7E094004032E4F0A3F090609CAB
:1008A90012000F90609C1205BEE47F587E02FDFC89
:1008B90090609C1205B2C3120582400F20200C9053
:0B08C900609C1205CA00000000D22055
:1008D400309516201D0F90609812000F90609812AA
:0B08E40005BE121250D21D8002C21D82
:1008EF00D007D006D005D004D003D002D001D0005D
:0B08FF00D0D0D082D083D0F0D0E03207
:0E151600906086EFF0121560906086E0FF2274
:1014B10078E3E254F3F2E24404F2907193E04404DD
:0B14C100F075D60175D59F75D2102282
:08156000E5D430E4FB8FD72233
:0F1507001204419060631205BE9060630205A656
:1013C10078C3E24403F218E2440CF2786AE244780A
:1013D100F27591FF907123E05498F0E0441EF09073
:0C13E10071227407F0439E704399402273
:101289005399E0EF24FD60142402701E907123E04D
:1012990054D8F0E0445AF0439904800E907123E049
:1012A90054D8F0E0445BF04399017869E24448F28C
:0712B9007F017E0002149684
:10143A007869E24401F2786BE230E1FA7402F2AFC1
:10144A0093EF75F010A4FFAEF0E594C4540FFDEFCE
:03145A004DFF2221
:100ACF00E4906061F0A3F0A31205CA00000000E4F7
:100ADF00906067F0A3F074FFA3F0A3F0E4A3F0F02D
:100AEF0012143A906061EEF0A3EFF090606BE0C3E8
:100AFF0094024054906067E0FEA3E0FF906061E0D5
:100B0F00FCA3E0FDD39FEC9E4008906067ECF0A340
:100B1F00EDF0906069E0FEA3E0FFC3ED9FEC9E5007
:100B2F000F906061E0FFA3E0906069CFF0A3EFF05A
:100B3F009060631205B2906061E0FEA3E0FFE4FCF9
:100B4F00FD120434A31205BE90606BE004F0E0C305
:100B5F009414408C121510C006C007906067E0FE19
:100B6F00A3E0FBAA06E4F9F8D007D006121507C0D8
:100B7F0006C007906069E0FEA3E0FBAA06E4F8D088
:100B8F0007D0061215077804120593906061EEF0F6
:030B9F00A3EFF0D1
:010BA2002230
:1014E50075AF3F8FAF75AEB975A402E5A530E1FBC9
:0114F50022D4
:1012C00090605F12061275AF3F8FAF906062E0C30F
:1012D00094014022E5A530E0FB90605FE475F001E9
:1012E0001205FB12038CF5A675AEB975A4019060CA
:0712F00062E014F080D5223A
:1012F70090606812061290606BE06027AE070FEEF1
:101307002400FDE4343F8D82F583E493FE9060680A
:10131700E475F0011205FBEE1203A590606BE01473
:04132700F080D3225D
:0B1555007379732072657365740A00DF
:101415001211971215241215311213C112132B1222
:1014250013901214B17BFF7A1579551200927F0142
:051435007E0002149688
:10135E001209F375D95590715EE054FEF075D9BB44
:10136E00121415D2A37FE87E03121496C2A375D968
:10137E00AA120C6A12090A120F97120EFE120DC84B
:02138E0080ECF1
:101390007B017A60795E90606B7409F0E4FF121251
:1013A000F7906066E0B4C51890605E1205A6906084
:1013B000001205BE9060621205A69060041205BE80
:0113C000220A
:10147A00E4FF1214E590600874C5F07B017A607984
:0C148A00009060627409F0E4FF0212C0E0
:1012150078E2E254F3F208E254F3F218E254CFF222
:1012250008E2543FF278F2E254FCF278D3E254FC3F
:10123500F218E2543FF2E254FCF278C3E2543FF272
:0B124500E254CFF278E2E254FCF22207
:100D1F00C39060CCE094C89060CBE094004036E480
:100D2F00F0A3F090601630A503F080037401F0D2A9
:100D3F000330A207E4906017F080069060177401EB
:100D4F00F0D20430A107E4906018F080069060188C
:100D5F007401F0D205208607E4906011F0804520E1
:100D6F0087089060117401F0803A2090089060110C
:100D7F007402F0802F2093089060117403F0802488
:100D8F002094089060117404F0801920B0089060CE
:100D9F00117405F0800E90601120A7057406F08085
:100DAF000374FFF0D20120A0089060197401F08045
:090DBF0005E4906019F0D20F2246
:10102400C1204460980000000044609C000000005F
:0E1034004460A0000000004460A40000000022
:0C153E001205B2020434E4FDFC0205B208
:0D15240078D3E254F3F278D0E24420F222B2
:101250009060A01205A690609C12153E9060A012AE
:1012600005BE90609C1205CA000000009060A412A8
:1012700005A690609812153E9060A41205BE90607D
:09128000981205CA0000000022CA
:100C6A0090605E1205CA000000009060621205CA18
:100C7A00000000007FF47E019060A0121544C312A8
:100C8A0005825006202003020D1E7F2E7E049060EE
:100C9A00A412154412044FE47B03FAF9F81204DA99
:100CAA009060621205BE30200C90605E1205CA0088
:100CBA000000008027E47F24FEFDFC90606212059C
:100CCA00B212044FE47B0AFAF9F81204DA9060A02F
:100CDA001205B21204DA90605E1205BE906090129C
:100CEA0005A690606212153E9060901205BE906053
:100CFA00A41205CA000000009060A01205CA0000F4
:100D0A000000C22090605E1205A690600DEEF0A36E
:040D1A00EFF0D2071D
:010D1E0022B2
:06156F009060B20205B21B
:0D15310078C2E254CFF278C0E24404F22206
:1011D7009060AE1205A69060A81205B21204349072
:1011E70060AE1205BE9060A81205CA00000000128A
:1011F700156F9060ACE0FEA3E0FFE4FCFD12043441
:0E1207009060B21205BEE49060ACF0A3F0223D
:100F9700E47FF47E01FDFC12156FC3120582500336
:100FA70030216C30210C90605E1205CA00000000F1
:100FB700801CE47F607EEAFDFC9060AE1205B212F1
:100FC700044F12156F1204DA90605E1205BE90602E
:100FD700AE1205CA000000009060B21205CA0000F8
:100FE7000000C221E47FFF7EFFFDFC90605E1205DA
:100FF700B2C3120582400A90605E1205CA0000FF64
:0F100700FF90605E1205A69060091205BED2062A
:0110160022B7
:06104200C11F41608700A0
:1013ED001205A6EF2401FFE43EFEE43DFDE43CFCC6
:1013FD00221205A6120441E47B64FAF9F8C3020532
:08140D00821205B2C302058240
:10090A00C3906095E094E8906094E09403400F30BF
:10091A001E0C12147AC21EE4906094F0A3F0E47FD5
:10092A00E87E03FDFC90609012140E40657F187EED
:10093A00C67D9A7C3B90600012140E500C906000A9
:10094A001213ED9060001205BE7F7F7E967D987C23
:10095A000090600412140E500C9060041213ED9073
:10096A0060041205BE9060901205A6C3EF94E8FFDA
:10097A00EE9403FEED9400FDEC9400FC906090125E
:02098A0005BEA8
:10098C00906087E004F0E0C3940A4004E4F0D21EC7
:10099C009060881205B29060001213FE500E9060A9
:1009AC00001205A69060881205BED20A90608C12C7
:1009BC0005B29060041213FE500E9060041205A64E
:1009CC0090608C1205BED20BC3906097E094889017
:1009DC006096E09413400FE4F0A3F0201F04D20BB8
:0609EC008002D20AB21FD6
:0109F20022E2
:02104800C10FD6
:0100200022BD
:011575002253
:10104A0044603100000000602860350000000000A4
:10105A000000000000000000000000000000000086
:10106A000000000000000000000000000000000076
:0B107A0000000041605D00416030009C
:10114A00FFEE34F9FEE434FFFDE434FFFCE4FAF97F
:10115A00F812044FE422906061E0FEA3E0FF22FA55
:10116A00F9F81204DAAD07C322FFEE34FAFEE434CA
:10117A00FFFDE434FFFCE42225E02435F582E43463
:0D118A0060F58322FDFC1205B2C302058250
:04108800AB07AA0602
:10108C00E4906061F0A31205CA00000000AE02AF4C
:10109C000390605DE0FD04F0ED121182EEF0A3EF21
:1010AC00F090605DE0C394144002E4F0E490606161
:1010BC00F09060621205B2906061E0121182E0FE65
:1010CC00A3E0FFE4FCFD1204349060621205BE90B4
:1010DC006061E004F0E0B414D8E47B14FAF9F89001
:0810EC0060621205A60204DA9D
:1014F600E4FDED121182EEF0A3EFF00DEDB414F25F
:0115060022C2
:08069B00906061EEF0A3EFF0A6
:1006A300E4FDC3EF94C5EE940B500A121160945508
:1006B300EE940150057DFF020811D3EF94B9EE9437
:1006C300074005E4FD020811D3EF9433EE94045080
:1006D300057D64020811D3EF94B9EE9407501FEF20
:1006E30094D0EE94064017121160EF24307B12125F
:1006F300114A7BE912116974129DFD02081112114E
:1007030060D394D0EE9406502AEF9427EE940640DB
:1007130022906061A3EF24D97B2212114A7BA91294
:10072300116974229DFDC3941240030208117D12C6
:10073300020811121160D39427EE9406502DEF9402
:10074300A8EE94054025906061A3EF24581211731D
:100753007B331211587B7F12116974339DFDC3944F
:100763002240030208117D22020811121160D39462
:10077300A8EE9405502AEF944AEE94054022906027
:1007830061A3EF24B61211737B441211587B5E12DE
:10079300116974449DFDC3943350737D3302081172
:1007A300121160D3944AEE9405502DEF94BCEE944D
:1007B300044025906061A3EF2444FFEE34FB121143
:1007C300777B541211587B8E12116974549DFDC3AB
:1007D3009444503A7D448036121160D394BCEE9415
:1007E30004502BEF9433EE94044023906061A3EF05
:1007F30024CDFFEE34FB1211777B641211587B89F1
:1008030012116974649DFDC3945450027D54AF0565
:0108130022C2
:100EFE00E490605EF0A3F0A3F07F03121289120F4C
:0C0F0E008B12108890605FEEF0A3EFF0F3
:100F1A00906030E070327FF47E01A312118E402877
:100F2A009060311205CA00000000120F8B1214F6ED
:100F3A009060C9E0FEA3E0FF90605FEEF0A3EFF0DF
:080F4A00120F7590603004F0F5
:100F5200E47FE87E0390603112118E40159060317B
:100F62001205CA0000000090605FE0FEA3E0FF12DD
:020F72000F75F9
:100F74002212069B90605EEFF0906014F0E49060A3
:100F84005FF0A3F0D20822120ACF9060C9EEF0A35A
:030F9400EFF02259
:02108500C1A206
:1010F400E49060BEF0A3F0906060E0906012F09025
:10110400605EE0FFA3E090600FCFF0A3EFF0D20E9B
:10111400D202229060BA1205A69060B61205B212ED
:1011240004DA9060BA1205BE9060BA0205A6906017
:101134005EEEF0A3EFF090605EA3E0FF12145DA3F7
:06114400EFF09060BA22FA
:1014CC007C0A7D5012061BE47B0AFAF9F81204DA46
:0914DC00E4FB7A10F9F80204DACD
:10145D00EFC3949640047E6480107E007C007D6412
:0C146D001203B77D961203C9AE07AF064C
:011479002250
:100DC800E490605EF0A3F0A3F07F011212899060B6
:100DD800BA1205B2C000C001C002C003120ACFE4B3
:100DE800FCFDD003D002D001D0001204349060BAC8
:100DF8001205BE9060B61205A6EF2401FFE43EFE80
:100E0800E43DFDE43CFC9060B61205BE30222012A1
:100E180011171214CC1211321205CA0000000090EA
:100E280060B61205CA000000001210F4C22222C3E4
:100E38009060BFE094D09060BEE09407401D12110E
:100E4800171214CC1211321205CA0000000090606B
:0B0E5800B61205CA000000001210F4E2
:010E6300226C
:100E7E0002135EE493A3F8E493A34003F68001F219
:100E8E0008DFF48029E493A3F85407240CC8C33375
:100E9E00C4540F4420C8834004F456800146F6DF44
:100EAE00E4800B0102040810204080901017E47EAD
:100EBE00019360BCA3FF543F30E509541FFEE49339
:100ECE00A360010ECF54C025E060A840B8E493A300
:100EDE00FAE493A3F8E493A3C8C582C8CAC583CA2B
:100EEE00F0A3C8C582C8CAC583CADFE9DEE780BEE3
:011087000068
:10038C00BB010689828A83E0225002E722BBFE026F
:09039C00E32289828A83E49322A2
:1003A500BB010689828A83F0225002F722BBFE0137
:0203B500F32231
:1003B700EF8DF0A4A8F0CF8CF0A428CE8DF0A42E5A
:0203C700FE2214
:1003C900BC000BBE0029EF8DF084FFADF022E4CC18
:1003D900F875F008EF2FFFEE33FEEC33FCEE9DECE1
:1003E900984005FCEE9DFE0FD5F0E9E4CEFD22ED27
:1003F900F8F5F0EE8420D21CFEADF075F008EF2F71
:10040900FFED33FD4007985006D5F0F222C398FD61
:050419000FD5F0EA22FE
:10041E00C5F0F8A3E028F0C5F0F8E5821582700269
:06042E001583E038F02206
:0D043400EF2BFFEE3AFEED39FDEC38FC2217
:0E044100C3EF9BFFEE9AFEED99FDEC98FC22B6
:10044F00E88FF0A4CC8BF0A42CFCE98EF0A42CFC4C
:10045F008AF0EDA42CFCEA8EF0A4CDA8F08BF0A4CA
:10046F002DCC3825F0FDE98FF0A42CCD35F0FCEB29
:10047F008EF0A4FEA9F0EB8FF0A4CFC5F02ECD39EE
:0F048F00FEE43CFCEAA42DCE35F0FDE43CFC225B
:10049E0075F008758200EF2FFFEE33FECD33CDCC15
:1004AE0033CCC58233C5829BED9AEC99E582984098
:1004BE000CF582EE9BFEED9AFDEC99FC0FD5F0D675
:1004CE00E4CEFBE4CDFAE4CCF9A88222B800C1B99F
:1004DE000059BA002DEC8BF084CFCECDFCE5F0CBDD
:1004EE00F97818EF2FFFEE33FEED33FDEC33FCEB16
:1004FE0033FB10D703994004EB99FB0FD8E5E4F9D1
:10050E00FA227818EF2FFFEE33FEED33FDEC33FCBD
:10051E00C933C910D7059BE99A4007EC9BFCE99AB1
:10052E00F90FD8E0E4C9FAE4CCFB2275F010EF2FF6
:10053E00FFEE33FEED33FDCC33CCC833C810D707F6
:10054E009BEC9AE899400AED9BFDEC9AFCE899F831
:0E055E000FD5F0DAE4CDFBE4CCFAE4C8F922C4
:10056C00EB9FF5F0EA9E42F0E99D42F0EC6480C806
:06057C0064809845F022A6
:10058200EB9FF5F0EA9E42F0E99D42F0E89C45F0CF
:010592002246
:10059300E8600FECC313FCED13FDEE13FEEF13FF46
:0305A300D8F1226A
:0C05A600E0FCA3E0FDA3E0FEA3E0FF22C8
:0C05B200E0F8A3E0F9A3E0FAA3E0FB22CC
:0C05BE00ECF0A3EDF0A3EEF0A3EFF022B0
:1005CA00A8828583F0D083D0821205E11205E11258
:1005DA0005E11205E1E473E493A3C583C5F0C5837D
:1005EA00C8C582C8F0A3C583C5F0C583C8C582C87B
:0105FA0022DE
:1005FB00F8E0FBA3A3E0F925F0F0E5821582700289
:07060B001583E0FA38F0222C
:09061200EBF0A3EAF0A3E9F022E9
:10061B00EC8EF0A4CCC5F0CCCDF8EFA4CEC5F02D6C
:10062B00FDE43CFCE8A42EC8C5F03DFDE43CFCEF2A
:0D063B00A4FFE5F028FEE43DFDE43CFC22B8
:10002700E5082461F582E43460F583E00508229051
:10003700605E301A03906061E475F0011205FB02FF
:10004700038C2013E97F2ED2138018EF540F2490CE
:10005700D43440D4FF30170BEF24BFB41A00500339
:100067002461FFE50960021509050CE50C7002051E
:100077000B301A0E90605EE475F0011205FBEF027B
:1000870003A50215167403D21A8003E4C21AF508F1
:1000970090605E120612E4F509F50BF50CE50960B0
:1000A700077F2012006A80F5750AFFC214C213C2C7
:1000B70015C216C218C219C21B120036FF700D30C6
:1000C7001A057F0012007BAF0CAE0B22B4255FC26E
:1000D700D5C217120036FF24D0B40A00501A75F0A3
:1000E7000A780930D50508B6FF0106C6A426F6200A
:1000F700D5047002D21680D924CFB41A00EF500469
:10010700C2E5D21702027CD21480C6D21380C0D2B5
:100117001580BCD2D580BAD21880B47F2012006A6D
:100127002015077401B5090040F1120027FF1200DE
:100137006A0200A4D21BD2198095120027FB120075
:1001470027FA120027F94A4B7006794D7A037BFF8D
:1001570020152EE509602A7E008E8275830012061F
:100167004860060EEE650A70F0C2D5EBC0E0EAC043
:10017700E0E9C0E0EE1202C3D0E0F9D0E0FAD0E047
:10018700FB12038CFF60AAEBC0E0EAC0E0E9C0E025
:1001970012006AD0E02401F9D0E03400FAD0E0FB85
:1001A700E50A0460DCD50AD980877BFF7A0279BF2C
:1001B700D215809C791080027908C219C21B800869
:1001C700D2D5790A8004790AC2D5E50A047002F506
:1001D7000AE4FAFDFEFF120027FC7B082014131225
:1001E7000027FD7B1030130A120027FE120027FF9D
:1001F7007B20EC3382D592D55013C3E43013069F8E
:10020700FFE49EFEE42014039DFDE49CFCE4CBF890
:10021700C214EC700CCFCECDCCE824F8F870F38084
:1002270017C3EF33FFEE33FEED33FDEC33FCEB3357
:10023700FB994002FB0FD8E9EB301405F8D0E0C476
:1002470048B214C0E00AEC4D4E4F78207B0070C2D4
:10025700EAB50A0040BCC0E01202C5D0F0D0E020E9
:100267001404C4C0E0C4B214C0F0120053D0F0D5D7
:10027700F0EB0200A412067501415301BB580112AD
:100287004C010E4201BF4F01C74401C74901274333
:0802970001CD5501B14601B192
:10029F004501B147036D5001162D011A2E013D2B5B
:1002AF00011E23013B2003562A00D64800000135CA
:1002BF003F3F3F00790AA2D5201614301809B91014
:1002CF00020404B9080104A2D52019025001042028
:1002DF0015689215B509005034C0E07F203016190B
:1002EF007F30A21572197218500F12031CC215C25B
:1002FF0019C218C21B7F30800F301803E9C0E012FB
:10030F00006A301803D0E0F9D0E0B509CC301817E7
:10031F007F30B9100C12006A7F583017077F788032
:10032F0003B9080312006A3015057F2D02006A7F9A
:10033F0020201BF87F2B2019F322921580CF286ED7
:10034F00756C6C2900D2141200273014F8C214787F
:10035F000930D50108F60200D62D50434958120036
:10036F00272403B405004001E49003689312005B57
:0D037F00743A12005BD2167509040201BB2E
:10064800BB010CE58229F582E5833AF583E0225067
:1006580006E92582F8E622BBFE06E92582F8E222B1
:0D066800E58229F582E5833AF583E49322CB
:10067500D083D082F8E4937012740193700DA3A314
:1006850093F8740193F5828883E473740293686028
:06069500EFA3A3A380DF28
:00000001FF
