:03000000020F8B61
:100F8B00787FE4F6D8FD9060007F007E07E4F0A345
:0A0F9B00DFFCDEFA758120020FE092
:0C000300000000000000000000000000F1
:0B204E00EF1FAC0670011E4C70F62264
:10002700AB07AA06EB1BAE0270011A4E600C7FAA43
:0B0037007E0512204E75D9AA80EA2237
:100AB000907120E04480F07F057E0012204EE4FF1C
:100AC000FE12002775A75575AC5C9071327450F01A
:100AD0009071307403F0907136742FF090715C74E3
:100AE00003F090715BE054FCF07F18EF2466FDE4A6
:100AF00034718D82F583E4F00FEFB433EE90401142
:100B0000E4935407FF90711CE054F84FF0904017A5
:100B1000E493547FFF90711DE054804FF09040109B
:100B2000E493FF5401C43333335480FE907123E0C7
:100B3000547F4EF0EFC313543F4440FFA3E0548072
:100B40004FF0904012E493FF540FFE907146E05432
:100B5000F04EF0EFC4540FFF90714FE054F04FF09F
:100B6000904013E493543FFF907140E054C04FF025
:100B7000904014E493907126F0904015E4939071A6
:0B0B800028F0904016E49390712AF0DA
:010B8B002247
:101A6700E5B154CF42B153A8BFD2AF75D102789C2C
:101A7700E254E3F2E2441CF2E254FCF2E24401F2E3
:101A870008E2547FF2E24420F278A17401F218745C
:101A970076F2789CE2541FF2E244C0F243A8402257
:03002100021025A5
:10102500C0E0C0F0C083C082C0D075D000C000C091
:1010350001C002C003C004C005C006C007789DE218
:1010450030E756E24480F29061B2E0FEA3E0FFE4AF
:10105500FCFD7BFF7AFFF9F8D312026A400A906122
:10106500B2E475F0011200F2906135E0C394FF50CF
:1010750003E004F0121F21121F389061B4E475F0EB
:10108500011200F2121F4F121B23121F0A121FF525
:10109500121D47121F7C121FA0D007D006D005D005
:1010A50004D003D002D001D000D0D0D082D083D0DC
:0410B500F0D0E03265
:101C7300E5B254FC42B253A9FED2AF75D1049071C0
:101C8300057409F0907104745FF0907101E0547F62
:101C9300F0E04420F0907100E0E4F0E044C1F04350
:031CA300A9012272
:0300240002183788
:10183700C0E0C0F0C083C082C0D075D000C000C077
:1018470001C002C003C004C005C006C007907101F3
:10185700E030E70AE04480F01216F3121694D0073E
:10186700D006D005D004D003D002D001D000D0D00C
:09187700D082D083D0F0D0E03221
:0403EE004161BC00AD
:101F6600907123E054D8F0E04459F0227869E244B5
:061F760001F29061BC22A3
:101D210078C3E24403F218E2440CF2786AE244799F
:101D3100F27591FF9071227407F0439E70439940B0
:061D410043AA04D2AF2208
:101DF4005399E0EF24FE600B04700E121F664399A2
:101E0400048006121F664399017869E24448F2226D
:101B23009061BCE014601914601D146026146004F5
:101B3300240470257F01121DF49061BC7401F0220E
:101B4300121F727402F0227F02121DF49061BC74A2
:0A1B530003F022121F727404F02246
:0300420002114266
:10114200C0E0C0F0C083C082C0D075D000C000C073
:0D11520001C002C003C004C005C006C007F4
:10115F00786BE230E142E24402F2AF93EF75F010A8
:10116F00A4FFE594C4540FFDEF4DFF9061AAE5F085
:10117F00F0A3EFF09061BCE024FC60112402701822
:10118F009061AAE0FEA3E0FF121CA6800B9061AA5B
:08119F00E0FEA3E0FF121DD3E6
:1011A700D007D006D005D004D003D002D001D0009C
:0B11B700D0D0D082D083D0F0D0E03246
:101DB20090619BF09061B70202F290000612005E01
:101DC200FE90000802005E9000091200D090000C04
:011DD20022EE
:10061300E490619BF07FFFA374FFF09061B7120336
:100623001290000112005EFE120045FDEEC39D50C4
:10063300030207A5121DB6900001E41200D090003A
:100643000E12031B120371EFF460089061B674235A
:10065300F080099061B6E06003E014F0121DB690DB
:10066300000312005E6F601590000512005E600DBE
:10067300900004E41200D09000030207A19000054B
:1006830012005EFE90000412005EC39E500B121D0A
:10069300B6900004740102008B121DB69000021282
:1006A300005E6F6048EFF4701C121DBCC39E400ACD
:1006B3007405121DB29000028061121DB690000AEB
:1006C3007401020798121DB69000087401121DCC24
:1006D30012005E6F9061B7600C1202F27401121D7A
:1006E300C9EF0207981202F2900009803DEFF470FF
:1006F30041121DB690000912005ED394005003020C
:10070300079B90000B12005EFE90000A12005ED35E
:100713009E40117401121DB290000C12005E906194
:100723009CF08054121DB690000A740112008B02D3
:10073300079B121DB6121DC3C394FF5008900008F7
:10074300740112008B121DBCB5060890619B7403E3
:10075300F08020121DB6900007121DBF6E703990F5
:10076300619B7404121DB590000612005E90000890
:100773001200D090619CEFF0121DB6E4121DC974F3
:10078300FF1200D090619CE09000111200D09061A4
:100793009BE09000121200D0121DB6900002EF12DF
:0207A30000D084
:0107A5002231
:10000F0075AF3F8FAF75AEB975A402E5A530E1FBB3
:01001F0022BE
:101C08009061A612031275AF3F8FAF9061A9E0C330
:101C180094014022E5A530E0FB9061A6E475F0014F
:101C28001202FB120045F5A675AEB975A4019061C4
:071C3800A9E014F080D522A1
:101C3F009061A61203129061A9E06027AE070FEE24
:101C4F002400FDE4343F8D82F583E493FE9061A67A
:101C5F00E475F0011202FBEE1200BE9061A9E014D0
:041C6F00F080D3220C
:0503F2004261990000CA
:072062007B017A61798922FC
:101F0A00C390619AE094FF906199E094FF5007E4CE
:071F1A0075F0011200F22234
:101D6C00E4FDFCEE30E703D38001C392A5D296EFDD
:101D7C0025E0FFEE33FEC2960DBD00010CED6410A4
:031D8C004C70E0B8
:011D8F002231
:0B18C70090619B12031290619EEDF0F7
:1018D200C296C2A4E4A3F090619EE0FFA3E0FEC31F
:1018E2009F502190619B1202F275F002EEA4F582E4
:1018F20085F083120108FFAEF0121D6C90619FE02B
:0A19020004F080D3D2A4C2A4C2A551
:01190C0022B8
:101E6F00C390619AE09432906199E09400400CE441
:0C1E7F00F0A3F01220627D081218C722A8
:101953007E007F107D001220621203A478D3E2542C
:10196300CFF2E24410F290718CE4F078E3E254F3A6
:10197300F2E24404F2907193E4F0E254FCF2E244A4
:1019830001F2907192E4F0C2A5C296C2A412206241
:051993007D080218C7E9
:101D9000121FCE122029121FE8122002121D21123A
:101DA0001880121953121A67121C737F017E0002E9
:021DB00000270A
:10199800120AB075D95590715EE054FEF075D9BB46
:1019A800121D901211C275D9AA121FDB7B017A6130
:1019B8007934120613121560120B8C1213361208A2
:1019C800E21212411212BF120D3912148C12142095
:0519D800121E6F80D11A
:0D1FCE0078E0E24401F278E2E254FCF222F5
:0D1FDB0020A0047F018002E4FF121ED92225
:1003F700C101446150000000004461540000000046
:100407004461580000000044615C00000000416145
:100417006000C10042614C000041614E0041614FE4
:0104270000D4
:101CD100120291EF2401FFE43EFEE43DFDE43CFCF1
:101CE10022E4FDFC12029DC3020280E4FEFDFC021F
:081CF100029D12029D02014058
:0D1FE80078D3E254F3F278D0E24420F222E4
:101B9700906158120291906154121CF3906158128F
:101BA70002A99061541202B50000000090615C1216
:101BB7000291906150121CF390615C1202A990612E
:091BC700501202B50000000022DA
:1016940090614CE475F0011200F2C390614DE09446
:1016A4001490614CE09400402BE4F0A3F09061545A
:1016B400121CD19061541202A97F587E0290615489
:1016C400121CE2400F20010C9061541202B500007C
:1016D4000000D20130951520000F906150121CD1EA
:0E16E4009061501202A9121B97D20022C20080
:0116F20022D5
:100B8C0090619B1202B50000000090619F1202B5AB
:100B9C00000000007FF47E01906158121CE25006A8
:100BAC00200103020C64E47F2E7E04FDFC90615C4A
:100BBC0012029D12014DE47B03FAF9F81201D89050
:100BCC00619F1202A9300122E4FFFEFDFC90615CE2
:100BDC00121CE590619B60091202B50000000180B7
:100BEC002C1202B50000000080237F2490619F121C
:100BFC001CEC12014DE47B0AFAF9F81201D8906151
:100C0C005812029D1201D890619B1202A99061AEFC
:100C1C0012029190619F121CF39061AE1202A99086
:100C2C00615C1202B5000000009061581202B50020
:100C3C00000000C2017FC790619B121CECD3120212
:100C4C0080400A90619B1202B5000000C790619B26
:080C5C00120291906184EFF097
:010C6400226D
:0D1FF500906160E0C394FF5003E004F0220F
:1013360090614EE0700F04F0906184E090614FF090
:10134600E0FF1209CA906160E0C3944B4056E4F096
:10135600906184E0FF90614FE0FED39F4019906159
:1013660084E0FFEE9FC3940A90614FE0400524F6A7
:10137600F0802914F08025906184E0FFEEC39F5031
:101386001B90614FE0FF906184E0C39FC3940A9075
:10139600614FE04005240AF0800204F090614FE0BE
:0413A600FF1209CA5F
:0113AA002220
:1004280042617200004261740000C10241616100D2
:080438004161620041616300B3
:0D200F0090616E02029DE475F0010200F286
:0D20020078C2E254CFF278C0E24404F2222A
:101AA70090616A12029190616412029D1201409046
:101AB700616A1202A99061641202B5000000001267
:101AC700200F906168E0FEA3E0FFE4FCFD120140F7
:0E1AD70090616E1202A9E4906168F0A3F02203
:1016F300906161E004F0E0C394144020E4F0906151
:1017030068122016C3906169E09458906168E09470
:10171300024009200306E4F0A3F0D2033082222022
:10172300021C906164120291EF2401FFE43EFEE487
:101733003DFDE43CFC9061641202A9121AA7D20297
:0317430022C202BD
:011746002280
:10124100E47FF47E01FDFC12200FC31202805003E3
:1012510030036A30030EC20390619B1202B5000095
:101261000000801CE47F607EEAFDFC90616A12024E
:101271009D12014D12200F1201D890619B1202A9FB
:1012810090616A1202B50000000090616E1202B511
:1012910000000000E47FFF7EFFFDFC90619B1202D5
:1012A1009DC3120280400A90619B1202B50000FFAB
:0D12B100FF90619B1202919061801202A9D2
:0112BE00220D
:101D4700C3906173E094FF906172E094FF500312B7
:101D57002015C3906175E094FF906174E094FF5083
:051D670003122015220B
:101EA700E47BE87A03F9F89061801202911201D875
:081EB700EFD3940C40027F0CF4
:011EBF002200
:1012BF00E490619BF0906163E0700A04F0121EA746
:1012CF00906162EFF0C3906173E094C8906172E037
:1012DF0094004052E4F0A3F0121EA790619BEFF030
:1012EF00906162E0FEC39F5005E004F080169061AC
:1012FF009BE0FFEED39F400C906162E0D3940040DF
:10130F0003E014F0906162E0C39408400890618696
:10131F007401F08009E4906186F0FF121FBF9061A5
:06132F0062E0FF120ED285
:011335002295
:080440004161AD004161AC0017
:101EF200120291EF2401FFE43EFEE43DFDE43CFCCE
:081F02002212029DC3020280BD
:1008E200C39061B3E094E89061B2E09403400F30AA
:1008F200040C121E8BC204E49061B2F0A3F0E47FF8
:10090200E87E03FDFC9061AE121F0340657F187EF6
:10091200C67D9A7C3B906176121F03500C906176E3
:10092200121EF29061761202A97F9C7EE07DF57C18
:100932000590617A121F03500C90617A121EF29098
:10094200617A1202A99061AE120291C3EF94E8FF9C
:10095200EE9403FEED9400FDEC9400FC9061AE1267
:0209620002A9E8
:100964009061ACE004F0E0C3940A4004E4F0D204E3
:100974009061ADE0600FC39061B5E094E89061B41C
:10098400E094034040E49061B4F0A3F09061AD04BE
:10099400F090617EE06017E47BE87A03F9F89061F7
:1009A400761202911201D890619F74018013E47B46
:1009B40064FAF9F890617A1202911201D8E4906114
:0509C4009FF01217EB8B
:0109C900220B
:100448004260B200004260B40000602860B600005C
:100458000000000000000000000000000000000094
:100468000000000000000000000000000000000084
:100478000000000000004160DE004160AF0060281D
:1004880060DF000000000000000000000000000025
:100498000000000000000000000000000000000054
:1004A80000000000000000000000416107004160FA
:0604B800B0004160B1003C
:101B5D0025E024B6F582E43460F583EEF0A3EFF0D2
:101B6D002225E024DFF582E4346022F583E0FEA334
:101B7D00E0FFE4FCFD02014090619BE0FEA3E0FF6D
:0A1B8D0022E47B14FAF9F802029139
:0B203600E4FDED121B5D0DEDB414F78E
:01204100227C
:101DD3009060AFE0700504F00220369060DEE01200
:101DE3001B5D9060DEE004F0E0C394144002E4F075
:011DF30022CD
:101AE50090619F1202B500000000E490619EF090A5
:101AF500619F12029D90619EE025E024B6F582E487
:101B05003460121B7890619F1202A990619EE004D7
:0E1B1500F0E0B414DA90619F121B8E0201D82A
:101F2100C39060B3E094FF9060B2E094FF5007E487
:071F310075F0011200F2221D
:101F3800C39060B5E094FF9060B4E094FF5007E46C
:071F480075F0011200F22206
:0E1FB000E4FDED121B6E121B660DEDB414F471
:011FBE002200
:101EC000906107E0121B6E121B66906107E004F040
:091ED000E0C394144002E4F02286
:101BD00090619F1202B500000000E490619EF090B9
:101BE000619F12029D90619EE0121B6E121B789005
:101BF000619F1202A990619EE004F0E0B414E090AD
:081C0000619F121B8E0201D846
:10190D00E4FDC3EF94AAEE940540028036C3EF9434
:10191D00B4EE940440047D018029C3EF94BEEE948F
:10192D000340047D02801CC3EF94C8EE9402400472
:10193D007D03800FC3EF94D2EE940140047D0480AB
:05194D00027D05AF055D
:011952002272
:100D3900E490619DF0C39060B3E094C89060B2E024
:100D490094005003020DF1E4F0A3F0121AE57C07B8
:100D59007DD0120377E4FB7A10F9F81201D890617B
:100D69009BEEF0A3EFF09060B0E0702704F0121B47
:100D790085121FB0121B8512190DA3EFF09060B1F7
:100D8900F0700B906188E07010120E00800B120D4C
:100D9900F28006121B85121EC0C39060B5E09488CC
:100DA9009060B4E094134040E4F0A3F0121BD01219
:100DB900190D90619DEFF09060B1E0FEC39F500561
:100DC900E004F0801090619DE0FFEED39F40069013
:100DD90060B1E014F09060B1E0700A906188E07051
:080DE90007120E0022120DF2A8
:100DF10022E4906188F09060B1E0FF1219DD22FFDA
:0A0E01001219DD9061887401F022DF
:1004BE006028610B0000000000000000000000003A
:1004CE00000000000000000000000000000000001E
:1004DE000000000000000000000000004161330039
:0404EE004161080060
:0C20420025E0240BF582E43461F58322D4
:101F8F00E4FDED122042EEF0A3EFF00DEDB414F2EC
:011F9F00221F
:101CA600906108E0700A121F8F9061087401F0229B
:101CB600906133E0122042EEF0A3EFF0906133E042
:0A1CC60004F0E0C394144002E4F0BF
:011CD00022F1
:1017470090619E1202B500000000E490619DF09048
:10175700619E12029D90619DE0122042E0FEA3E08F
:10176700FFE4FCFD12014090619E1202A990619D69
:10177700E004F0E0B414D890619E120291E47B1467
:10178700FAF9F81201D890619E1202A990619E029F
:021797000291BD
:101F4F00C390610AE094FF906109E094FF5007E4A9
:071F5F0075F0011200F222EF
:10148C00C390610AE094C8906109E09400405AE46A
:10149C00F0A3F0121747E4FCFD7B607A617902F847
:1014AC0012014DE47B0AFAF9F81201D8E4FB7A1028
:1014BC00F9F81201D8EF2464FFE43EFE90619BF032
:1014CC00A3EFF0C3943CEE94284009E4906187F0BC
:1014DC00FF02201CC390619CE0941090619BE094EF
:0914EC002750069061877401F09D
:0114F50022D4
:1004F20053617600000000000000000000000000D0
:06050200000000000000F3
:101880007B017A61799B9061A9740AF0E4FF121CD4
:101890003F9061A4E0B4C52190619B1202919061D8
:1018A000761202A990619F12029190617A1202A9A8
:1018B0009061A3E090617EF02290617E7401F0A3BC
:0618C00074C5F0121E8B3E
:0118C60022FF
:101E8B0090617F74C5F0E4FF12000F7B017A6179DA
:0C1E9B00769061A9740AF0E4FF021C08B4
:100508004A60113F065B4F666D7D077F6F605460E0
:100518001B030D030C020D03080309030B030A0355
:1005280000030203050307030603030304040E0480
:100538000C04090408040A040D040B0401050F0443
:10054800040406040704000402050B050A04030456
:1005580005050D050E050C0503050205040507052F
:1005680009050605055C606F070F070E07010702FE
:100578000700070D070C06020601060F0207060E04
:100588000600060D6020608B0707070607050704AD
:1005980007080709070A070B0603060406050606E7
:1005A800060706080609060A416010004260AB000B
:1005B80000C1054260AD00004260000000416002D9
:1005C8000041600300426004000041600600416091
:1005D8000700426008000041600A0041600B0042C9
:0C05E800600C000041600E0041600F003C
:1007A600E0FE75F00EA4246FF582E43460F58375DF
:1007B600F002EF1202E6E025E02489F582E43461D6
:1007C600F5832275F0021202E6E0FF7E007401A8AE
:1007D600070822E04402F0A3E04480F0A3E0F02200
:1007E600E0FCA3E0FDEE75F00EA42470F582E4347F
:1007F60060F58322E04404F0A3E0F090618DE044CC
:1008060008F0A3E0F022E475F0010200F290618D99
:10081600E04401F0A3E0F022F4FFEEF45CFEED5FAD
:10082600FF22AD07E054FBF0E054F7F022C39060DE
:1008360001E09496906000E0940022C390600DE081
:10084600942C90600CE0940122EFF074112DF58247
:10085600E43460F583E02275F00EA4241CF582E4EE
:100866003460F58322E4F0A3F0A37402F022C3906F
:100876006005E09464906004E0940022C3906009EF
:10088600E094C8906008E0940022E04440F0A3E0C1
:10089600F02275F00EA4241BF582E4346022FFECEE
:1008A6004EFEED4FFF2225E0248BF582E43460F501
:1008B600832225E0248CF582E43460F58322EEF071
:1008C600A3EFF090619CE004F022E0547FF0E05446
:0C08D600BFF0A3E022E0FCA3E0FDEF2255
:101CF9009061891207DE90618CE04401F0E04410A4
:101D0900F090618B12081690618BE04410F0A3E00B
:081D1900F090618B1207DE223D
:0F1FBF0090618AE054FDF0EF6004E04402F022EC
:100ED20090618C120828E054DFF0E054BFF0E05437
:100EE2007FF090618BE054FDF012082AE054DFF0AD
:100EF200E054BFF0906189E054FEF0E054FDF0ED63
:100F020012034B0F83010F7C020F75030F6E040F48
:100F120067050F5D060F53070F4D080F43090F3D7D
:100F22000A0F370B0F2D0C00000F8A906189E044E5
:100F320002F0A3E0F090618912081690618B12080A
:100F42009090618BE04420F0A3E0F090618B120856
:100F52000490618BE04404F0A3E0F090618BE044E4
:100F620002F0A3E0F090618CE04480F090618CE0AC
:100F72004440F090618CE04420F090618CE04408A1
:090F8200F090618CE04404F022BF
:0D201C0090618D120828ED60031207FA2272
:101ED900AD0790618EE054EFF0E054DFF0ED60085B
:091EE900E04410F0E04420F02276
:1019DD00AD0790618D1208D054FEF0E054FDF0E09B
:1019ED0054FBF0ED14602714601E14601414600A8B
:1019FD0014702190618EE04404F090618EE04402F9
:101A0D00F090618EE04401F090618D12089090612C
:051A1D008D1207DE221E
:101E1400E4906193F0A3E05401F0E4906193F0A3A3
:101E2400E05402F0EF6008E04401F0E04402F022E4
:030E0B009061A54E
:100E0E0012084F9061A7F0E49061A6F09061A6E001
:100E1E00FFC394074003020ED19061A5E0FE1208B5
:100E2E00981207B3C083C082E0FCA3E0FDEE120867
:100E3E005DC083C0829061A6E0FBD082D083120792
:100E4E00C98005C333CE33CED8F912081ED082D056
:100E5E0083EEF0A3EFF07E007401A803088005C3B3
:100E6E0033CE33CED8F9FF9061A7E0FDEF5D604A37
:100E7E009061A5E0FF120898F583C083C08290614F
:100E8E00A6E0D082D08375F0021207B9C083C0826B
:100E9E001208DB12085DC083C0829061A6E0D0828A
:100EAE00D0831207C98005C333CE33CED8F91208CA
:100EBE00A4D082D083EEF0A3EFF09061A6E004F010
:030ECE00020E1AF7
:010ED10022FE
:061799009061A01202A9FC
:10179F00E49061A4F09061A4E0FFC39406503CC3B1
:1017AF0074059FFFC007E47B0AFAF9F89061A01255
:1017BF0002911201D8AF03AD07D007120E0B906143
:1017CF00A0120291E47B0AFAF9F81201D89061A0F5
:0B17DF001202A99061A4E004F080BA9F
:0117EA0022DC
:1017EB0090619B1202A990618F1208D054FDF0A357
:1017FB00E0547FF0906193E054FEF07F01121E14D1
:10180B0090619B12029112179990619FE0600E906C
:10181B00618F1207DE90618FE04440800A906190E7
:0C182B001207D9A3E04401F0A3E0F02272
:101E3400AD07906195E054F7F0E054EFF0ED600DDC
:0E1E4400120804906195E04410F0A3E0F02233
:030C65009061A0FB
:100C680012084F9061A2F0E49061A1F09061A1E0B8
:100C7800FFC39407503A9061A01207A6C083C082B0
:100C88001207E6C083C0829061A1E0D082D08312AF
:100C980007C98005C333CE33CED8F912081ED082D7
:100CA800D083EEF0A3EFF09061A1E004F0020C74A1
:100CB800E49061A1F09061A1E0FFC3940750711224
:100CC80007D18005C333CE33CED8F9FF9061A2E0B7
:100CD800FDEF5D60529061A0E0FF75F00EA4246FF7
:100CE800F582E43460F583C083C0829061A1E0D0CE
:100CF80082D08375F0021207B9C083C0821208DB64
:100D08001207ECC083C0829061A1E0D082D0831228
:100D180007C98005C333CE33CED8F91208A4D082D0
:100D2800D083EEF0A3EFF09061A1E004F0020CBDD7
:010D38002298
:0509CA0090619BEFF0BD
:1009CF00E490619EF0A3F090618DE054FEF0906191
:1009DF0098E054F7F07F01121E34E490619CF0E42C
:1009EF0090619DF090619DE0FFC39407503A906134
:1009FF009C1207A6C083C0821207E6C083C08290F4
:100A0F00619DE0D082D0831207C98005C333CE33F6
:100A1F00CED8F912081ED082D083EEF0A3EFF0905B
:100A2F00619DE004F00209F390619CE004F0E06442
:100A3F000270AC90619BE090619FF090619EE0042A
:100A4F00F0A3E075F00A84F070F190619BE0C3941D
:100A5F0064400A120813906198E04408F0E4906132
:100A6F009CF090619CE0FFC39402503490619EE033
:100A7F00B40105EF6401602090619CE0FFC3740135
:100A8F009FFF90619BE075F00A84ADF0120C6590AA
:100A9F00619BE075F00A84F090619CE004F080C2E5
:010AAF002224
:0513AB0090619BEFF0D2
:1013B000E4A3F090619CE0FF1208AC1207BCC0836C
:1013C000C0821208DB1208B81207CF8005C333CEE3
:1013D00033CED8F912081ED082D0831208C4E0B4EC
:1013E00010D1E490619CF090619BE0FFA3E0FEC30C
:1013F0009F502CEE1208AC1207BCC083C082E0FCE8
:10140000A3E0FDEE1208B81207CF8005C333CE3338
:0F141000CED8F91208A4D082D0831208C480C8A5
:01141F0022AA
:1014F60090600012080C906002E0FE70241208331F
:101506004057E4F0A3F0906003E004F0E0FF940C91
:1015160040449060027401F0E4906000F0A3F08013
:1015260035EEB40110C3906001E094C812083A4049
:101536002812086B22906002E0B4021D12083340A4
:1015460018E4F0A3F0906003E0D394004003E014A5
:09155600F0906003E0FF120ED2D8
:01155F002269
:1015CA0090600412080C906006E0FB701D1208740B
:1015DA004053E4F0A3F0906007E004F0E0FF9410B9
:1015EA0040409060067401F08038EBB40113C39058
:1015FA006005E09490906004E09401402812086B22
:10160A0022906006E0B4021D1208744018E4F0A3A8
:10161A00F0906007E0D394004003E014F090600774
:05162A00E0FF1213AB0C
:01162F002298
:1010B90090600812080C90600AE0FA702712088202
:1010C9004044E4F0A3F012111012112A40FB906081
:1010D9000BE004F0E0C3940A402C7409F090600A14
:1010E9007401F022EA6401701D1208824018E4F0CC
:1010F900A3F090600BE0D394004003E014F01211C8
:061109001012112A40FB48
:10110F002290600BE0FDE4FF120C6590600BE0FD98
:10111F007F01120C65E490619BF02290619BE0FFD0
:10112F0090600BE0FD120E0B90619BE004F0E0C3AA
:03113F00940622F1
:1016300090600C12080C90600EE0FE701E120841C3
:101640004051E4F0A3F090600FE094055005E004F1
:10165000F0803890600E7401F08030EEB40110C359
:1016600090600DE09490120848402812086B229078
:10167000600EE0B4021D1208414018E4F0A3F0909F
:10168000600FE0D394004003E014F090600FE0FF9F
:031690001219DD4F
:011693002234
:101FA000906010E0B401089060AB12080CD20522DA
:1011C2009060107401F0121CF97F01121FBF121EF1
:1011D20014121E3490618F1207DE90618F120890F4
:1011E2001207D9A31208167F0112201C121ED9124F
:1011F2000813906198E04408F0906010E0603F7539
:10120200D9AA3005F4C2051214F61215CA1210B981
:10121200121630C39060ACE094A09060ABE0940FE3
:101222004017E4906010F0FF120ED2121FBF12207E
:0F1232001C121ED97F101213AB121E6F80BB222D
:101F7C00C39060AEE094FF9060ADE094FF5003120C
:031F8C00080C221C
:10142000C39060AEE094DB9060ADE09401405CE47A
:10143000F0A3F0906186E06018906189E013A3E06A
:101440001330E006E054FDF0800790618AE044022A
:10145000F0906187E0601690618DE01313543F3087
:10146000E00512082A800690618D1207FA906188C3
:10147000E0601890618DE0C4131313540130E0054F
:0C148000E0547FF02290618D1207DE2204
:1005F4005361340A0000000003324100000000008F
:0E06040001FF20590000456147010102030477
:101E52007B64FA90617AF9F81202910201D8EC756A
:0D1E6200F005A42447F582E43461F58322E5
:0D20290078C0E24420F278C3E254F3F222C2
:092059002085037F01227FFF2294
:101A2200E4FEFCFBEDB401030B8016EDB403047B72
:101A320002800EEDB404047B038006EDB405027B44
:101A420004ECC39401501B121E60E0B50711121E74
:101A520060E5822BF582E43583F583E0FE80030C9A
:041A620080DFAF066C
:011A6600225D
:10156000906145E06063E0FFA3E0FD121A22E49081
:101570006145F0A3F0EF24FE603004704C90617E72
:10158000E0600BE4F0121E52E490619F80169061BF
:101590007E7401F0E47BE87A03906176121E589025
:1015A000619F7401F01217EB801C90617EE070194E
:1015B00090617A1202B500000000E4121E52E4901D
:0915C000619FF01217EB121E8B63
:0115C90022FF
:100FA500021998E493A3F8E493A34003F68001F2B1
:100FB50008DFF48029E493A3F85407240CC8C3334D
:100FC500C4540F4420C8834004F456800146F6DF1C
:100FD500E4800B01020408102040809003EEE47EBB
:100FE500019360BCA3FF543F30E509541FFEE49311
:100FF500A360010ECF54C025E060A840B8E493A3D8
:10100500FAE493A3F8E493A3C8C582C8CAC583CA02
:10101500F0A3C8C582C8CAC583CADFE9DEE780BEBA
:0106120000E7
:10004500BB010689828A83E0225002E722BBFE02B9
:09005500E32289828A83E49322EC
:10005E00BB010CE58229F582E5833AF583E0225057
:10006E0006E92582F8E622BBFE06E92582F8E222A1
:0D007E00E58229F582E5833AF583E49322BB
:10008B00BB010FF8E58229F582E5833AF583E02879
:10009B00F0225009C58229F8E58226F622BBFE091B
:1000AB00C58229F8E22582F222F8EA2583F583E955
:0300BB0093282265
:1000BE00BB010689828A83F0225002F722BBFE0121
:0200CE00F3221B
:1000D000F8BB010DE58229F582E5833AF583E8F066
:1000E000225006E92582C8F622BBFE05E92582C812
:0200F000F222FA
:1000F200C5F0F8A3E028F0C5F0F8E5821582700299
:060102001583E038F02235
:10010800BB0110E58229F582E5833AF583E0F5F035
:10011800A3E0225009E92582F886F008E622BBFE12
:100128000AE92582F8E2F5F008E222E5832AF58358
:08013800E993F5F0A3E993221D
:0D014000EF2BFFEE3AFEED39FDEC38FC220E
:10014D00E88FF0A4CC8BF0A42CFCE98EF0A42CFC51
:10015D008AF0EDA42CFCEA8EF0A4CDA8F08BF0A4CF
:10016D002DCC3825F0FDE98FF0A42CCD35F0FCEB2E
:10017D008EF0A4FEA9F0EB8FF0A4CFC5F02ECD39F3
:0F018D00FEE43CFCEAA42DCE35F0FDE43CFC2260
:10019C0075F008758200EF2FFFEE33FECD33CDCC1A
:1001AC0033CCC58233C5829BED9AEC99E58298409D
:1001BC000CF582EE9BFEED9AFDEC99FC0FD5F0D67A
:1001CC00E4CEFBE4CDFAE4CCF9A88222B800C1B9A4
:1001DC000059BA002DEC8BF084CFCECDFCE5F0CBE2
:1001EC00F97818EF2FFFEE33FEED33FDEC33FCEB1B
:1001FC0033FB10D703994004EB99FB0FD8E5E4F9D6
:10020C00FA227818EF2FFFEE33FEED33FDEC33FCC2
:10021C00C933C910D7059BE99A4007EC9BFCE99AB6
:10022C00F90FD8E0E4C9FAE4CCFB2275F010EF2FFB
:10023C00FFEE33FEED33FDCC33CCC833C810D707FB
:10024C009BEC9AE899400AED9BFDEC9AFCE899F836
:0E025C000FD5F0DAE4CDFBE4CCFAE4C8F922C9
:10026A00EB9FF5F0EA9E42F0E99D42F0EC6480C80B
:06027A0064809845F022AB
:10028000EB9FF5F0EA9E42F0E99D42F0E89C45F0D4
:01029000224B
:0C029100E0FCA3E0FDA3E0FEA3E0FF22E0
:0C029D00E0F8A3E0F9A3E0FAA3E0FB22E4
:0C02A900ECF0A3EDF0A3EEF0A3EFF022C8
:1002B500A8828583F0D083D0821202CC1202CC12A0
:1002C50002CC1202CCE473E493A3C583C5F0C583C5
:1002D500C8C582C8F0A3C583C5F0C583C8C582C893
:0102E50022F6
:0C02E600A42582F582E5F03583F5832223
:0902F200E0FBA3E0FAA3E0F9220D
:1002FB00F8E0FBA3A3E0F925F0F0E582158270028C
:07030B001583E0FA38F0222F
:09031200EBF0A3EAF0A3E9F022EC
:10031B00BB010DE58229F582E5833AF5830202F2F2
:10032B005007E92582F80203D0BBFE07E92582F8C6
:10033B000203D9E58229F582E5833AF5830203E2CC
:10034B00D083D082F8E4937012740193700DA3A341
:10035B0093F8740193F5828883E473740293686055
:06036B00EFA3A3A380DF55
:060371008A838982E47317
:10037700EC8EF0A4CCC5F0CCCDF8EFA4CEC5F02D13
:10038700FDE43CFCE8A42EC8C5F03DFDE43CFCEFD1
:0D039700A4FFE5F028FEE43DFDE43CFC225F
:1003A400EF4E6012EF60010EEDBB010B89828A8370
:1003B400F0A3DFFCDEFA2289F05007F709DFFCA97D
:0C03C400F022BBFEFCF309DFFCA9F022D4
:0903D000E6FB08E6FA08E6F92252
:0903D900E2FB08E2FA08E2F92255
:0C03E200E493FB740193FA740293F92277
:00000001FF
