:03000000020F8D5F
:100F8D00787FE4F6D8FD9060007F007E07E4F0A343
:0A0F9D00DFFCDEFA758121020FE28D
:0C000300000000000000000000000000F1
:0B1EE600EF1FAC0670011E4C70F622CE
:10002700AB07AA06EB1BAE0270011A4E600C7FAA43
:0B0037007E05121EE675D9AA80EA22A1
:100AA800907120E04480F07F057E00121EE6E4FF8E
:100AB800FE12002775A75575AC5C9071327450F022
:100AC8009071307403F0907136742FF090715C74EB
:100AD80003F090715BE054FCF07F18EF2466FDE4AE
:100AE80034718D82F583E4F00FEFB433EE9040114A
:100AF800E4935407FF90711CE054F84FF0904017AE
:100B0800E493547FFF90711DE054804FF0904010A3
:100B1800E493FF5401C43333335480FE907123E0CF
:100B2800547F4EF0EFC313543F4440FFA3E054807A
:100B38004FF0904012E493FF540FFE907146E0543A
:100B4800F04EF0EFC4540FFF90714FE054F04FF0A7
:100B5800904013E493543FFF907140E054C04FF02D
:100B6800904014E493907126F0904015E4939071AE
:0B0B780028F0904016E49390712AF0E2
:010B8300224F
:10194700E5B154CF42B153A8BFD2AF75D102789C4D
:10195700E254E3F2E2441CF2E254FCF2E24401F204
:1019670008E2547FF2E24420F278A17401F218747D
:1019770076F2789CE2541FF2E244C0F243A8402278
:030021000210B01A
:1010B000C0E0C0F0C083C082C0D075D000C000C006
:1010C00001C002C003C004C005C006C007789DE28D
:1010D00030E747E24480F2906182E0FEA3E0FFE463
:1010E000FCFD7BFF7AFFF9F8D312055B400A9061A3
:1010F00082E475F0011203D5121DBC906184E47581
:10110000F0011203D5121DD31219C5121DA5121E0E
:101110009A121C79121E00121E46D007D006D00566
:10112000D004D003D002D001D000D0D0D082D08360
:05113000D0F0D0E03218
:101AA300E5B254FC42B253A9FED2AF75D104907192
:101AB300057409F0907104745FF0907101E0547F34
:101AC300F0E04420F0907100E0E4F0E044C1F04322
:031AD300A9012244
:030024000217E8D8
:1017E800C0E0C0F0C083C082C0D075D000C000C0C7
:1017F80001C002C003C004C005C006C00790710143
:10180800E030E70AE04480F01216051215A6D0076A
:10181800D006D005D004D003D002D001D000D0D05B
:09182800D082D083D0F0D0E03270
:0E1E65009060DCEFF0121EFC9060DCE0FF22CB
:101D580078C2E254FCF2E24401F290717EE044045D
:0B1D6800F075D60175D59F75D21022D2
:081EFC00E5D430E4FB8FD7228E
:0406B8004161B500E7
:101DEA00907123E054D8F0E04459F0227869E24433
:061DFA0001F29061B52228
:101C2D0078C3E24403F218E2440CF2786AE2447994
:101C3D00F27591FF9071227407F0439E70439940A5
:061C4D0043AA04D2AF22FD
:101CC2005399E0EF24FE600B04700E121DEA439953
:101CD200048006121DEA4399017869E24448F2221F
:1019C5009061B5E014601914601D1460261460045C
:1019D500240470257F01121CC29061B57401F022A8
:1019E500121DF67402F0227F02121CC29061B574BA
:0A19F50003F022121DF67404F02224
:0300420002113573
:10113500C0E0C0F0C083C082C0D075D000C000C080
:0D11450001C002C003C004C005C006C00701
:10115200786BE230E142E24402F2AF93EF75F010B5
:10116200A4FFE594C4540FFDEF4DFF9060DDE5F060
:10117200F0A3EFF09061B5E024FC60112402701836
:101182009060DDE0FEA3E0FF121B62800B9060DD49
:08119200E0FEA3E0FF121C5374
:10119A00D007D006D005D004D003D002D001D000A9
:0B11AA00D0D0D082D083D0F0D0E03253
:101E130075AF3F8FAF75AEB975A402E5A530E1FB91
:011E2300229C
:101A38009061A012060375AF3F8FAF9061A3E0C31A
:101A480094014022E5A530E0FB9061A0E475F00127
:101A58001205EC1203AAF5A675AEB975A40190613A
:071A6800A3E014F080D52279
:101A6F009060B91206039060BCE06027AE070FEEDE
:101A7F002400FDE4343F8D82F583E493FE9060B93A
:101A8F00E475F0011205ECEE1203C39060BCE01494
:041A9F00F080D322DE
:0506BC00426173000023
:071F04007B017A6179632281
:101DA500C3906174E094FF906173E094FF5007E481
:071DB50075F0011203D522B5
:101C9E00E4FDFCEE30E703D38001C392A5D296EFAC
:101CAE0025E0FFEE33FEC2960DBD00010CED641073
:031CBE004C70E087
:011CC1002200
:0B1831009060AF1206039060B2EDF073
:10183C00C296C2A4E4A3F09060B2E0FFA3E0FEC3A2
:10184C009F50219060AF1205E375F002EEA4F58273
:10185C0085F0831203EBFFAEF0121C9E9060B3E098
:0A186C0004F080D3D2A4C2A4C2A5E8
:01187600224F
:101D2000C3906174E09432906173E09400400CE4DD
:0C1D3000F0A3F0121F047D0812183122ED
:1018BD007E007F107D00121F0412065F78D3E25464
:1018CD00CFF2E24410F290718CE4F078E3E254F33D
:1018DD00F2E24404F2907193E4F0E254FCF2E2443B
:1018ED0001F2907192E4F0C2A5C296C2A4121F0437
:0518FD007D0802183116
:0B1EF1007379732072657365740A003A
:10000F0078E2E254F3F2E24404F290718FE4F0C22A
:02001F00A1221C
:101B070012000F121D587BFF7A1E79F11200B012D6
:101B17001E73121E8D121EA7121C2D121AD6121812
:0E1B2700BD121947121AA37F017E000200278B
:101B3500120AA875D95590715EE054FEF075D9BBAF
:101B4500121B0775D9AA121E801212341212B21274
:0D1B5500139E12140812174F121D2080E677
:0D1E730078E0E24401F278E2E254FCF22251
:0D1E800020A0047F018002E4FF121D8C22CF
:1006C100C10A44613D000000004461410000000096
:1006D100446145000000004461490000000041619F
:1006E1004D00C109426139000041613B0041613C5B
:0106F1000008
:101B8D00120582EF2401FFE43EFEE43DFDE43CFC42
:101B9D0022E4FDFC12058EC3020571E4FEFDFC027C
:081BAD00058E12058E020423CF
:0D1E8D0078D3E254F3F278D0E24420F22240
:1019FF00906145120582906141121BAF90614512B3
:101A0F00059A9061411205A60000000090614912ED
:101A1F00058290613D121BAF90614912059A90614A
:091A2F003D1205A6000000002292
:1015A600906139E475F0011203D5C390613AE09475
:1015B60014906139E09400402BE4F0A3F09061416F
:1015C600121B8D90614112059A7F587E02906141EF
:1015D600121B9E400F200A0C9061411205A60000C6
:1015E6000000D20A30951520090F90613D121B8D1F
:0E15F60090613D12059A1219FFD20922C20916
:0116040022C3
:100C60009061971205A60000000090619B1205A6F6
:100C7000000000007FF47E01906145121B9E50062B
:100C8000200A03020D38E47F2E7E04FDFC906149AA
:100C900012058E12043EE47B03FAF9F81204C9909F
:100CA000619B12059A300A22E4FFFEFDFC90614927
:100CB000121BA190619760091205A6000000018037
:100CC0002C1205A60000000080237F2490619B1257
:100CD0001BA812043EE47B0AFAF9F81204C99061D9
:100CE0004512058E1204C990619712059A90617E93
:100CF00012058290619B121BAF90617E12059A9043
:100D000061491205A6000000009061451205A60089
:100D1000000000C20A7FC7906197121BA8D312057A
:100D200071400A9061971205A6000000C790619774
:080D3000120582906193EFF0BF
:010D38002298
:0D1E9A0090614DE0C394FF5003E004F0227E
:1016590090613BE0700F04F0906193E090613CF081
:10166900E0FF1209C290614DE0C394324033E4F0C7
:10167900906193E0FF90613CE0FED39F400BEED375
:1016890094004015E014F08010906193E0FFEEC3E0
:101699009F500690613CE004F090613CE0FF120924
:0116A900C27E
:0116AA00221D
:1006F20042615F00004261610000C10B41614E0036
:0807020041614F00416150000C
:0D1EB40090615B02058EE475F0010203D51C
:0D1EA70078C2E254CFF278C0E24404F22287
:1019870090615712058290615112058E12042390BF
:10199700615712059A9061511205A60000000012C6
:1019A7001EB4906155E0FEA3E0FFE4FCFD120423A2
:0E19B70090615B12059AE4906155F0A3F02256
:1016050090614EE004F0E0C394144020E4F0906152
:1016150055121EBBC3906156E09458906155E094F5
:10162500024009200C06E4F0A3F0D20C30822220FF
:101635000B1C906151120582EF2401FFE43EFEE48C
:101645003DFDE43CFC90615112059A121987D20BBD
:0316550022C20BA3
:01165800226F
:10123400E47FF47E01FDFC121EB4C3120571500359
:10124400300C6A300C0EC20C9060AF1205A6000080
:101254000000801CE47F607EEAFDFC90615712056B
:101264008E12043E121EB41204C99060AF12059A85
:101274009061571205A60000000090615B1205A65C
:1012840000000000E47FFF7EFFFDFC9060AF1205CC
:101294008EC3120571400A9060AF1205A60000FFCC
:0D12A400FF9060AF12058290618F12059AD5
:0112B100221A
:101C7900C3906160E094FF90615FE094FF500312AC
:101C89001EBAC3906162E094FF906161E094FF50D5
:051C990003121EBA2237
:101D7300E47BE87A03F9F890618F1205821204C9B3
:081D8300EFD3940C40027F0C29
:011D8B002235
:1012B200E49060AFF0906150E0700A04F0121D7388
:1012C20090614FEFF0C3906160E094C890615FE07D
:1012D20094004052E4F0A3F0121D739060AFEFF05F
:1012E20090614FE0FEC39F5005E004F080169060CD
:1012F200AFE0FFEED39F400C90614FE0D3940040EB
:1013020003E014F090614FE0C394084008906195A7
:101312007401F08009E4906195F0FF121E5690610D
:061322004FE0FF120ED4A3
:0113280022A2
:06070A00C10E4161750003
:101BB500120582EF2401FFE43EFEE43DFDE43CFC1A
:101BC50022120582120430E47B64FAF9F8C3020597
:081BD5007112058EC3020571B7
:100B8400C3906183E094E8906182E09403400F3065
:100B94000D0C121D3CC20DE4906182F0A3F0E47FC1
:100BA400E87E03FDFC90617E121BD640657F187EB3
:100BB400C67D9A7C3B906186121BD6500C90618650
:100BC400121BB590618612059A7F7F7E967D987C74
:100BD4000090618A121BD6500C90618A121BB5904A
:100BE400618A12059A90617E120582C3EF94E8FF30
:100BF400EE9403FEED9400FDEC9400FC90617E12F3
:020C0400059A4F
:100C0600906175E004F0E0C3940A4004E4F0D20D6C
:100C160090617612058E906186121BC6500C90610B
:100C26008612058290617612059A90617A12058E77
:100C360090618A121BC6500C90618A1205829061DF
:100C46007A12059AC3906185E09488906184E09455
:090C5600134006E4F0A3F0B20E15
:010C5F002272
:101BDD006675656C5F6164635F76616C203D3D2069
:101BED0025750A006675656C5F766F6C7461676547
:081BFD00203D3D2025750A0082
:100710004260E20000602860E40000000000000089
:1007200000000000000000000000000000000000C9
:1007300000000000000000000000000000000000B9
:100740000041610C004160DF004160E0004160E178
:0107500000A8
:0C1ECE0025E024E4F582E43460F5832272
:101E2400E4FDED121ECEEEF0A3EFF00DEDB414F2CE
:011E3400228B
:101C53009060DFE0700504F0021E2490610CE01236
:101C63001ECEEEF0A3EFF090610CE004F0E0C3941D
:051C7300144002E4F042
:011C78002249
:101877009060B51205A600000000E49060B4F090F7
:1018870060B512058E9060B4E0121ECEE0FEA3E0B4
:10189700FFE4FCFD1204239060B512059A9060B432
:1018A700E004F0E0B414D8E47B14FAF9F89060B5DA
:0618B7001205820204C9C3
:101DBC00C39060E3E094FF9060E2E094FF5007E48E
:071DCC0075F0011203D5229E
:10139E00E49060B3F0C39060E3E094C89060E2E044
:1013AE0094004043E4F0A3F01218779060AFEEF093
:1013BE00A3EFF09060AFE0FEA3E0FF7C077DD012BC
:1013CE000632E4FB7A10F9F81204C99060B1EEF01F
:1013DE00A3EFF07A1B79DD9060AF1213F67A1B79CA
:0713EE00F19060B11213F64B
:1013F500227BFFE0FFA3E09060B7CFF0A3EFF012F0
:0314050000B02212
:10075100602861100000000000000000000000009F
:100761000000000000000000000000000000000088
:10077100000000000000000000000000416138009E
:0407810041610D00C5
:0C1EDA0025E02410F582E43461F5832239
:101E3500E4FDED121EDAEEF0A3EFF00DEDB414F2B1
:011E4500227A
:101B620090610DE0700A121E3590610D7401F02231
:101B7200906138E0121EDAEEF0A3EFF0906138E0E7
:0A1B820004F0E0C394144002E4F004
:011B8C002236
:1016AB009060B21205A600000000E49060B1F090CB
:1016BB0060B212058E9060B1E0121EDAE0FEA3E07C
:1016CB00FFE4FCFD1204239060B212059A9060B106
:1016DB00E004F0E0B414D89060B2120582E47B14FD
:1016EB00FAF9F81204C99060B212059A9060B2022E
:0216FB00058266
:101DD300C390610FE094FF90610EE094FF5007E41D
:071DE30075F0011203D52287
:10140800C390610FE094C890610EE09400405AE4E4
:10141800F0A3F01216ABE4FCFD7B607A617902F868
:1014280012043EE47B0AFAF9F81204C9E4FB7A10C4
:10143800F9F81204C9EF2464FFE43EFE9060AFF0AF
:10144800A3EFF0C3943CEE94284009E4906196F031
:10145800FF021EC1C39060B0E094109060AFE094AA
:091468002750069061967401F012
:011471002258
:10078500516186000000000000000000000000002C
:040795000000000060
:101AD6007B017A6079AF9060BC7409F0E4FF121A5A
:101AE6006F9060B7E0B4C5189060AF120582906140
:101AF6008612059A9060B312058290618A12059A41
:011B060022BC
:101D3C0090618E74C5F0E4FF121E137B017A6179F9
:0C1D4C00869061A37409F0E4FF021A38CD
:100799004A60113F065B4F666D7D077F6F6054604D
:1007A9001B030D030C020D03080309030B030A03C2
:1007B90000030203050307030603030304040E04ED
:1007C9000C04090408040A040D040B0401050F04B0
:1007D900040406040704000402050B050A040304C3
:1007E90005050D050E050C0503050205040507059C
:1007F90009050605055C606F070F070E070107026B
:100809000700070D070C06020601060F0207060E70
:100819000600060D6020608B070707060705070419
:1008290007080709070A070B060306040605060653
:10083900060706080609060A416010004260AB0077
:1008490000C10F4260AD000042600000004160023B
:1008590000416003004260040000416006004160FD
:100869000700426008000041600A0041600B004235
:0C087900600C000041600E0041600F00A8
:10088600E0FE75F00EA4246FF582E43460F58375FE
:10089600F002EF1205D7E025E02463F582E4346127
:1008A600F5832275F0021205D7E0FF7E007401A8D9
:1008B600070822E04402F0A3E04480F0A3E0F0221F
:1008C600E0FCA3E0FDEE75F00EA42470F582E4349E
:1008D60060F58322E04404F0A3E0F0906167E04411
:1008E60008F0A3E0F022E475F0010203D5906167F9
:1008F600E04401F0A3E0F022F4FFEEF45CFEED5FCD
:10090600FF22AD07E054FBF0E054F7F022C39060FD
:1009160001E09496906000E0940022C390600DE0A0
:10092600942C90600CE0940122EFF074112DF58266
:10093600E43460F583E02275F00EA4241CF582E40D
:100946003460F58322E4F0A3F0A37402F022C3908E
:100956006005E09464906004E0940022C39060090E
:10096600E094C8906008E0940022E04440F0A3E0E0
:10097600F02275F00EA4241BF582E4346022FFEC0D
:100986004EFEED4FFF2225E0248BF582E43460F520
:10099600832225E0248CF582E43460F58322EEF090
:1009A600A3EFF09061BDE004F022E0547FF0E05444
:0C09B600BFF0A3E022E0FCA3E0FDEF2274
:101C05009061631208BE906166E04401F0E0441003
:101C1500F09061651208F6906165E04410F0A3E06C
:081C2500F09061651208BE2277
:0F1E5600906164E054FDF0EF6004E04402F0227C
:100ED400906166120908E054DFF0E054BFF0E0547A
:100EE4007FF0906165E054FDF012090AE054DFF0F0
:100EF400E054BFF0906163E054FEF0E054FDF0ED87
:100F040012060C0F85010F7E020F77030F70040F7A
:100F140069050F5F060F55070F4F080F45090F3F6F
:100F24000A0F390B0F2F0C00000F8C906163E04403
:100F340002F0A3E0F09061631208F6906165120973
:100F440070906165E04420F0A3E0F09061651208C0
:100F5400E4906165E04404F0A3E0F0906165E0444E
:100F640002F0A3E0F0906166E04480F0906166E0F6
:100F74004440F0906166E04420F0906166E04408EB
:090F8400F0906166E04404F022E3
:0D1EC100906167120908ED60031208DA2233
:101D8C00AD07906168E054EFF0E054DFF0ED6008CF
:091D9C00E04410F0E04420F022C4
:10190200AD079061671209B054FEF0E054FDF0E0BB
:1019120054FBF0ED14602714601E14601414600A66
:10192200147021906168E04404F0906168E0440220
:10193200F0906168E04401F0906167120970906173
:05194200671208BE223F
:101CE200E490616DF0A3E05401F0E490616DF0A323
:101CF200E05402F0EF6008E04401F0E04402F02218
:030E0D009061B63B
:100E100012092F9061B8F0E49061B7F09061B7E0EB
:100E2000FFC394074003020ED39061B6E0FE12099F
:100E300078120893C083C082E0FCA3E0FDEE1209A3
:100E40003DC083C0829061B7E0FBD082D08312089E
:100E5000A98005C333CE33CED8F91208FED082D094
:100E600083EEF0A3EFF07E007401A803088005C3B1
:100E700033CE33CED8F9FF9061B8E0FDEF5D604A24
:100E80009061B6E0FF120978F583C083C08290615B
:100E9000B7E0D082D08375F002120899C083C08277
:100EA0001209BB12093DC083C0829061B7E0D082B5
:100EB000D0831208A98005C333CE33CED8F91209E6
:100EC00084D082D083EEF0A3EFF09061B7E004F01D
:030ED000020E1CF3
:010ED30022FC
:0616FD009061A412059AA1
:10170300E49061A8F09061A8E0FFC39406503CC345
:1017130074059FFFC007E47B0AFAF9F89061A412ED
:1017230005821204C9AF03AD07D007120E0D9061F5
:10173300A4120582E47B0AFAF9F81204C99061A4A1
:0B17430012059A9061A8E004F080BA43
:01174E002278
:10179C009061A912059A9061691209B054FDF0A3E9
:1017AC00E0547FF090616DE054FEF07F01121CE27A
:1017BC009061A91205821216FD9061ADE0600E9049
:1017CC0061691208BE906169E04440800A90616AC8
:0C17DC001208B9A3E04401F0A3E0F022E1
:101D0200AD0790616FE054F7F0E054EFF0ED600D35
:0E1D12001208E490616FE04410F0A3E0F022AC
:030D39009061B90D
:100D3C0012092F9061BBF0E49061BAF09061BAE0B7
:100D4C00FFC39407503A9061B9120886C083C082E1
:100D5C001208C6C083C0829061BAE0D082D08312E0
:100D6C0008A98005C333CE33CED8F91208FED08241
:100D7C00D083EEF0A3EFF09061BAE004F0020D48DE
:100D8C00E49061BAF09061BAE0FFC394075071121D
:100D9C0008B18005C333CE33CED8F9FF9061BBE0E8
:100DAC00FDEF5D60529061B9E0FF75F00EA4246F09
:100DBC00F582E43460F583C083C0829061BAE0D0E0
:100DCC0082D08375F002120899C083C0821209BBCD
:100DDC001208CCC083C0829061BAE0D082D083125A
:100DEC0008A98005C333CE33CED8F9120984D0823A
:100DFC00D083EEF0A3EFF09061BAE004F0020D9115
:010E0C0022C3
:0509C2009061AEEFF0B2
:1009C700E49061B1F0A3F0906167E054FEF09061AC
:1009D70072E054F7F07F01121D02E49061AFF0E47A
:1009E7009061B0F09061B0E0FFC39407503A906116
:1009F700AF120886C083C0821208C6C083C0829027
:100A070061B0E0D082D0831208A98005C333CE330A
:100A1700CED8F91208FED082D083EEF0A3EFF09083
:100A270061B0E004F00209EB9061AFE004F0E0642C
:100A37000270AC9061AEE09061B2F09061B1E004F9
:100A4700F0A3E075F00A84F070F19061AEE0C39412
:100A570064400A1208F3906172E04408F0E4906180
:100A6700AFF09061AFE0FFC3940250349061B1E002
:100A7700B40105EF640160209061AFE0FFC374012A
:100A87009FFF9061AEE075F00A84ADF0120D3990CA
:100A970061AEE075F00A84F09061AFE004F080C2C7
:010AA700222C
:051329009061BCEFF033
:10132E00E4A3F09061BDE0FF12098C12089CC0830B
:10133E00C0821209BB1209981208AF8005C333CEC2
:10134E0033CED8F91208FED082D0831209A4E0B4AD
:10135E0010D1E49061BDF09061BCE0FFA3E0FEC34C
:10136E009F502CEE12098C12089CC083C082E0FCA8
:10137E00A3E0FDEE1209981208AF8005C333CE33F9
:0F138E00CED8F9120984D082D0831209A480C866
:01139D00222D
:101472009060001208EC906002E0FE7024120913E2
:101482004057E4F0A3F0906003E004F0E0FF940C16
:1014920040449060027401F0E4906000F0A3F08098
:1014A20035EEB40110C3906001E094C812091A40ED
:1014B2002812094B22906002E0B4021D1209134067
:1014C20018E4F0A3F0906003E0D394004003E0142A
:0914D200F0906003E0FF120ED45B
:0114DB0022EE
:1014DC009060041208EC906006E0FB701D12095439
:1014EC004053E4F0A3F0906007E004F0E0FF9410A8
:1014FC0040409060067401F08038EBB40113C39047
:10150C006005E09490906004E09401402812094B2F
:10151C0022906006E0B4021D1209544018E4F0A3B6
:10152C00F0906007E0D394004003E014F090600763
:05153C00E0FF1213297D
:011541002287
:101027009060081208EC90600AE0FA7027120962D3
:101037004044E4F0A3F012107E12109840FB906039
:101047000BE004F0E0C3940A402C7409F090600AA6
:101057007401F022EA6401701D1209624018E4F07D
:10106700A3F090600BE0D394004003E014F012105B
:061077007E12109840FB00
:10107D002290600BE0FDE4FF120D3990600BE0FD56
:10108D007F01120D39E49061BEF0229061BEE0FF48
:10109D0090600BE0FD120E0D9061BEE004F0E0C318
:0310AD0094062284
:1015420090600C1208EC90600EE0FE701E120921F1
:101552004051E4F0A3F090600FE094055005E004E0
:10156200F0803890600E7401F08030EEB40110C348
:1015720090600DE09490120928402812094B2290A5
:10158200600EE0B4021D1209214018E4F0A3F090AD
:10159200600FE0D394004003E014F090600FE0FF8E
:0315A20012190219
:0115A5002223
:101E4600906010E0B401089060AB1208ECD20F224B
:1011B5009060107401F0121C057F01121E56121C5E
:1011C500E2121D029061691208BE906169120970F0
:1011D5001208B9A31208F67F01121EC1121D8C1246
:1011E50008F3906172E04408F0906010E0603F758C
:1011F500D9AA300FF4C20F1214721214DC12102780
:10120500121542C39060ACE094A09060ABE0940FDF
:101215004017E4906010F0FF120ED4121E56121EF5
:0F122500C1121D8C7F10121329121D2080BB22B5
:101E0000C39060AEE094FF9060ADE094FF50031289
:031E100008EC22B9
:10174F00C39060AEE094DB9060ADE09401403DE467
:10175F00F0A3F0906195E06018906163E013A3E04F
:10176F001330E006E054FDF08007906164E044021E
:10177F00F0906196E06015906167E01313543F306D
:0D178F00E00412090A229061671208DA22B4
:100FA700021B35E493A3F8E493A34003F68001F210
:100FB70008DFF48029E493A3F85407240CC8C3334B
:100FC700C4540F4420C8834004F456800146F6DF1A
:100FD700E4800B01020408102040809006B8E47EEC
:100FE700019360BCA3FF543F30E509541FFEE4930F
:100FF700A360010ECF54C025E060A840B8E493A3D6
:10100700FAE493A3F8E493A3C8C582C8CAC583CA00
:10101700F0A3C8C582C8CAC583CADFE9DEE780BEB8
:010885000072
:1003AA00BB010689828A83E0225002E722BBFE0251
:0903BA00E32289828A83E4932284
:1003C300BB010689828A83F0225002F722BBFE0119
:0203D300F32213
:1003D500C5F0F8A3E028F0C5F0F8E58215827002B3
:0603E5001583E038F02250
:1003EB00BB0110E58229F582E5833AF583E0F5F050
:1003FB00A3E0225009E92582F886F008E622BBFE2D
:10040B000AE92582F8E2F5F008E222E5832AF58372
:08041B00E993F5F0A3E9932237
:0D042300EF2BFFEE3AFEED39FDEC38FC2228
:0E043000C3EF9BFFEE9AFEED99FDEC98FC22C7
:10043E00E88FF0A4CC8BF0A42CFCE98EF0A42CFC5D
:10044E008AF0EDA42CFCEA8EF0A4CDA8F08BF0A4DB
:10045E002DCC3825F0FDE98FF0A42CCD35F0FCEB3A
:10046E008EF0A4FEA9F0EB8FF0A4CFC5F02ECD39FF
:0F047E00FEE43CFCEAA42DCE35F0FDE43CFC226C
:10048D0075F008758200EF2FFFEE33FECD33CDCC26
:10049D0033CCC58233C5829BED9AEC99E5829840A9
:1004AD000CF582EE9BFEED9AFDEC99FC0FD5F0D686
:1004BD00E4CEFBE4CDFAE4CCF9A88222B800C1B9B0
:1004CD000059BA002DEC8BF084CFCECDFCE5F0CBEE
:1004DD00F97818EF2FFFEE33FEED33FDEC33FCEB27
:1004ED0033FB10D703994004EB99FB0FD8E5E4F9E2
:1004FD00FA227818EF2FFFEE33FEED33FDEC33FCCF
:10050D00C933C910D7059BE99A4007EC9BFCE99AC2
:10051D00F90FD8E0E4C9FAE4CCFB2275F010EF2F07
:10052D00FFEE33FEED33FDCC33CCC833C810D70707
:10053D009BEC9AE899400AED9BFDEC9AFCE899F842
:0E054D000FD5F0DAE4CDFBE4CCFAE4C8F922D5
:10055B00EB9FF5F0EA9E42F0E99D42F0EC6480C817
:06056B0064809845F022B7
:10057100EB9FF5F0EA9E42F0E99D42F0E89C45F0E0
:010581002257
:0C058200E0FCA3E0FDA3E0FEA3E0FF22EC
:0C058E00E0F8A3E0F9A3E0FAA3E0FB22F0
:0C059A00ECF0A3EDF0A3EEF0A3EFF022D4
:1005A600A8828583F0D083D0821205BD1205BD12C4
:1005B60005BD1205BDE473E493A3C583C5F0C583E9
:1005C600C8C582C8F0A3C583C5F0C583C8C582C89F
:0105D6002202
:0C05D700A42582F582E5F03583F583222F
:0905E300E0FBA3E0FAA3E0F92219
:1005EC00F8E0FBA3A3E0F925F0F0E5821582700298
:0705FC001583E0FA38F0223C
:09060300EBF0A3EAF0A3E9F022F8
:10060C00D083D082F8E4937012740193700DA3A37D
:10061C0093F8740193F5828883E473740293686091
:06062C00EFA3A3A380DF91
:10063200EC8EF0A4CCC5F0CCCDF8EFA4CEC5F02D55
:10064200FDE43CFCE8A42EC8C5F03DFDE43CFCEF13
:0D065200A4FFE5F028FEE43DFDE43CFC22A1
:10004500E50824B7F582E43460F583E005082290DD
:1000550060B43007039060B7E475F0011205EC0257
:1000650003AA2000E97F2ED2008018EF540F2490B8
:10007500D43440D4FF30040BEF24BFB41A0050032E
:100085002461FFE50960021509050CE50C70020500
:100095000B30070E9060B4E475F0011205ECEF0229
:1000A50003C3021E657403D2078003E4C207F50883
:1000B5009060B4120603E4F509F50BF50CE509604B
:1000C500077F2012008880F5750AFFC201C200C2B1
:1000D50002C203C205C206C208120054FF700D30E9
:1000E50007057F00120099AF0CAE0B22B4255FC245
:1000F500D5C204120054FF24D0B40A00501A75F07A
:100105000A780930D50508B6FF0106C6A426F620EB
:10011500D5047002D20380D924CFB41A00EF50045D
:10012500C2E5D20402029AD20180C6D20080C0D2B2
:100135000280BCD2D580BAD20580B47F2012008857
:100145002002077401B5090040F1120045FF1200B5
:10015500880200C2D208D2068095120045FB120023
:1001650045FA120045F94A4B7006796B7A037BFF15
:1001750020022EE509602A7E008E82758300120614
:100185008B60060EEE650A70F0C2D5EBC0E0EAC0E2
:10019500E0E9C0E0EE1202E1D0E0F9D0E0FAD0E00B
:1001A500FB1203AAFF60AAEBC0E0EAC0E0E9C0E0E9
:1001B500120088D0E02401F9D0E03400FAD0E0FB49
:1001C500E50A0460DCD50AD980877BFF7A0279DDF0
:1001D500D202809C791080027908C206C208800884
:1001E500D2D5790A8004790AC2D5E50A047002F5E8
:1001F5000AE4FAFDFEFF120045FC7B0820011312FC
:100205000045FD7B1030000A120045FE120045FF37
:100215007B20EC3382D592D55013C3E43000069F82
:10022500FFE49EFEE42001039DFDE49CFCE4CBF885
:10023500C201EC700CCFCECDCCE824F8F870F38079
:1002450017C3EF33FFEE33FEED33FDEC33FCEB3339
:10025500FB994002FB0FD8E9EB300105F8D0E0C46B
:1002650048B201C0E00AEC4D4E4F78207B0070C2C9
:10027500EAB50A0040BCC0E01202E3D0F0D0E020AD
:100285000104C4C0E0C4B201C0F0120071D0F0D5C1
:10029500F0EB0200C212060C015F5301D958013080
:1002A5004C012C4201DD4F01E54401E5490145437F
:0802B50001EB5501CF4601CF1A
:1002BD004501CF47038B5001342D01382E015B2BA7
:1002CD00013C2301592003742A00F4480000015316
:1002DD003F3F3F00790AA2D5200314300509B9101C
:1002ED00020404B9080104A2D5200602500104201D
:1002FD0002689202B509005034C0E07F2030031926
:10030D007F30A20272067205500F12033AC202C26A
:10031D0006C205C2087F30800F300503E9C0E01228
:10032D000088300503D0E0F9D0E0B509CC300517D1
:10033D007F30B9100C1200887F583004077F788009
:10034D0003B908031200883002057F2D0200887F53
:10035D00202008F87F2B2006F322920280CF286EF2
:10036D00756C6C2900D2011200453001F8C201787C
:10037D000930D50108F60200F42D504349581200FA
:10038D00452403B405004001E490038693120079DF
:0D039D00743A120079D2037509040201D9E7
:10065F00EF4E6012EF60010EEDBB010B89828A83B2
:10066F00F0A3DFFCDEFA2289F05007F709DFFCA9BF
:0C067F00F022BBFEFCF309DFFCA9F02216
:10068B00BB010CE58229F582E5833AF583E0225024
:10069B0006E92582F8E622BBFE06E92582F8E2226E
:0D06AB00E58229F582E5833AF583E4932288
:00000001FF
