:03000000021209E0
:10120900787FE4F6D8FD9060007F007E07E4F0A3C4
:0A121900DFFCDEFA75812102125E8F
:0C000300000000000000000000000000F1
:0B1DCC00EF1FAC0670011E4C70F622E9
:10002700AB07AA06EB1BAE0270011A4E600C7FAA43
:0B0037007E05121DCC75D9AA80EA22BC
:100D6C00907120E04480F07F057E00121DCCE4FFE2
:100D7C00FE12002775A75575AC5C9071327450F05B
:100D8C009071307403F0907136742FF090715C7424
:100D9C0003F090715BE054FCF07F18EF2466FDE4E7
:100DAC0034718D82F583E4F00FEFB433EE90401183
:100DBC00E4935407FF90711CE054F84FF0904017E7
:100DCC00E493547FFF90711DE054804FF0904010DD
:100DDC00E493FF5401C43333335480FE907123E009
:100DEC00547F4EF0EFC313543F4440FFA3E05480B4
:100DFC004FF0904012E493FF540FFE907146E05474
:100E0C00F04EF0EFC4540FFF90714FE054F04FF0E0
:100E1C00904013E493543FFF907140E054C04FF066
:100E2C00904014E493907126F0904015E4939071E7
:0B0E3C0028F0904016E49390712AF01B
:010E47002288
:071E0600E475F0010200D7B2
:1018A000E5B154CF42B153A8BFD2AF75D102789CF5
:1018B000E254E3F2E2441CF2E254FCF2E24401F2AC
:1018C00008E2547FF2E24420F278A17401F2187425
:1018D00076F2789CE2541FF2E244C0F243A8402220
:030021000213CBFC
:1013CB00C0E0C0F0C083C082C0D075D000C000C0E8
:1013DB0001C002C003C004C005C006C007789DE26F
:1013EB0030E752E24480F29061A3121E0690613501
:1013FB00E0FEA3E0FFE4FCFD7BFF7AFFF9F8D312DC
:10140B00025D4006906135121E069060A81202978D
:10141B00EF2401FFE43EFEE43DFDE43CFC9060A8BC
:10142B001202AF906137121E0690615F121E0612F8
:10143B001DE2121AC5D007D006D005D004D003D0B8
:10144B0002D001D000D0D0D082D083D0F0D0E03207
:0D0A2200C109C10A416197004261980000BE
:101D3B00120297EF2401FFE43EFEE43DFDE43CFC80
:011D4B002275
:101A0100E5B254FC42B253A9FED2AF75D104907134
:101A1100057409F0907104745FF0907101E0547FD6
:101A2100F0E04420F0907100E0E4F0E044C1F043C4
:031A3100A90122E6
:03002400020B8943
:100B8900C0E0C0F0C083C082C0D075D000C000C032
:0D0B990001C002C003C004C005C006C007B3
:0E0BA600907101E020E703020C64E04480F04F
:100BB400906197E004F0E0C394144023E4F0906162
:100BC4004D75F0011200D7C390614EE094589061C6
:0F0BD4004DE094024009200E06E4F0A3F0D20E8B
:100BE30030821620090F906149121D3B9061491212
:0B0BF30002AF12191FD2098002C209D4
:100BFE00906198E475F0011200D7C3906199E0946A
:100C0E0014906198E094004032E4F0A3F090613DBE
:100C1E00121D3B90613D1202AFE47F587E02FDFC37
:100C2E0090613D1202A3C3120273400F200D0C906F
:0B0C3E00613D1202BB00000000D20D5F
:100C4900309516200A0F906139121D3B90613912B7
:0B0C590002AF12195DD20A8002C20A2D
:100C6400D007D006D005D004D003D002D001D000E4
:0B0C7400D0D0D082D083D0F0D0E0328E
:0E1D7D009060FFEFF0121DFE9060FFE0FF226D
:101CDA0078C2E254FCF2E24401F290717EE04404DC
:0B1CEA00F075D60175D59F75D2102251
:081DFE00E5D430E4FB8FD7228D
:040A2F0041619C0085
:101AF4001201329061651202AF906165020297781B
:101B040069E24401F222F2AF93EF75F010A4FF22D0
:0A1B1400E594C4540FFDEF4DFF22CD
:101BBE0078C3E24403F218E2440CF2786AE2447904
:101BCE00F27591FF9071227407F0439E7043994015
:061BDE0043AA04D2AF226D
:101A65005399E0EF24FE601304701E907123E05437
:101A7500D8F0E0445AF0439904800E907123E05465
:101A8500D8F0E0445BF04399017869E24448F222DA
:101D2700121B03786BE230E1FA7402121B0AAEF061
:041D3700121B142245
:100F2400E4906163F0A3F0A31202BB00000000E4AC
:100F3400906169F0A3F074FFA3F0A3F0E4A3F0F0D0
:100F4400121D27906163EEF0A3EFF090616DE0C392
:100F540094024054906169E0FEA3E0FF906163E075
:100F6400FCA3E0FDD39FEC9E4008906169ECF0A3E4
:100F7400EDF090616BE0FEA3E0FFC3ED9FEC9E50AB
:100F84000F906163E0FFA3E090616BCFF0A3EFF0FB
:100F94009061651202A3906163E0FEA3E0FFE4FCAC
:100FA400FD120125A31202AF90616DE004F0E0C3CD
:100FB4009414408C121AFDC006C007906169E0FECB
:100FC400A3E0FBAA06E4F9F8D007D006121AF4C08D
:100FD40006C00790616BE0FEA3E0FBAA06E4F8D02C
:100FE40007D006121AF47804120284906163EEF0BA
:030FF400A3EFF078
:010FF70022D7
:10185F0090619CE014601A14602124FD60291460CB
:10186F00042406702B7F01121A6590619C7401F09D
:10187F0022121B0390619C7402F0227F02121A65E0
:10188F0090619C7405F022121B0390619C7406F00A
:01189F002226
:030042000215E9BB
:1015E900C0E0C0F0C083C082C0D075D000C000C0C8
:0D15F90001C002C003C004C005C006C00749
:10160600786BE230E136E24402121B0A121B149098
:101616006100E5F0F0A3EFF090619CE024FA601120
:1016260024047018906100E0FEA3E0FF121DF5800F
:0C1636000B906100E0FEA3E0FF121DEC31
:10164200D007D006D005D004D003D002D001D000FC
:0B165200D0D0D082D083D0F0D0E032A6
:101D4C0075AF3F8FAF75AEB975A402E5A530E1FB59
:011D5C002264
:1019960090618A12031875AF3F8FAF90618DE0C3D7
:1019A60094014022E5A530E0FB90618AE475F001E0
:1019B600120301120045F5A675AEB975A401906132
:0719C6008DE014F080D52232
:1019CD009060E11203189060E4E06027AE070FEE1F
:1019DD002400FDE4343F8D82F583E493FE9060E1B5
:1019ED00E475F001120301EE12005E9060E4E01464
:0419FD00F080D32281
:050A33004261260000F5
:0D1D99007E007F107D007B017A61791622AB
:0A1DE200906126E475F0010200D7BD
:101BE400E4FDFCEE30E703D38001C392A5D296EF67
:101BF40025E0FFEE33FEC2960DBD00010CED64102E
:031C04004C70E041
:011C070022BA
:0B17D4009060D71203189060DAEDF06F
:1017DF00C296C2A4E4A3F09060DAE0FFA3E0FEC3D8
:1017EF009F50219060D71202F875F002EEA4F58297
:1017FF0085F0831200EDFFAEF0121BE49060DBE08A
:0A180F0004F080D3D2A4C2A4C2A545
:0118190022AC
:101CA200C3906127E09432906126E09400400CE4F6
:0C1CB200F0A3F0121D9F7D081217D42231
:0E1D8B00121D99120374121D9F7D080217D4B9
:1018E000121D9912037478D3E254CFF2E24410F23D
:1018F00090718CE4F078E3E254F3F2E24404F29065
:101900007193E4F0E254FCF2E24401F2907192E44B
:0F191000F0C2A5C296C2A4121D9F7D080217D473
:0B1DD7007379732072657365740A0055
:10000F0078E2E254F3F2E24404F290718FE4F0C22A
:02001F00A1221C
:101B1E0012000F121CDA7BFF7A1D79D712043812CD
:101B2E001DA6121DB3121BBE121A341218E0121883
:081B3E00A07F017E00020027D8
:101C0800120D6C75D95590715EE054FEF075D9BB14
:101C1800121B1E90600C7401F075D9AA121CA280C8
:011C2800F8C3
:071E0D0078E2E254FCF2222E
:011E1A0022A5
:100A3800C10D4461390000000044613D0000000020
:0E0A48004461410000000044614500000000D0
:0C1DC0001202A3020125E4FDFC0202A3B4
:0D1DA60078D3E254F3F278D0E24420F22228
:10195D0090614112029790613D121DC0906141123C
:10196D0002AF90613D1202BB000000009061451274
:10197D000297906139121DC09061451202AF9061BE
:09198D00391202BB000000002227
:100FF80090616E1202BB000000009061721202BB89
:10100800000000007FF47E01906141121DC6C312EA
:1010180002735006200D030210AA7F2E7E049061F1
:1010280045121DC6120140E47B03FAF9F81201CB00
:101038009061721202AF300D0C90616E1202BB000B
:101048000000008027E47F24FEFDFC9061721202FC
:10105800A3120140E47B0AFAF9F81201CB9061412E
:101068001202A31201CB90616E1202AF906131128D
:101078000297906172121DC09061311202AF9061A7
:10108800451202BB000000009061411202BB000043
:101098000000C20D90616E12029790610FEEF0A3EE
:0210A800EFF067
:0110AA002223
:061E14009061530202A3DD
:0D1DB30078C2E254CFF278C0E24404F2227C
:10191F0090614F1202979061491202A31201259014
:10192F00614F1202AF9061491202BB00000000121A
:10193F001E1490614DE0FEA3E0FFE4FCFD120125B3
:0E194F009061531202AFE490614DF0A3F022BC
:10156B00E47FF47E01FDFC121E14C31202735003C0
:10157B00300E6A300E0C9061931202BB000000001B
:10158B00801CE47F607EEAFDFC90614F1202A31287
:10159B000140121E141201CB9061931202AF9061A5
:1015AB004F1202BB000000009061531202BB0000FF
:1015BB000000C20EE47FFF7EFFFDFC9061931202E0
:1015CB00A3C3120273400A9061931202BB0000FF87
:0D15DB00FF90619312029790610B1202AF16
:0115E80022E0
:060A5600C10C4161280003
:101B4600120297EF2401FFE43EFEE43DFDE43CFC77
:101B560022120297120132E47B64FAF9F8C30202F8
:081B6600731202A3C302027313
:100E4800C3906136E094E8906135E09403400F3038
:100E58000B0C121CBEC20BE4906135F0A3F0E47FCA
:100E6800E87E03FDFC906131121B6740657F187EA8
:100E7800C67D9A7C3B906102121B67500C90610200
:100E8800121B469061021202AF7F7F7E967D987C8E
:100E980000906106121B67500C906106121B469069
:100EA80061061202AF906131120297C3EF94E8FF16
:100EB800EE9403FEED9400FDEC9400FC9061311279
:020EC80002AF77
:100ECA00906128E004F0E0C3940A4004E4F0D20BF5
:100EDA009061291202A3906102121B57500C906173
:100EEA00021202979061291202AF90612D1202A399
:100EFA00906106121B57500C90610612029790617E
:100F0A002D1202AFC3906138E09488906137E09463
:090F1A00134006E4F0A3F0B20C50
:010F230022AB
:100A5C004260AC00004460A800000000602860AE5A
:100A6C00000000000000000000000000000000007A
:100A7C00000000000000000000000000000000006A
:100A8C0000000000000000004160D6004160A7009B
:10173B00FFEE34F9FEE434FFFDE434FFFCE4FAF988
:10174B00F8120140E4229061A5E0FEA3E0FF22FA2B
:10175B00F9F81201CBAD07C322FFEE34FAFEE434E5
:10176B00FFFDE434FFFCE42225E024AEF582E434F3
:0D177B0060F58322FDFC1202A3C30202737D
:091DEC009060ACEEF0A3EFF022D0
:0416CF00AB07AA06B5
:1016D300E490618EF0A31202BB00000000AE02AFE3
:1016E300039060D6E0FD04F0ED121773EEF0A3EF64
:1016F300F09060D6E0C394144002E4F0E490618E6D
:10170300F090618F1202A390618EE0121773E0FED6
:10171300A3E0FFE4FCFD12012590618F1202AF905C
:10172300618EE004F0E0B414D8E47B14FAF9F89085
:08173300618F1202970201CB45
:101D5D00E4FDED121773EEF0A3EFF00DEDB414F2F8
:011D6D002253
:080732009061A5EEF0A3EFF0C9
:10073A00E4FDC3EF94C5EE940B500A121751945579
:10074A00EE940150057DFF0208A8D3EF94B9EE9408
:10075A00074005E4FD0208A8D3EF9433EE94045051
:10076A00057D640208A8D3EF94B9EE9407501FEFF1
:10077A0094D0EE94064017121751EF24307B1212D0
:10078A00173B7BE912175A74129DFD0208A812172B
:10079A0051D394D0EE9406502AEF9427EE94064053
:1007AA00229061A5A3EF24D97B2212173B7BA912C1
:1007BA00175A74229DFDC3941240030208A87D12A1
:1007CA000208A8121751D39427EE9406502DEF94DD
:1007DA00A8EE940540259061A5A3EF24581217644A
:1007EA007B331217497B7F12175A74339DFDC394CA
:1007FA002240030208A87D220208A8121751D394A6
:10080A00A8EE9405502AEF944AEE9405402290618E
:10081A00A5A3EF24B61217647B441217497B5E1214
:10082A00175A74449DFDC3943350737D330208A84C
:10083A00121751D3944AEE9405502DEF94BCEE94BE
:10084A000440259061A5A3EF2444FFEE34FB121760
:10085A00687B541217497B8E12175A74549DFDC334
:10086A009444503A7D448036121751D394BCEE9486
:10087A0004502BEF9433EE940440239061A5A3EF28
:10088A0024CDFFEE34FB1217687B641217497B896B
:10089A0012175A74649DFDC3945450027D54AF05D7
:0108AA00222B
:10133800E490619DF0A3F0A3F090619AE0FEA3E031
:0C134800FF1216CF90619EEEF0A3EFF0B4
:101354009060A7E0703A7FF47E01A312177F4030BB
:101364009060A81202BB00000000120F2490619A42
:10137400EEF0A3EFF0121D5D90619AE0FEA3E0FF92
:1013840090619EEEF0A3EFF01213B79060A704F003
:10139400E47FE87E039060A812177F40159060A850
:1013A4001202BB0000000090619EE0FEA3E0FF1269
:0213B40013B76D
:1013B6002212073290619DEFF0906114F0E4906183
:0513C6009EF0A3F022DF
:020A9C00C18F08
:101B6E0090615B1202979061571202A31201CB9003
:101B7E00615B1202AF90615B020297AA06AB07127D
:081B8E001C85A90790615B2290
:091DF500906161EEF0A3EFF02211
:101CF5007C0A7D50120347E47B0AFAF9F81201CBFE
:091D0500E4FB7A10F9F80201CBAD
:101C8500EFC3949640047E6480107E007C007D64E2
:0C1C95001200707D96120082AE07AF06B0
:011CA1002220
:1012A300E4FBFAF9906157120297EF2401FFE43E41
:1012B300FEE43DFDE43CFC9061571202AF300F3178
:1012C300121B6E121CF5121B891202BB00000000D8
:1012D3009061571202BB00000000E490615FF0A32D
:1012E300F0906113E9F0906111EAF0A3EBF0C20F03
:1012F30022C3906160E094D090615FE09407403432
:10130300121B6E121CF5121B891202BB0000000097
:101313009061571202BB00000000E490615FF0A3EC
:10132300F0AF01906113EFF0AE02AF03906111EEE5
:04133300F0A3EFF044
:011337002293
:100A9E005461020000000000000000000000000091
:070AAE000000000000000041
:101A34007B017A6079D79060E47409F0E4FF1219AD
:101A4400CD9060DFE0B4C5189060D7120297906122
:101A5400021202AF9060DB1202979061061202AF8D
:011A6400225F
:101CBE0090610A74C5F0E4FF121D4C7B017A6179C4
:0C1CCE000290618D7409F0E4FF02199689
:100AB5004A600D3F065B4F666D7D077F6F60546032
:100AC50017030D030C020D03080309030B030A03A7
:100AD50000030203050307030603030304040E04CE
:100AE5000C04090408040A040D040B0401050F0491
:100AF500040406040704000402050B050A040304A4
:100B050005050D050E050C0503050205040507057C
:100B150009050605055C606B070F070E070107024F
:100B25000700070D070C06020601060F0207060E51
:100B35000600060D602060870707070607050704FE
:100B450007080709070A070B060306040605060634
:100B5500060706080609060A41600C004260000007
:100B650000416002004160030041600400426005ED
:100B750000004160070041600800416009004260D3
:030B85000A000063
:100C7F00F58375F002EF1202ECE025E02416F58201
:100C8F00E43461F5832275F0021202ECE0FF7E007E
:100C9F007401A8070822E04402F0A3E04480F0A307
:100CAF00E0F022C3906001E09496906000E0940021
:100CBF0022E054FBF0E054F7F0E054DFF0E054BFD3
:100CCF00F022E04401F0A3E0F022F4FFEEF45CFE2A
:100CDF00ED5FFF2275F00EA42418F582E43460F561
:100CEF00832275F00EA4246CF582E43460F5832220
:100CFF00E04440F0A3E0F022E04408F0A3E0F0224B
:100D0F0075F00EA42417F582E4346022FFEC4EFE3A
:100D1F00ED4FFF2275F00EA4246BF582E4346022B0
:100D2F0025E02487F582E43460F5832225E02488CA
:100D3F00F582E43460F58322EEF0A3EFF09061A822
:100D4F00E004F022E0547FF0E054BFF0A3E022E093
:0D0D5F00FCA3E0FDEF22E0FCA3E0FDEE228E
:101B9600906116120CAA906119E04401F0E044101D
:101BA600F0906118120CD1906118E04410F0A3E097
:081BB600F0906118120CAA2244
:0F1D6E00906117E054FDF0EF6004E04402F022B2
:10115E00AD07906119120CC0E0547FF0906118E059
:10116E0054FDF0120CC0906116E054FEF0E054FDF8
:10117E00F0ED12032112010111FA0211F30311EC29
:10118E000411E50511DB0611D10711CB0811C109B8
:10119E0011BB0A11B50B11AB0C00001208906116B1
:1011AE00E04402F0A3E0F0906116120CD1906118A9
:1011BE00120CFF906118E04420F0A3E0F09061184B
:1011CE00120D07906118E04404F0A3E0F09061184E
:1011DE00E04402F0A3E0F0906119E04480F09061E9
:1011EE0019E04440F0906119E04420F0906119E05C
:0B11FE004408F0906119E04404F02266
:101C4900AD0790611AE054FBF0E054F7F0ED600D38
:0E1C5900E04404F0A3E0F090611A120D07229F
:101D0E00AD0790611BE054EFF0E054DFF0ED60089A
:091D1E00E04410F0E04420F02242
:10181A00AD0790611A120D5354FEF0E054FDF0E04A
:10182A0054FBF0ED14602714601E14601414600A4F
:10183A0014702190611BE04404F090611BE04402A3
:10184A00F090611BE04401F090611A120CFF906164
:05185A001A120CAA2285
:101C2900E4906120F0A3E05401F0E4906120F0A376
:101C3900E05402F0EF6008E04401F0E04402F022D1
:05145B009061A0EFF01C
:10146000740D2DF582E43460F583E09061A2F0E420
:101470009061A1F09061A1E0FFC394075069120C44
:101480009D8005C333CE33CED8F9FF9061A2E0FD35
:10149000EF5D604A9061A0E0FF120D0FF583C083FD
:1014A000C0829061A1E0D082D08375F002120C85D9
:1014B000C083C082120D5E120CE3C083C0829061B3
:1014C000A1E0D082D083120C958005C333CE33CEF9
:1014D000D8F9120D1BD082D083EEF0A3EFF090610B
:0714E000A1E004F002147406
:0114E70022E2
:0610AB0090617D1202AF0E
:1010B100E4906181F0E4906182F0906182E0FFC38D
:1010C10094075042906181E0FE120D0F120C7FC017
:1010D10083C082120D65120CE3C083C082906182CD
:1010E100E0D082D083120C958005C333CE33CED8A5
:1010F100F9120CD9D082D083EEF0A3EFF090618287
:10110100E004F00210BB906181E004F0E06406703D
:10111100A4E4906181F0906181E0FFC39406503CAA
:10112100C374059FFFC007E47B0AFAF9F890617D5B
:101131001202971201CBAF03AD07D00712145B90D7
:10114100617D120297E47B0AFAF9F81201CB9061F2
:0C1151007D1202AF906181E004F080BAD2
:01115D00226F
:061788009061761202AF31
:10178E0090611C120D5354FDF0A3E0547FF0906154
:10179E0020E054FEF07F01121C2990617612029710
:1017AE001210AB90617AE0600E90611C120CAA9040
:1017BE00611CE04440800A90611D120CA5A3E04418
:0517CE0001F0A3E0F0B2
:0117D30022F3
:101C6700AD07906122E054F7F0E054EFF0ED600D1E
:0E1C7700120D07906122E04410F0A3E0F0226D
:0508AB00906183EFF0F5
:1008B000E4906187F0A3F090611AE054FEF090613B
:1008C00025E054F7F07F01121C67E4906184F0E4A6
:1008D000906185F0906185E0FFC39407504290617C
:1008E00084E0FE120D23120C7FC083C082120D65BE
:1008F000120CF1C083C082906185E0D082D0831257
:100900000C958005C333CE33CED8F9120CD9D082E2
:10091000D083EEF0A3EFF0906185E004F00208D4FC
:10092000906184E004F0E0640270A4906183E09040
:100930006188F0906187E004F0A3E075F00A84F02C
:1009400070F1906183E0C39464400D90611A120CC1
:10095000D1906125E04408F0E4906184F0906184D6
:10096000E0FFC394024003020A21906187E0B401D2
:1009700008EF64017003020A18906183E0FF75F0CC
:100980000A84740D25F0F582E43460F583E090610B
:1009900086F0EF75F00A84906183F0E4906185F051
:1009A000906185E0FFC39407506E120C9D8005C3D3
:1009B00033CE33CED8F9FF906186E0FDEF5D604F16
:1009C000906184E0FFC374019FFF120D23F583C083
:1009D00083C082906185E0D082D08375F002120CD2
:1009E00085C083C082120D5E120CF1C083C082905C
:1009F0006185E0D082D083120C958005C333CE335D
:100A0000CED8F9120D1BD082D083EEF0A3EFF09078
:100A10006185E004F00209A0906184E004F002091D
:010A20005D78
:010A210022B2
:05165D009061A7EFF011
:10166200E4A3F09061A8E0FF120D2F120C88C08352
:10167200C082120D5E120D3B120C9B8005C333CE4D
:1016820033CED8F9120CD9D082D083120D47E0B4F0
:1016920010D1E49061A8F09061A7E0FFA3E0FEC33F
:1016A2009F5029EE120D2F120C88C083C082120D9A
:1016B20065120D3B120C9B8005C333CE33CED8F995
:0C16C200120D1BD082D083120D4780CB8C
:0116CE0022F9
:1014E800906004E0700E121B967F01121D6E9060D2
:1014F800047401F0906000E475F0011200D7906068
:1015080002E0FE7024120CB24058E4F0A3F09060A0
:1015180003E004F0E0FF940C40459060027401F091
:10152800E4906000F0A3F08036EEB40111120CB222
:101538004008E4F0A3F0A37402F07F0C80219060CF
:1015480002E0B4021D120CB24018E4F0A3F090605F
:1015580003E0D394004003E014F0906003E0FF122E
:02156800115E12
:01156A00225E
:101A9500906009E070297F01121C29121C67906172
:101AA5001C120CAA90611C120CFF120CA5A3120C9F
:0F1AB500D17F01121C49121D0E9060097401F0BF
:011AC40022FF
:101AC50090600CE0602890600AE475F0011200D780
:101AD500121A95C390600BE094A090600AE0940FF1
:0E1AE500400CE490600CF0FF12115E121D6EBA
:011AF30022D0
:10122300021C08E493A3F8E493A34003F68001F2BD
:1012330008DFF48029E493A3F85407240CC8C333CC
:10124300C4540F4420C8834004F456800146F6DF9B
:10125300E4800B0102040810204080900A22E47EFF
:10126300019360BCA3FF543F30E509541FFEE49390
:10127300A360010ECF54C025E060A840B8E493A357
:10128300FAE493A3F8E493A3C8C582C8CAC583CA82
:10129300F0A3C8C582C8CAC583CADFE9DEE780BE3A
:010B8800006C
:10004500BB010689828A83E0225002E722BBFE02B9
:09005500E32289828A83E49322EC
:10005E00BB010689828A83F0225002F722BBFE0181
:02006E00F3227B
:10007000EF8DF0A4A8F0CF8CF0A428CE8DF0A42EA4
:02008000FE225E
:10008200BC000BBE0029EF8DF084FFADF022E4CC62
:10009200F875F008EF2FFFEE33FEEC33FCEE9DEC2B
:1000A200984005FCEE9DFE0FD5F0E9E4CEFD22ED71
:1000B200F8F5F0EE8420D21CFEADF075F008EF2FBB
:1000C200FFED33FD4007985006D5F0F222C398FDAC
:0500D2000FD5F0EA2249
:1000D700C5F0F8A3E028F0C5F0F8E58215827002B4
:0600E7001583E038F02251
:1000ED00BB0110E58229F582E5833AF583E0F5F051
:1000FD00A3E0225009E92582F886F008E622BBFE2E
:10010D000AE92582F8E2F5F008E222E5832AF58373
:08011D00E993F5F0A3E9932238
:0D012500EF2BFFEE3AFEED39FDEC38FC2229
:0E013200C3EF9BFFEE9AFEED99FDEC98FC22C8
:10014000E88FF0A4CC8BF0A42CFCE98EF0A42CFC5E
:100150008AF0EDA42CFCEA8EF0A4CDA8F08BF0A4DC
:100160002DCC3825F0FDE98FF0A42CCD35F0FCEB3B
:100170008EF0A4FEA9F0EB8FF0A4CFC5F02ECD3900
:0F018000FEE43CFCEAA42DCE35F0FDE43CFC226D
:10018F0075F008758200EF2FFFEE33FECD33CDCC27
:10019F0033CCC58233C5829BED9AEC99E5829840AA
:1001AF000CF582EE9BFEED9AFDEC99FC0FD5F0D687
:1001BF00E4CEFBE4CDFAE4CCF9A88222B800C1B9B1
:1001CF000059BA002DEC8BF084CFCECDFCE5F0CBEF
:1001DF00F97818EF2FFFEE33FEED33FDEC33FCEB28
:1001EF0033FB10D703994004EB99FB0FD8E5E4F9E3
:1001FF00FA227818EF2FFFEE33FEED33FDEC33FCD0
:10020F00C933C910D7059BE99A4007EC9BFCE99AC3
:10021F00F90FD8E0E4C9FAE4CCFB2275F010EF2F08
:10022F00FFEE33FEED33FDCC33CCC833C810D70708
:10023F009BEC9AE899400AED9BFDEC9AFCE899F843
:0E024F000FD5F0DAE4CDFBE4CCFAE4C8F922D6
:10025D00EB9FF5F0EA9E42F0E99D42F0EC6480C818
:06026D0064809845F022B8
:10027300EB9FF5F0EA9E42F0E99D42F0E89C45F0E1
:010283002258
:10028400E8600FECC313FCED13FDEE13FEEF13FF58
:03029400D8F1227C
:0C029700E0FCA3E0FDA3E0FEA3E0FF22DA
:0C02A300E0F8A3E0F9A3E0FAA3E0FB22DE
:0C02AF00ECF0A3EDF0A3EEF0A3EFF022C2
:1002BB00A8828583F0D083D0821202D21202D2128E
:1002CB0002D21202D2E473E493A3C583C5F0C583B3
:1002DB00C8C582C8F0A3C583C5F0C583C8C582C88D
:0102EB0022F0
:0C02EC00A42582F582E5F03583F583221D
:0902F800E0FBA3E0FAA3E0F92207
:10030100F8E0FBA3A3E0F925F0F0E5821582700285
:070311001583E0FA38F02229
:09031800EBF0A3EAF0A3E9F022E6
:10032100D083D082F8E4937012740193700DA3A36B
:1003310093F8740193F5828883E47374029368607F
:06034100EFA3A3A380DF7F
:10034700EC8EF0A4CCC5F0CCCDF8EFA4CEC5F02D43
:10035700FDE43CFCE8A42EC8C5F03DFDE43CFCEF01
:0D036700A4FFE5F028FEE43DFDE43CFC228F
:1003CD00E50824DAF582E43460F583E0050822902F
:1003DD0060D73007039060DAE475F0011203010273
:1003ED0000452000E97F2ED2008018EF540F249095
:1003FD00D43440D4FF30040BEF24BFB41A005003A3
:10040D002461FFE50960021509050CE50C70020574
:10041D000B30070E9060D7E475F001120301EF0267
:10042D00005E021D7D7403D2078003E4C207F50848
:10043D009060D7120318E4F509F50BF50CE509608A
:10044D00077F2012041080F5750AFFC201C200C299
:10045D0002C203C205C206C2081203DCFF700D30D2
:10046D0007057F00120421AF0CAE0B22B4255FC22D
:10047D00D5C2041203DCFF24D0B40A00501A75F063
:10048D000A780930D50508B6FF0106C6A426F62060
:10049D00D5047002D20380D924CFB41A00EF5004D2
:1004AD00C2E5D204020622D20180C6D20080C0D29B
:1004BD000280BCD2D580BAD20580B47F2012041040
:1004CD002002077401B5090040F11203CDFF12049B
:1004DD001002044AD208D20680951203CDFB1203F6
:1004ED00CDFA1203CDF94A4B700679F37A067BFFEC
:1004FD0020022EE509602A7E008E8275830012038C
:10050D00A060060EEE650A70F0C2D5EBC0E0EAC041
:10051D00E0E9C0E0EE120669D0E0F9D0E0FAD0E0F3
:10052D00FB120045FF60AAEBC0E0EAC0E0E9C0E0C5
:10053D00120410D0E02401F9D0E03400FAD0E0FB31
:10054D00E50A0460DCD50AD980877BFF7A067965D8
:10055D00D202809C791080027908C206C2088008F8
:10056D00D2D5790A8004790AC2D5E50A047002F55C
:10057D000AE4FAFDFEFF1203CDFC7B0820011312E5
:10058D0003CDFD7B1030000A1203CDFE1203CDFF0B
:10059D007B20EC3382D592D55013C3E43000069FF7
:1005AD00FFE49EFEE42001039DFDE49CFCE4CBF8FA
:1005BD00C201EC700CCFCECDCCE824F8F870F380EE
:1005CD0017C3EF33FFEE33FEED33FDEC33FCEB33AE
:1005DD00FB994002FB0FD8E9EB300105F8D0E0C4E0
:1005ED0048B201C0E00AEC4D4E4F78207B0070C23E
:1005FD00EAB50A0040BCC0E012066BD0F0D0E02096
:10060D000104C4C0E0C4B201C0F01203F9D0F0D5AA
:10061D00F0EB02044A12032104E75305615804B8B4
:10062D004C04B44205654F056D44056D4904CD4339
:08063D000573550557460557EA
:100645004505574707135004BC2D04C02E04E32B62
:1006550004C42304E12006FC2A047C48000004DBD2
:100665003F3F3F00790AA2D5200314300509B91090
:10067500020404B9080104A2D52006025001042091
:1006850002689202B509005034C0E07F203003199A
:100695007F30A20272067205500F1206C2C202C254
:1006A50006C205C2087F30800F300503E9C0E0129D
:1006B5000410300503D0E0F9D0E0B509CC300517BA
:1006C5007F30B9100C1204107F583004077F7880F2
:1006D50003B908031204103002057F2D0204107FB0
:1006E500202008F87F2B2006F322920280CF286E67
:1006F500756C6C2900D2011203CD3001F8C2017866
:100705000930D50108F602047C2D504349581203DF
:10071500CD2403B405004001E490070E93120401B3
:0D072500743A120401D20375090402056143
:10037400EF4E6012EF60010EEDBB010B89828A83A0
:10038400F0A3DFFCDEFA2289F05007F709DFFCA9AD
:0C039400F022BBFEFCF309DFFCA9F02204
:1003A000BB010CE58229F582E5833AF583E0225012
:1003B00006E92582F8E622BBFE06E92582F8E2225C
:0D03C000E58229F582E5833AF583E4932276
:00000001FF
