:03000000020F08E4
:100F0800787FE4F6D8FD9060007F007E07E4F0A3C8
:0A0F1800DFFCDEFA758121020F5D97
:0C000300000000000000000000000000F1
:0B197400EF1FAC0670011E4C70F62245
:10002700AB07AA06EB1BAE0270011A4E600C7FAA43
:0B0037007E0512197475D9AA80EA2218
:100B2C00907120E04480F07F057E00121974E4FF80
:100B3C00FE12002775A75575AC5C9071327450F09D
:100B4C009071307403F0907136742FF090715C7466
:100B5C0003F090715BE054FCF07F18EF2466FDE429
:100B6C0034718D82F583E4F00FEFB433EE904011C5
:100B7C00E4935407FF90711CE054F84FF090401729
:100B8C00E493547FFF90711DE054804FF09040101F
:100B9C00E493FF5401C43333335480FE907123E04B
:100BAC00547F4EF0EFC313543F4440FFA3E05480F6
:100BBC004FF0904012E493FF540FFE907146E054B6
:100BCC00F04EF0EFC4540FFF90714FE054F04FF023
:100BDC00904013E493543FFF907140E054C04FF0A9
:100BEC00904014E493907126F0904015E49390712A
:0B0BFC0028F0904016E49390712AF05E
:010C070022CA
:0719AE00E475F0010200D70F
:1014B600E5B154CF42B153A8BFD2AF75D102789CE3
:1014C600E254E3F2E2441CF2E254FCF2E24401F29A
:1014D60008E2547FF2E24420F278A17401F2187413
:1014E60076F2789CE2541FF2E244C0F243A840220E
:030021000211F7D2
:1011F700C0E0C0F0C083C082C0D075D000C000C0BE
:1012070001C002C003C004C005C006C007789DE244
:1012170030E74FE24480F29060E91219AE90608E99
:10122700E0FEA3E0FFE4FCFD7BFF7AFFF9F8D312B1
:10123700025D400690608E1219AE9060011202970F
:10124700EF2401FFE43EFEE43DFDE43CFC90600139
:101257001202AF9060901219AE9060B81219AE12D8
:10126700198AD007D006D005D004D003D002D00108
:0D127700D000D0D0D082D083D0F0D0E032B3
:0D0E6B00C109C10A4160DD004260DE0000E7
:1018E200120297EF2401FFE43EFEE43DFDE43CFCDE
:0118F20022D3
:10164D00E5B254FC42B253A9FED2AF75D1049071EC
:10165D00057409F0907104745FF0907101E0547F8E
:10166D00F0E04420F0907100E0E4F0E044C1F0437C
:03167D00A901229E
:03002400020A3697
:100A3600C0E0C0F0C083C082C0D075D000C000C086
:0D0A460001C002C003C004C005C006C00707
:0E0A5300907101E020E703020B11E04480F0F7
:100A61009060DDE004F0E0C394144023E4F0906072
:100A7100A675F0011200D7C39060A7E0945890606A
:0F0A8100A6E094024009200E06E4F0A3F0D20E86
:100A900030821620090F9060A21218E29060A21214
:0B0AA00002AF121535D2098002C20916
:100AAB009060DEE475F0011200D7C39060DFE09434
:100ABB00149060DEE094004032E4F0A3F090609676
:100ACB001218E29060961202AFE47F587E02FDFC92
:100ADB009060961202A3C3120273400F200D0C906C
:0B0AEB0060961202BB00000000D20D5C
:100AF600309516200A0F9060921218E290609212BA
:0B0B060002AF121573D20A8002C20A6F
:100B1100D007D006D005D004D003D002D001D00038
:0B0B2100D0D0D082D083D0F0D0E032E2
:0E192500906058EFF01219A6906058E0FF2273
:1018540078E2E254CFF2E24410F2907190E0440452
:0B186400F075D60175D59F75D21022DB
:0819A600E5D430E4FB8FD722E9
:040E78004160E200F3
:101713001201329060BE1202AF9060BE020297784F
:1017230069E24401F222F2AF93EF75F010A4FF22B5
:0A173300E594C4540FFDEF4DFF22B2
:1017B50078C3E24403F218E2440CF2786AE2447911
:1017C500F27591FF9071227407F0439E7043994022
:0617D50043AA04D2AF227A
:1016E3005399E0EF24FE601304701E907123E054BD
:1016F300D8F0E0445AF0439904800E907123E054EB
:10170300D8F0E0445BF04399017869E24448F2225F
:1018BB00121722786BE230E1FA7402121729AEF09C
:0418CB00121733229B
:100CE400E49060BCF0A3F0A31202BB00000000E497
:100CF4009060C2F0A3F074FFA3F0A3F0E4A3F0F0BB
:100D04001218BB9060BCEEF0A3EFF09060C6E0C395
:100D1400940240549060C2E0FEA3E0FF9060BCE007
:100D2400FCA3E0FDD39FEC9E40089060C2ECF0A3CE
:100D3400EDF09060C4E0FEA3E0FFC3ED9FEC9E5095
:100D44000F9060BCE0FFA3E09060C4CFF0A3EFF08D
:100D54009060BE1202A39060BCE0FEA3E0FFE4FC3E
:100D6400FD120125A31202AF9060C6E004F0E0C3B7
:100D74009414408C12171CC006C0079060C2E0FE99
:100D8400A3E0FBAA06E4F9F8D007D006121713C0B3
:100D940006C0079060C4E0FEA3E0FBAA06E4F8D016
:100DA40007D00612171378041202849060BCEEF088
:030DB400A3EFF0BA
:010DB7002219
:101475009060E2E014601A14602124FD6029146074
:10148500042406702B7F011216E39060E27401F0CC
:10149500221217229060E27402F0227F021216E3F4
:1014A5009060E27405F0221217229060E27406F053
:0114B5002214
:03004200021302A4
:10130200C0E0C0F0C083C082C0D075D000C000C0B1
:0D13120001C002C003C004C005C006C00732
:10131F00786BE230E136E24402121729121733904C
:10132F006059E5F0F0A3EFF09060E2E024FA60116D
:10133F0024047018906059E0FEA3E0FF12199D80FD
:0C134F000B906059E0FEA3E0FF1219941F
:10135B00D007D006D005D004D003D002D001D000E6
:0B136B00D0D0D082D083D0F0D0E03290
:1018F30075AF3F8FAF75AEB975A402E5A530E1FBB7
:0119030022C1
:1015AC009060D012030C75AF3F8FAF9060D3E0C347
:1015BC0094014022E5A530E0FB9060D0E475F00189
:1015CC001202F5120045F5A675AEB975A40190602E
:0715DC00D3E014F080D522DA
:1016190090603A12030C90603DE06027AE070FEE30
:101629002400FDE4343F8D82F583E493FE90603A13
:10163900E475F0011202F5EE12005E90603DE014CF
:04164900F080D32238
:050E7C0042607F000050
:0D1941007E007F107D007B017A60796F22AF
:0A198A0090607FE475F0010200D7C1
:1017DB00E4FDFCEE30E703D38001C392A5D296EF74
:1017EB0025E0FFEE33FEC2960DBD00010CED64103B
:0317FB004C70E04F
:0117FE0022C8
:0B142F0090603012030C906033EDF071
:10143A00C296C2A4E4A3F0906033E0FFA3E0FEC327
:10144A009F50219060301202EC75F002EEA4F582F2
:10145A0085F0831200EDFFAEF01217DB906034E0E6
:0A146A0004F080D3D2A4C2A4C2A5EE
:011474002255
:10181C00C3906080E0943290607FE09400400CE4D0
:0C182C00F0A3F01219477D0812142F22BF
:0E1933001219411203681219477D0802142F81
:1014F60012194112036878D3E254CFF2E24410F293
:1015060090718CE4F078E3E254F3F2E24404F29052
:101516007193E4F0E254FCF2E24401F2907192E439
:0F152600F0C2A5C296C2A41219477D0802142F65
:0B197F007379732072657365740A00B1
:10000F0078E2E2543FF2E24440F2907191E4F0C2A0
:02001F00A3221A
:10173D0012000F1218547BFF7A19797F12042C12A4
:10174D00194E12195B1217B51216B21214F61214A5
:08175D00B67F017E00020027A7
:1015E300120B2C75D95590715EE054FEF075D9BB82
:1015F30012173D75D9AA7F011218A37FF47E011239
:10160300002712181CE4FF1218A37FF47E011200B6
:061613002712181C80DD07
:0719B50078E2E254FCF2228B
:0119C2002202
:100E8100C10D446092000000004460960000000023
:0E0E910044609A0000000044609E00000000D3
:0C1968001202A3020125E4FDFC0202A310
:0D194E0078D3E254F3F278D0E24420F22284
:1015730090609A12029790609612196890609A127E
:1015830002AF9060961202BB0000000090609E12B2
:10159300029790609212196890609E1202AF906059
:0915A300921202BB0000000022BC
:100DB8009060C71202BB000000009060CB1202BB1B
:100DC800000000007FF47E0190609A12196EC31231
:100DD80002735006200D03020E6A7F2E7E04906077
:100DE8009E12196E120140E47B03FAF9F81201CB46
:100DF8009060CB1202AF300D0C9060C71202BB009E
:100E08000000008027E47F24FEFDFC9060CB1202E6
:100E1800A3120140E47B0AFAF9F81201CB90609A18
:100E28001202A31201CB9060C71202AF90608A121F
:100E380002979060CB12196890608A1202AF906096
:100E48009E1202BB0000000090609A1202BB0000D4
:100E58000000C20D9060C7120297906068EEF0A380
:020E6800EFF0A9
:010E6A002265
:0619BC009060AC0202A3E2
:0D195B0078C2E254CFF278C0E24404F222D8
:101535009060A81202979060A21202A31201259052
:1015450060A81202AF9060A21202BB000000001258
:1015550019BC9060A6E0FEA3E0FFE4FCFD120125A6
:0E1565009060AC1202AFE49060A6F0A3F022FA
:10128400E47FF47E01FDFC1219BCC3120273500307
:10129400300E6A300E0C9060D91202BB00000000C0
:1012A400801CE47F607EEAFDFC9060A81202A31219
:1012B40001401219BC1201CB9060D91202AF9060A8
:1012C400A81202BB000000009060AC1202BB000038
:1012D4000000C20EE47FFF7EFFFDFC9060D9120285
:1012E400A3C3120273400A9060D91202BB0000FF2C
:0D12F400FF9060D91202979060641202AF63
:0113010022C9
:060E9F00C10C416081005E
:10176500120297EF2401FFE43EFEE43DFDE43CFC5C
:1017750022120297120132E47B64FAF9F8C30202DD
:08178500731202A3C3020273F8
:100C0800C390608FE094E890608EE09403400F30CA
:100C18000B0C121838C20BE490608EF0A3F0E47F3E
:100C2800E87E03FDFC90608A12178640657F187E77
:100C3800C67D9A7C3B90605B121786500C90605B77
:100C480012176590605B1202AF7F7F7E967D987C5D
:100C58000090605F121786500C90605F12176590C5
:100C6800605F1202AF90608A120297C3EF94E8FFA8
:100C7800EE9403FEED9400FDEC9400FC90608A1263
:020C880002AFB9
:100C8A00906081E004F0E0C3940A4004E4F0D20BDF
:100C9A009060821202A390605B121776500C9060EB
:100CAA005B1202979060821202AF9060861202A3D2
:100CBA0090605F121776500C90605F1202979060F6
:100CCA00861202AFC3906091E09488906090E0949D
:090CDA00134006E4F0A3F0B20C93
:010CE30022EE
:100EA5004260050000446001000000006028600702
:100EB500000000000000000000000000000000002D
:100EC500000000000000000000000000000000001D
:100ED500000000000000000041602F00416000009C
:1013E200FFEE34F9FEE434FFFDE434FFFCE4FAF9E5
:1013F200F8120140E4229060EBE0FEA3E0FF22FA43
:10140200F9F81201CBAD07C322FFEE34FAFEE43441
:10141200FFFDE434FFFCE42225E02407F582E434F6
:0D14220060F58322FDFC1202A3C3020273D9
:09199400906005EEF0A3EFF022D3
:04137600AB07AA0611
:10137A00E49060D4F0A31202BB00000000AE02AFFA
:10138A000390602FE0FD04F0ED12141AEEF0A3EFC3
:10139A00F090602FE0C394144002E4F0E49060D42B
:1013AA00F09060D51202A39060D4E012141AE0FE05
:1013BA00A3E0FFE4FCFD1201259060D51202AF9074
:1013CA0060D4E004F0E0B414D8E47B14FAF9F8909D
:0813DA0060D51202970201CB5D
:10190400E4FDED12141AEEF0A3EFF00DEDB414F2B1
:0119140022B0
:0808BD009060EBEEF0A3EFF0F8
:1008C500E4FDC3EF94C5EE940B500A1213F894554A
:1008D500EE940150057DFF020A33D3EF94B9EE94EF
:1008E500074005E4FD020A33D3EF9433EE94045038
:1008F500057D64020A33D3EF94B9EE9407501FEFD8
:1009050094D0EE940640171213F8EF24307B1212A0
:1009150013E27BE912140174129DFD020A331213CE
:10092500F8D394D0EE9406502AEF9427EE9406401F
:10093500229060EBA3EF24D97B221213E27BA9124C
:10094500140174229DFDC394124003020A337D12E3
:10095500020A331213F8D39427EE9406502DEF9420
:10096500A8EE940540259060EBA3EF245812140BD4
:100975007B331213F07B7F12140174339DFDC394F6
:10098500224003020A337D22020A331213F8D3945C
:10099500A8EE9405502AEF944AEE94054022906003
:1009A500EBA3EF24B612140B7B441213F07B5E12FB
:1009B500140174449DFDC3943350737D33020A338F
:1009C5001213F8D3944AEE9405502DEF94BCEE948F
:1009D5000440259060EBA3EF2444FFEE34FB121492
:1009E5000F7B541213F07B8E12140174549DFDC3BA
:1009F5009444503A7D4480361213F8D394BCEE9457
:100A050004502BEF9433EE940440239060EBA3EF56
:100A150024CDFFEE34FB12140F7B641213F07B8997
:100A250012140174649DFDC3945450027D54AF05A6
:010A3500229E
:10116400E49060E3F0A3F0A3F09060E0E0FEA3E07D
:0C117400FF1213769060E4EEF0A3EFF0A1
:10118000906000E0703A7FF47E01A3121426403094
:101190009060011202BB00000000120CE49060E0BD
:1011A000EEF0A3EFF01219049060E0E0FEA3E0FF80
:1011B0009060E4EEF0A3EFF01211E390600004F011
:1011C000E47FE87E039060011214264015906001D0
:1011D0001202BB000000009060E4E0FEA3E0FF12FA
:0211E00011E319
:1011E200221208BD9060E3EFF090606DF0E4906031
:0511F200E4F0A3F0226F
:020EE500C18FBB
:10178D009060B41202979060B01202A31201CB9038
:10179D0060B41202AF9060B4020297AA06AB0712B2
:0817AD0017FFA9079060B422A8
:09199D009060BAEEF0A3EFF02215
:10188A007C0A7D5012033BE47B0AFAF9F81201CB79
:09189A00E4FB7A10F9F80201CB1D
:1017FF00EFC3949640047E6480107E007C007D646D
:0C180F001200707D96120082AE07AF063A
:01181B0022AA
:10103A00E4FBFAF99060B0120297EF2401FFE43E54
:10104A00FEE43DFDE43CFC9060B01202AF300F318B
:10105A0012178D12188A1217A81202BB000000007C
:10106A009060B01202BB00000000E49060B8F0A3E8
:10107A00F090606CE9F090606AEAF0A3EBF0C20FBE
:10108A0022C39060B9E094D09060B8E094074034ED
:10109A0012178D12188A1217A81202BB000000003C
:1010AA009060B01202BB00000000E49060B8F0A3A8
:1010BA00F0AF0190606CEFF0AE02AF0390606AEEA1
:0410CA00F0A3EFF0B0
:0110CE0022FF
:100EE70054605B00000000000000000000000000EC
:070EF70000000000000000F4
:1016B2007B017A60793090603D7409F0E4FF121684
:1016C20019906038E0B4C5189060301202979060AB
:1016D2005B1202AF90603412029790605F1202AF09
:0116E20022E5
:1018380090606374C5F0E4FF1218F37B017A607955
:0C1848005B9060D37409F0E4FF0215AC63
:090EFE004260E600004160E800DA
:100FA200E04401F0E04402F0E04404F0E04408F0E0
:100FB200E04410F0E04420F0E04440F0E04480F0EF
:100FC20022F0A3E0F0906071E04410F0A3E0F09012
:100FD2006071E022E04404F0A3E0F0906073E0442A
:100FE20008F0A3E0F02290606FE04480F0A3E0F00C
:100FF2002290606FE04402F0A3E0F02290606FE084
:101002004401F0A3E0F022E04440F0A3E0F022E04B
:101012004420F0A3E0F022E04404F0A3E0F022E058
:101022004410F0A3E0F022E054FBF0E054F7F0E0CB
:0810320054DFF0E054BFF0228E
:0119C3002201
:10186F00120FE8906072E04401F0E04410F09060D5
:0B187F0071E04401120FC3120FEC22B5
:10191500EF9060706005E04402F022E054FDF02293
:1010CF00AD07906072121029E0547FF0906071E0CC
:1010DF0054FDF012102990606FE054FEF0E054FDC3
:1010EF00F0ED120315115C01115502114E0311475A
:1010FF0004114005113A06113407112E0811280961
:10110F0011220A111F0B111C0C00001163120FF397
:10111F00120FFE90607112100990607112101190F1
:10112F006071120FE0906071121019906071120FC0
:10113F00F6906072E04480F0906072E04440F0906E
:10114F006072E04420F0906072E04408F0906072AA
:05115F00E04404F02251
:1018CF00EF9060736004120FD622E054FBF0E054E7
:0318DF00F7F022FD
:1018A300EF9060746009E04410F0E04420F022E01F
:0818B30054EFF0E054DFF022D5
:101680009060E6E475F0011200D7C39060E7E09443
:10169000F49060E6E094014018E4F0A3F0A3E004C5
:1016A000F0E0D3940C4002E4F09060E8E0FF121008
:0116B000CF6A
:0116B1002216
:10072600906070120FA2120FFE120FF390606F12FC
:10073600101990606F120FE090606F121021906098
:100746006F12101190606F121009120FE89060720C
:10075600120FA2906071E04401120FCD4402120FF5
:10076600CD4404120FCD4408120FC34420120FCDFE
:100776004440120FCD120FEC906074120FA29060DD
:1007860073121001906073120FF6906073120FD6F9
:1007960090607312102190607312101190607312A2
:1007A6001009906073120FEB906076120FA29060A2
:1007B60075121001906075120FF69060751210197F
:1007C600906075120FE0906075121021906075129E
:1007D6001011906075121009906075120FEB906001
:1007E60078120FA2906077121001906077120FF6C0
:1007F600906077121019906077120FE09060771270
:100806001021906077121011906077121009906095
:1008160077120FEB90607A120FA290607912100196
:10082600906079120FF69060791210199060791223
:100836000FE090607912102190607912101190608B
:1008460079121009906079120FEB90607C120FA25A
:1008560090607B12100190607B120FF690607B1205
:10086600101990607B120FE090607B12102190604F
:100876007B12101190607B12100990607B120FEBB7
:1008860090607E120FA290607D12100190607D1222
:100896000FF690607D12101990607D120FE0906047
:1008A6007D12102190607D12101190607D1210094A
:0708B60090607D120FEB22A0
:100F22000215E3E493A3F8E493A34003F68001F2ED
:100F320008DFF48029E493A3F85407240CC8C333D0
:100F4200C4540F4420C8834004F456800146F6DF9F
:100F5200E4800B0102040810204080900E6BE47EB6
:100F6200019360BCA3FF543F30E509541FFEE49394
:100F7200A360010ECF54C025E060A840B8E493A35B
:100F8200FAE493A3F8E493A3C8C582C8CAC583CA86
:100F9200F0A3C8C582C8CAC583CADFE9DEE780BE3E
:010F070000E9
:10004500BB010689828A83E0225002E722BBFE02B9
:09005500E32289828A83E49322EC
:10005E00BB010689828A83F0225002F722BBFE0181
:02006E00F3227B
:10007000EF8DF0A4A8F0CF8CF0A428CE8DF0A42EA4
:02008000FE225E
:10008200BC000BBE0029EF8DF084FFADF022E4CC62
:10009200F875F008EF2FFFEE33FEEC33FCEE9DEC2B
:1000A200984005FCEE9DFE0FD5F0E9E4CEFD22ED71
:1000B200F8F5F0EE8420D21CFEADF075F008EF2FBB
:1000C200FFED33FD4007985006D5F0F222C398FDAC
:0500D2000FD5F0EA2249
:1000D700C5F0F8A3E028F0C5F0F8E58215827002B4
:0600E7001583E038F02251
:1000ED00BB0110E58229F582E5833AF583E0F5F051
:1000FD00A3E0225009E92582F886F008E622BBFE2E
:10010D000AE92582F8E2F5F008E222E5832AF58373
:08011D00E993F5F0A3E9932238
:0D012500EF2BFFEE3AFEED39FDEC38FC2229
:0E013200C3EF9BFFEE9AFEED99FDEC98FC22C8
:10014000E88FF0A4CC8BF0A42CFCE98EF0A42CFC5E
:100150008AF0EDA42CFCEA8EF0A4CDA8F08BF0A4DC
:100160002DCC3825F0FDE98FF0A42CCD35F0FCEB3B
:100170008EF0A4FEA9F0EB8FF0A4CFC5F02ECD3900
:0F018000FEE43CFCEAA42DCE35F0FDE43CFC226D
:10018F0075F008758200EF2FFFEE33FECD33CDCC27
:10019F0033CCC58233C5829BED9AEC99E5829840AA
:1001AF000CF582EE9BFEED9AFDEC99FC0FD5F0D687
:1001BF00E4CEFBE4CDFAE4CCF9A88222B800C1B9B1
:1001CF000059BA002DEC8BF084CFCECDFCE5F0CBEF
:1001DF00F97818EF2FFFEE33FEED33FDEC33FCEB28
:1001EF0033FB10D703994004EB99FB0FD8E5E4F9E3
:1001FF00FA227818EF2FFFEE33FEED33FDEC33FCD0
:10020F00C933C910D7059BE99A4007EC9BFCE99AC3
:10021F00F90FD8E0E4C9FAE4CCFB2275F010EF2F08
:10022F00FFEE33FEED33FDCC33CCC833C810D70708
:10023F009BEC9AE899400AED9BFDEC9AFCE899F843
:0E024F000FD5F0DAE4CDFBE4CCFAE4C8F922D6
:10025D00EB9FF5F0EA9E42F0E99D42F0EC6480C818
:06026D0064809845F022B8
:10027300EB9FF5F0EA9E42F0E99D42F0E89C45F0E1
:010283002258
:10028400E8600FECC313FCED13FDEE13FEEF13FF58
:03029400D8F1227C
:0C029700E0FCA3E0FDA3E0FEA3E0FF22DA
:0C02A300E0F8A3E0F9A3E0FAA3E0FB22DE
:0C02AF00ECF0A3EDF0A3EEF0A3EFF022C2
:1002BB00A8828583F0D083D0821202D21202D2128E
:1002CB0002D21202D2E473E493A3C583C5F0C583B3
:1002DB00C8C582C8F0A3C583C5F0C583C8C582C88D
:0102EB0022F0
:0902EC00E0FBA3E0FAA3E0F92213
:1002F500F8E0FBA3A3E0F925F0F0E5821582700292
:070305001583E0FA38F02235
:09030C00EBF0A3EAF0A3E9F022F2
:10031500D083D082F8E4937012740193700DA3A377
:1003250093F8740193F5828883E47374029368608B
:06033500EFA3A3A380DF8B
:10033B00EC8EF0A4CCC5F0CCCDF8EFA4CEC5F02D4F
:10034B00FDE43CFCE8A42EC8C5F03DFDE43CFCEF0D
:0D035B00A4FFE5F028FEE43DFDE43CFC229B
:1003C100E5082433F582E43460F583E005082290E2
:1003D1006030300703906033E475F0011202F502DA
:1003E10000452000E97F2ED2008018EF540F2490A1
:1003F100D43440D4FF30040BEF24BFB41A005003AF
:100401002461FFE50960021509050CE50C70020580
:100411000B30070E906030E475F0011202F5EF0227
:10042100005E0219257403D2078003E4C207F508B0
:1004310090603012030CE4F509F50BF50CE5096049
:10044100077F2012040480F5750AFFC201C200C2B1
:1004510002C203C205C206C2081203D0FF700D30EA
:1004610007057F00120415AF0CAE0B22B4255FC245
:10047100D5C2041203D0FF24D0B40A00501A75F07B
:100481000A780930D50508B6FF0106C6A426F6206C
:10049100D5047002D20380D924CFB41A00EF5004DE
:1004A100C2E5D204020616D20180C6D20080C0D2B3
:1004B1000280BCD2D580BAD20580B47F2012040458
:1004C1002002077401B5090040F11203C1FF1204B3
:1004D1000402043ED208D20680951203C1FB120326
:1004E100C1FA1203C1F94A4B700679E77A067BFF1C
:1004F10020022EE509602A7E008E82758300120398
:100501009460060EEE650A70F0C2D5EBC0E0EAC059
:10051100E0E9C0E0EE12065DD0E0F9D0E0FAD0E00B
:10052100FB120045FF60AAEBC0E0EAC0E0E9C0E0D1
:10053100120404D0E02401F9D0E03400FAD0E0FB49
:10054100E50A0460DCD50AD980877BFF7A067959F0
:10055100D202809C791080027908C206C208800804
:10056100D2D5790A8004790AC2D5E50A047002F568
:100571000AE4FAFDFEFF1203C1FC7B0820011312FD
:1005810003C1FD7B1030000A1203C1FE1203C1FF3B
:100591007B20EC3382D592D55013C3E43000069F03
:1005A100FFE49EFEE42001039DFDE49CFCE4CBF806
:1005B100C201EC700CCFCECDCCE824F8F870F380FA
:1005C10017C3EF33FFEE33FEED33FDEC33FCEB33BA
:1005D100FB994002FB0FD8E9EB300105F8D0E0C4EC
:1005E10048B201C0E00AEC4D4E4F78207B0070C24A
:1005F100EAB50A0040BCC0E012065FD0F0D0E020AE
:100601000104C4C0E0C4B201C0F01203EDD0F0D5C2
:10061100F0EB02043E12031504DB5305555804ACFC
:100621004C04A84205594F05614405614904C14381
:08063100056755054B46054B1A
:1006390045054B4707075004B02D04B42E04D72BAA
:1006490004B82304D52006F02A047048000004CF1A
:100659003F3F3F00790AA2D5200314300509B9109C
:10066900020404B9080104A2D5200602500104209D
:1006790002689202B509005034C0E07F20300319A6
:100689007F30A20272067205500F1206B6C202C26C
:1006990006C205C2087F30800F300503E9C0E012A9
:1006A9000404300503D0E0F9D0E0B509CC300517D2
:1006B9007F30B9100C1204047F583004077F78800A
:1006C90003B908031204043002057F2D0204047FD4
:1006D900202008F87F2B2006F322920280CF286E73
:1006E900756C6C2900D2011203C13001F8C201787E
:1006F9000930D50108F60204702D504349581203F8
:10070900C12403B405004001E4900702931203F5E4
:0D071900743A1203F5D20375090402055568
:10036800EF4E6012EF60010EEDBB010B89828A83AC
:10037800F0A3DFFCDEFA2289F05007F709DFFCA9B9
:0C038800F022BBFEFCF309DFFCA9F02210
:10039400BB010CE58229F582E5833AF583E022501E
:1003A40006E92582F8E622BBFE06E92582F8E22268
:0D03B400E58229F582E5833AF583E4932282
:00000001FF
