:03000000020F8B61
:100F8B00787FE4F6D8FD9060007F007E07E4F0A345
:0A0F9B00DFFCDEFA758120020FE092
:0C000300000000000000000000000000F1
:0B205700EF1FAC0670011E4C70F6225B
:10002700AB07AA06EB1BAE0270011A4E600C7FAA43
:0B0037007E0512205775D9AA80EA222E
:100AB000907120E04480F07F057E00122057E4FF13
:100AC000FE12002775A75575AC5C9071327450F01A
:100AD0009071307403F0907136742FF090715C74E3
:100AE00003F090715BE054FCF07F18EF2466FDE4A6
:100AF00034718D82F583E4F00FEFB433EE90401142
:100B0000E4935407FF90711CE054F84FF0904017A5
:100B1000E493547FFF90711DE054804FF09040109B
:100B2000E493FF5401C43333335480FE907123E0C7
:100B3000547F4EF0EFC313543F4440FFA3E0548072
:100B40004FF0904012E493FF540FFE907146E05432
:100B5000F04EF0EFC4540FFF90714FE054F04FF09F
:100B6000904013E493543FFF907140E054C04FF025
:100B7000904014E493907126F0904015E4939071A6
:0B0B800028F0904016E49390712AF0DA
:010B8B002247
:101A7000E5B154CF42B153A8BFD2AF75D102789C23
:101A8000E254E3F2E2441CF2E254FCF2E24401F2DA
:101A900008E2547FF2E24420F278A17401F2187453
:101AA00076F2789CE2541FF2E244C0F243A840224E
:03002100021025A5
:10102500C0E0C0F0C083C082C0D075D000C000C091
:1010350001C002C003C004C005C006C007789DE218
:1010450030E756E24480F29061B2E0FEA3E0FFE4AF
:10105500FCFD7BFF7AFFF9F8D312026A400A906122
:10106500B2E475F0011200F2906135E0C394FF50CF
:1010750003E004F0121F2A121F419061B4E475F0D9
:10108500011200F2121F58121B2C121F13121FFE01
:10109500121D50121F85121FA9D007D006D005D0EA
:1010A50004D003D002D001D000D0D0D082D083D0DC
:0410B500F0D0E03265
:101C7C00E5B254FC42B253A9FED2AF75D1049071B7
:101C8C00057409F0907104745FF0907101E0547F59
:101C9C00F0E04420F0907100E0E4F0E044C1F04347
:031CAC00A9012269
:0300240002188639
:10188600C0E0C0F0C083C082C0D075D000C000C028
:1018960001C002C003C004C005C006C007907101A4
:1018A600E030E70AE04480F01216F3121694D007EF
:1018B600D006D005D004D003D002D001D000D0D0BD
:0918C600D082D083D0F0D0E032D2
:0403EE004161BC00AD
:101F6F00907123E054D8F0E04459F0227869E244AC
:061F7F0001F29061BC229A
:101D2A0078C3E24403F218E2440CF2786AE2447996
:101D3A00F27591FF9071227407F0439E70439940A7
:061D4A0043AA04D2AF22FF
:101DFD005399E0EF24FE600B04700E121F6F439990
:101E0D00048006121F6F4399017869E24448F2225B
:101B2C009061BCE014601914601D146026146004EC
:101B3C00240470257F01121DFD9061BC7401F022FC
:101B4C00121F7B7402F0227F02121DFD9061BC7487
:0A1B5C0003F022121F7B7404F02234
:0300420002114266
:10114200C0E0C0F0C083C082C0D075D000C000C073
:0D11520001C002C003C004C005C006C007F4
:10115F00786BE230E142E24402F2AF93EF75F010A8
:10116F00A4FFE594C4540FFDEF4DFF9061AAE5F085
:10117F00F0A3EFF09061BCE024FC60112402701822
:10118F009061AAE0FEA3E0FF121CAF800B9061AA52
:08119F00E0FEA3E0FF121DDCDD
:1011A700D007D006D005D004D003D002D001D0009C
:0B11B700D0D0D082D083D0F0D0E03246
:101DBB0090619BF09061B70202F290000612005EF8
:101DCB00FE90000802005E9000091200D090000CFB
:011DDB0022E5
:10061300E490619BF07FFFA374FFF09061B7120336
:100623001290000112005EFE120045FDEEC39D50C4
:10063300030207A5121DBF900001E41200D0900031
:100643000E12031B120371EFF460089061B674235A
:10065300F080099061B6E06003E014F0121DBF90D2
:10066300000312005E6F601590000512005E600DBE
:10067300900004E41200D09000030207A19000054B
:1006830012005EFE90000412005EC39E500B121D0A
:10069300BF900004740102008B121DBF9000021270
:1006A300005E6F6048EFF4701C121DC5C39E400AC4
:1006B3007405121DBB9000028061121DBF90000AD9
:1006C3007401020798121DBF9000087401121DD512
:1006D30012005E6F9061B7600C1202F27401121D7A
:1006E300D2EF0207981202F2900009803DEFF470F6
:1006F30041121DBF90000912005ED3940050030203
:10070300079B90000B12005EFE90000A12005ED35E
:100713009E40117401121DBB90000C12005E90618B
:100723009CF08054121DBF90000A740112008B02CA
:10073300079B121DBF121DCCC394FF5008900008E5
:10074300740112008B121DC5B5060890619B7403DA
:10075300F08020121DBF900007121DC86E703990E3
:10076300619B7404121DBE90000612005E90000887
:100773001200D090619CEFF0121DBFE4121DD274E1
:10078300FF1200D090619CE09000111200D09061A4
:100793009BE09000121200D0121DBF900002EF12D6
:0207A30000D084
:0107A5002231
:10000F0075AF3F8FAF75AEB975A402E5A530E1FBB3
:01001F0022BE
:101C11009061A612031275AF3F8FAF9061A9E0C327
:101C210094014022E5A530E0FB9061A6E475F00146
:101C31001202FB120045F5A675AEB975A4019061BB
:071C4100A9E014F080D52298
:101C48009061A61203129061A9E06027AE070FEE1B
:101C58002400FDE4343F8D82F583E493FE9061A671
:101C6800E475F0011202FBEE1200BE9061A9E014C7
:041C7800F080D32203
:0503F2004261990000CA
:07206B007B017A61798922F3
:101F1300C390619AE094FF906199E094FF5007E4C5
:071F230075F0011200F2222B
:101D7500E4FDFCEE30E703D38001C392A5D296EFD4
:101D850025E0FFEE33FEC2960DBD00010CED64109B
:031D95004C70E0AF
:011D98002228
:0B19160090619B12031290619EEDF0A7
:10192100C296C2A4E4A3F090619EE0FFA3E0FEC3CF
:101931009F502190619B1202F275F002EEA4F58294
:1019410085F083120108FFAEF0121D7590619FE0D2
:0A19510004F080D3D2A4C2A4C2A502
:01195B002269
:101E7800C390619AE09432906199E09400400CE438
:0C1E8800F0A3F012206B7D081219162246
:10195C007E007F107D0012206B1203A478D3E2541A
:10196C00CFF2E24410F290718CE4F078E3E254F39D
:10197C00F2E24404F2907193E4F0E254FCF2E2449B
:10198C0001F2907192E4F0C2A5C296C2A412206B2F
:05199C007D0802191690
:101D9900121FD7122032121FF112200B121D2A1204
:101DA90018CF12195C121A70121C7C7F017E000276
:021DB900002701
:1019A100120AB075D95590715EE054FEF075D9BB3D
:1019B100121D991211C275D9AA121FE47B017A6115
:1019C1007934120613121560120B8C121336120899
:1019D100E21212411212BF120D3912148C1214208C
:0519E100121E7880D108
:0D1FD70078E0E24401F278E2E254FCF222EC
:0D1FE40020A0047F018002E4FF121EE22213
:1003F700C101446150000000004461540000000046
:100407004461580000000044615C00000000416145
:100417006000C10042614C000041614E0041614FE4
:0104270000D4
:101CDA00120291EF2401FFE43EFEE43DFDE43CFCE8
:101CEA0022E4FDFC12029DC3020280E4FEFDFC0216
:081CFA00029D12029D0201404F
:0D1FF10078D3E254F3F278D0E24420F222DB
:101BA000906158120291906154121CFC906158127D
:101BB00002A99061541202B50000000090615C120D
:101BC0000291906150121CFC90615C1202A990611C
:091BD000501202B50000000022D1
:1016940090614CE475F0011200F2C390614DE09446
:1016A4001490614CE09400402BE4F0A3F09061545A
:1016B400121CDA9061541202A97F587E0290615480
:1016C400121CEB400F20010C9061541202B5000073
:1016D4000000D20130951520000F906150121CDAE1
:0E16E4009061501202A9121BA0D20022C20077
:0116F20022D5
:100B8C0090619B1202B50000000090619F1202B5AB
:100B9C00000000007FF47E01906158121CEB50069F
:100BAC00200103020C64E47F2E7E04FDFC90615C4A
:100BBC0012029D12014DE47B03FAF9F81201D89050
:100BCC00619F1202A9300122E4FFFEFDFC90615CE2
:100BDC00121CEE90619B60091202B50000000180AE
:100BEC002C1202B50000000080237F2490619F121C
:100BFC001CF512014DE47B0AFAF9F81201D8906148
:100C0C005812029D1201D890619B1202A99061AEFC
:100C1C0012029190619F121CFC9061AE1202A9907D
:100C2C00615C1202B5000000009061581202B50020
:100C3C00000000C2017FC790619B121CF5D3120209
:100C4C0080400A90619B1202B5000000C790619B26
:080C5C00120291906184EFF097
:010C6400226D
:0D1FFE00906160E0C394FF5003E004F02206
:1013360090614EE0700F04F0906184E090614FF090
:10134600E0FF1209CA906160E0C3944B4056E4F096
:10135600906184E0FF90614FE0FED39F4019906159
:1013660084E0FFEE9FC3940A90614FE0400524F6A7
:10137600F0802914F08025906184E0FFEEC39F5031
:101386001B90614FE0FF906184E0C39FC3940A9075
:10139600614FE04005240AF0800204F090614FE0BE
:0413A600FF1209CA5F
:0113AA002220
:1004280042617200004261740000C10241616100D2
:080438004161620041616300B3
:0D20180090616E02029DE475F0010200F27D
:0D200B0078C2E254CFF278C0E24404F22221
:101AB00090616A12029190616412029D120140903D
:101AC000616A1202A99061641202B500000000125E
:101AD0002018906168E0FEA3E0FFE4FCFD120140E5
:0E1AE00090616E1202A9E4906168F0A3F022FA
:1016F300906161E004F0E0C394144020E4F0906151
:101703006812201FC3906169E09458906168E09467
:10171300024009200306E4F0A3F0D2033082222022
:10172300021C906164120291EF2401FFE43EFEE487
:101733003DFDE43CFC9061641202A9121AB0D2028E
:0317430022C202BD
:011746002280
:10124100E47FF47E01FDFC122018C31202805003DA
:1012510030036A30030EC20390619B1202B5000095
:101261000000801CE47F607EEAFDFC90616A12024E
:101271009D12014D1220181201D890619B1202A9F2
:1012810090616A1202B50000000090616E1202B511
:1012910000000000E47FFF7EFFFDFC90619B1202D5
:1012A1009DC3120280400A90619B1202B50000FFAB
:0D12B100FF90619B1202919061801202A9D2
:0112BE00220D
:101D5000C3906173E094FF906172E094FF500312AE
:101D6000201EC3906175E094FF906174E094FF5071
:051D70000312201E22F9
:101EB000E47BE87A03F9F89061801202911201D86C
:081EC000EFD3940C40027F0CEB
:011EC80022F7
:1012BF00E490619BF0906163E0700A04F0121EB03D
:1012CF00906162EFF0C3906173E094C8906172E037
:1012DF0094004052E4F0A3F0121EB090619BEFF027
:1012EF00906162E0FEC39F5005E004F080169061AC
:1012FF009BE0FFEED39F400C906162E0D3940040DF
:10130F0003E014F0906162E0C39408400890618696
:10131F007401F08009E4906186F0FF121FC890619C
:06132F0062E0FF120ED285
:011335002295
:080440004161AD004161AC0017
:101EFB00120291EF2401FFE43EFEE43DFDE43CFCC5
:081F0B002212029DC3020280B4
:1008E200C39061B3E094E89061B2E09403400F30AA
:1008F200040C121E94C204E49061B2F0A3F0E47FEF
:10090200E87E03FDFC9061AE121F0C40657F187EED
:10091200C67D9A7C3B906176121F0C500C906176DA
:10092200121EFB9061761202A97F9C7EE07DF57C0F
:100932000590617A121F0C500C90617A121EFB9086
:10094200617A1202A99061AE120291C3EF94E8FF9C
:10095200EE9403FEED9400FDEC9400FC9061AE1267
:0209620002A9E8
:100964009061ACE004F0E0C3940A4004E4F0D204E3
:100974009061ADE0600FC39061B5E094E89061B41C
:10098400E094034040E49061B4F0A3F09061AD04BE
:10099400F090617EE06017E47BE87A03F9F89061F7
:1009A400761202911201D890619F74018013E47B46
:1009B40064FAF9F890617A1202911201D8E4906114
:0509C4009FF012183A3B
:0109C900220B
:100448004260B200004260B40000602860B600005C
:100458000000000000000000000000000000000094
:100468000000000000000000000000000000000084
:100478000000000000004160DE004160AF0060281D
:1004880060DF000000000000000000000000000025
:100498000000000000000000000000000000000054
:1004A80000000000000000000000416107004160FA
:0604B800B0004160B1003C
:101B660025E024B6F582E43460F583EEF0A3EFF0C9
:101B76002225E024DFF582E4346022F583E0FEA32B
:101B8600E0FFE4FCFD02014090619BE0FEA3E0FF64
:0A1B960022E47B14FAF9F802029130
:0B203F00E4FDED121B660DEDB414F77C
:01204A002273
:101DDC009060AFE0700504F002203F9060DEE012EE
:101DEC001B669060DEE004F0E0C394144002E4F063
:011DFC0022C4
:101AEE0090619F1202B500000000E490619EF0909C
:101AFE00619F12029D90619EE025E024B6F582E47E
:101B0E003460121B8190619F1202A990619EE004C5
:0E1B1E00F0E0B414DA90619F121B970201D818
:101F2A00C39060B3E094FF9060B2E094FF5007E47E
:071F3A0075F0011200F22214
:101F4100C39060B5E094FF9060B4E094FF5007E463
:071F510075F0011200F222FD
:0E1FB900E4FDED121B77121B6F0DEDB414F456
:011FC70022F7
:101EC900906107E0121B77121B6F906107E004F025
:091ED900E0C394144002E4F0227D
:101BD90090619F1202B500000000E490619EF090B0
:101BE900619F12029D90619EE0121B77121B8190EA
:101BF900619F1202A990619EE004F0E0B414E090A4
:081C0900619F121B970201D834
:1017EB00C3EF94AAEE94054004E4FD803FC3EF944D
:1017FB00B4EE940440047D018032C3EF94BEEE94AA
:10180B000340047D028025C3EF94C8EE940240048C
:10181B007D038018C3EF94D2EE940140047D0480C5
:0E182B000BC3EF94DCEE940040027D05AF0588
:01183900228C
:100D3900E490619DF0C39060B3E094C89060B2E024
:100D490094005003020DF1E4F0A3F0121AEE7C07AF
:100D59007DD0120377E4FB7A10F9F81201D890617B
:100D69009BEEF0A3EFF09060B0E0702704F0121B47
:100D79008E121FB9121B8E1217EBA3EFF09060B100
:100D8900F0700B906188E07010120E00800B120D4C
:100D9900F28006121B8E121EC9C39060B5E09488BA
:100DA9009060B4E094134040E4F0A3F0121BD91210
:100DB90017EB90619DEFF09060B1E0FEC39F500585
:100DC900E004F0801090619DE0FFEED39F40069013
:100DD90060B1E014F09060B1E0700A906188E07051
:080DE90007120E0022120DF2A8
:100DF10022E4906188F09060B1E0FF1219E622FFD1
:0A0E01001219E69061887401F022D6
:1004BE006028610B0000000000000000000000003A
:1004CE00000000000000000000000000000000001E
:1004DE000000000000000000000000004161330039
:0404EE004161080060
:0C204B0025E0240BF582E43461F58322CB
:101F9800E4FDED12204BEEF0A3EFF00DEDB414F2DA
:011FA8002216
:101CAF00906108E0700A121F989061087401F02289
:101CBF00906133E012204BEEF0A3EFF0906133E030
:0A1CCF0004F0E0C394144002E4F0B6
:011CD90022E8
:1017470090619E1202B500000000E490619DF09048
:10175700619E12029D90619DE012204BE0FEA3E086
:10176700FFE4FCFD12014090619E1202A990619D69
:10177700E004F0E0B414D890619E120291E47B1467
:10178700FAF9F81201D890619E1202A990619E029F
:021797000291BD
:101F5800C390610AE094FF906109E094FF5007E4A0
:071F680075F0011200F222E6
:10148C00C390610AE094C8906109E09400405AE46A
:10149C00F0A3F0121747E4FCFD7B607A617902F847
:1014AC0012014DE47B0AFAF9F81201D8E4FB7A1028
:1014BC00F9F81201D8EF2464FFE43EFE90619BF032
:1014CC00A3EFF0C3943CEE94284009E4906187F0BC
:1014DC00FF022025C390619CE0941090619BE094E6
:0914EC002750069061877401F09D
:0114F50022D4
:1004F20053617600000000000000000000000000D0
:06050200000000000000F3
:1018CF007B017A61799B9061A9740AF0E4FF121C85
:1018DF00489061A4E0B4C52190619B120291906180
:1018EF00761202A990619F12029190617A1202A959
:1018FF009061A3E090617EF02290617E7401F0A36D
:06190F0074C5F0121E94E5
:0119150022AF
:101E940090617F74C5F0E4FF12000F7B017A6179D1
:0C1EA400769061A9740AF0E4FF021C11A2
:100508004A60113F065B4F666D7D077F6F605460E0
:100518001B030D030C020D03080309030B030A0355
:1005280000030203050307030603030304040E0480
:100538000C04090408040A040D040B0401050F0443
:10054800040406040704000402050B050A04030456
:1005580005050D050E050C0503050205040507052F
:1005680009050605055C606F070F070E07010702FE
:100578000700070D070C06020601060F0207060E04
:100588000600060D6020608B0707070607050704AD
:1005980007080709070A070B0603060406050606E7
:1005A800060706080609060A416010004260AB000B
:1005B80000C1054260AD00004260000000416002D9
:1005C8000041600300426004000041600600416091
:1005D8000700426008000041600A0041600B0042C9
:0C05E800600C000041600E0041600F003C
:1007A600E0FE75F00EA4246FF582E43460F58375DF
:1007B600F002EF1202E6E025E02489F582E43461D6
:1007C600F5832275F0021202E6E0FF7E007401A8AE
:1007D600070822E04402F0A3E04480F0A3E0F02200
:1007E600E0FCA3E0FDEE75F00EA42470F582E4347F
:1007F60060F58322E04404F0A3E0F090618DE044CC
:1008060008F0A3E0F022E475F0010200F290618D99
:10081600E04401F0A3E0F022F4FFEEF45CFEED5FAD
:10082600FF22AD07E054FBF0E054F7F022C39060DE
:1008360001E09496906000E0940022C390600DE081
:10084600942C90600CE0940122EFF074112DF58247
:10085600E43460F583E02275F00EA4241CF582E4EE
:100866003460F58322E4F0A3F0A37402F022C3906F
:100876006005E09464906004E0940022C3906009EF
:10088600E094C8906008E0940022E04440F0A3E0C1
:10089600F02275F00EA4241BF582E4346022FFECEE
:1008A6004EFEED4FFF2225E0248BF582E43460F501
:1008B600832225E0248CF582E43460F58322EEF071
:1008C600A3EFF090619CE004F022E0547FF0E05446
:0C08D600BFF0A3E022E0FCA3E0FDEF2255
:101D02009061891207DE90618CE04401F0E044109A
:101D1200F090618B12081690618BE04410F0A3E002
:081D2200F090618B1207DE2234
:0F1FC80090618AE054FDF0EF6004E04402F022E3
:100ED20090618C120828E054DFF0E054BFF0E05437
:100EE2007FF090618BE054FDF012082AE054DFF0AD
:100EF200E054BFF0906189E054FEF0E054FDF0ED63
:100F020012034B0F83010F7C020F75030F6E040F48
:100F120067050F5D060F53070F4D080F43090F3D7D
:100F22000A0F370B0F2D0C00000F8A906189E044E5
:100F320002F0A3E0F090618912081690618B12080A
:100F42009090618BE04420F0A3E0F090618B120856
:100F52000490618BE04404F0A3E0F090618BE044E4
:100F620002F0A3E0F090618CE04480F090618CE0AC
:100F72004440F090618CE04420F090618CE04408A1
:090F8200F090618CE04404F022BF
:0D20250090618D120828ED60031207FA2269
:101EE200AD0790618EE054EFF0E054DFF0ED600852
:091EF200E04410F0E04420F0226D
:1019E600AD0790618D1208D054FEF0E054FDF0E092
:1019F60054FBF0ED14602714601E14601414600A82
:101A060014702190618EE04404F090618EE04402EF
:101A1600F090618EE04401F090618D120890906123
:051A26008D1207DE2215
:101E1D00E4906193F0A3E05401F0E4906193F0A39A
:101E2D00E05402F0EF6008E04401F0E04402F022DB
:030E0B009061A54E
:100E0E0012084F9061A7F0E49061A6F09061A6E001
:100E1E00FFC394074003020ED19061A5E0FE1208B5
:100E2E00981207B3C083C082E0FCA3E0FDEE120867
:100E3E005DC083C0829061A6E0FBD082D083120792
:100E4E00C98005C333CE33CED8F912081ED082D056
:100E5E0083EEF0A3EFF07E007401A803088005C3B3
:100E6E0033CE33CED8F9FF9061A7E0FDEF5D604A37
:100E7E009061A5E0FF120898F583C083C08290614F
:100E8E00A6E0D082D08375F0021207B9C083C0826B
:100E9E001208DB12085DC083C0829061A6E0D0828A
:100EAE00D0831207C98005C333CE33CED8F91208CA
:100EBE00A4D082D083EEF0A3EFF09061A6E004F010
:030ECE00020E1AF7
:010ED10022FE
:061799009061A01202A9FC
:10179F00E49061A4F09061A4E0FFC39406503CC3B1
:1017AF0074059FFFC007E47B0AFAF9F89061A01255
:1017BF0002911201D8AF03AD07D007120E0B906143
:1017CF00A0120291E47B0AFAF9F81201D89061A0F5
:0B17DF001202A99061A4E004F080BA9F
:0117EA0022DC
:10183A0090619B1202A990618F1208D054FDF0A307
:10184A00E0547FF0906193E054FEF07F01121E1D78
:10185A0090619B12029112179990619FE0600E901D
:10186A00618F1207DE90618FE04440800A90619098
:0C187A001207D9A3E04401F0A3E0F02223
:101E3D00AD07906195E054F7F0E054EFF0ED600DD3
:0E1E4D00120804906195E04410F0A3E0F0222A
:030C65009061A0FB
:100C680012084F9061A2F0E49061A1F09061A1E0B8
:100C7800FFC39407503A9061A01207A6C083C082B0
:100C88001207E6C083C0829061A1E0D082D08312AF
:100C980007C98005C333CE33CED8F912081ED082D7
:100CA800D083EEF0A3EFF09061A1E004F0020C74A1
:100CB800E49061A1F09061A1E0FFC3940750711224
:100CC80007D18005C333CE33CED8F9FF9061A2E0B7
:100CD800FDEF5D60529061A0E0FF75F00EA4246FF7
:100CE800F582E43460F583C083C0829061A1E0D0CE
:100CF80082D08375F0021207B9C083C0821208DB64
:100D08001207ECC083C0829061A1E0D082D0831228
:100D180007C98005C333CE33CED8F91208A4D082D0
:100D2800D083EEF0A3EFF09061A1E004F0020CBDD7
:010D38002298
:0509CA0090619BEFF0BD
:1009CF00E490619EF0A3F090618DE054FEF0906191
:1009DF0098E054F7F07F01121E3DE490619CF0E423
:1009EF0090619DF090619DE0FFC39407503A906134
:1009FF009C1207A6C083C0821207E6C083C08290F4
:100A0F00619DE0D082D0831207C98005C333CE33F6
:100A1F00CED8F912081ED082D083EEF0A3EFF0905B
:100A2F00619DE004F00209F390619CE004F0E06442
:100A3F000270AC90619BE090619FF090619EE0042A
:100A4F00F0A3E075F00A84F070F190619BE0C3941D
:100A5F0064400A120813906198E04408F0E4906132
:100A6F009CF090619CE0FFC39402503490619EE033
:100A7F00B40105EF6401602090619CE0FFC3740135
:100A8F009FFF90619BE075F00A84ADF0120C6590AA
:100A9F00619BE075F00A84F090619CE004F080C2E5
:010AAF002224
:0513AB0090619BEFF0D2
:1013B000E4A3F090619CE0FF1208AC1207BCC0836C
:1013C000C0821208DB1208B81207CF8005C333CEE3
:1013D00033CED8F912081ED082D0831208C4E0B4EC
:1013E00010D1E490619CF090619BE0FFA3E0FEC30C
:1013F0009F502CEE1208AC1207BCC083C082E0FCE8
:10140000A3E0FDEE1208B81207CF8005C333CE3338
:0F141000CED8F91208A4D082D0831208C480C8A5
:01141F0022AA
:1014F60090600012080C906002E0FE70241208331F
:101506004057E4F0A3F0906003E004F0E0FF940C91
:1015160040449060027401F0E4906000F0A3F08013
:1015260035EEB40110C3906001E094C812083A4049
:101536002812086B22906002E0B4021D12083340A4
:1015460018E4F0A3F0906003E0D394004003E014A5
:09155600F0906003E0FF120ED2D8
:01155F002269
:1015CA0090600412080C906006E0FB701D1208740B
:1015DA004053E4F0A3F0906007E004F0E0FF9410B9
:1015EA0040409060067401F08038EBB40113C39058
:1015FA006005E09490906004E09401402812086B22
:10160A0022906006E0B4021D1208744018E4F0A3A8
:10161A00F0906007E0D394004003E014F090600774
:05162A00E0FF1213AB0C
:01162F002298
:1010B90090600812080C90600AE0FA702712088202
:1010C9004044E4F0A3F012111012112A40FB906081
:1010D9000BE004F0E0C3940A402C7409F090600A14
:1010E9007401F022EA6401701D1208824018E4F0CC
:1010F900A3F090600BE0D394004003E014F01211C8
:061109001012112A40FB48
:10110F002290600BE0FDE4FF120C6590600BE0FD98
:10111F007F01120C65E490619BF02290619BE0FFD0
:10112F0090600BE0FD120E0B90619BE004F0E0C3AA
:03113F00940622F1
:1016300090600C12080C90600EE0FE701E120841C3
:101640004051E4F0A3F090600FE094055005E004F1
:10165000F0803890600E7401F08030EEB40110C359
:1016600090600DE09490120848402812086B229078
:10167000600EE0B4021D1208414018E4F0A3F0909F
:10168000600FE0D394004003E014F090600FE0FF9F
:031690001219E646
:011693002234
:101FA900906010E0B401089060AB12080CD20522D1
:1011C2009060107401F0121D027F01121FC8121EDE
:1011D2001D121E3D90618F1207DE90618F120890E2
:1011E2001207D9A31208167F01122025121EE2123D
:1011F2000813906198E04408F0906010E0603F7539
:10120200D9AA3005F4C2051214F61215CA1210B981
:10121200121630C39060ACE094A09060ABE0940FE3
:101222004017E4906010F0FF120ED2121FC8122075
:0F12320025121EE27F101213AB121E7880BB2212
:101F8500C39060AEE094FF9060ADE094FF50031203
:031F9500080C2213
:10142000C39060AEE094DB9060ADE09401405CE47A
:10143000F0A3F0906186E06018906189E013A3E06A
:101440001330E006E054FDF0800790618AE044022A
:10145000F0906187E0601690618DE01313543F3087
:10146000E00512082A800690618D1207FA906188C3
:10147000E0601890618DE0C4131313540130E0054F
:0C148000E0547FF02290618D1207DE2204
:1005F4005361340A0000000003324100000000008F
:0E06040001FF2062000045614701010203046E
:101E5B007B64FA90617AF9F81202910201D8EC7561
:0D1E6B00F005A42447F582E43461F58322DC
:0D20320078C0E24420F278C3E254F3F222B9
:092062002085037F01227FFF228B
:101A2B00E4FEFCFBEDB401030B8016EDB403047B69
:101A3B0002800EEDB404047B038006EDB405027B3B
:101A4B0004ECC39401501B121E69E0B50711121E62
:101A5B0069E5822BF582E43583F583E0FE80030C88
:041A6B0080DFAF0663
:011A6F002254
:10156000906145E06063E0FFA3E0FD121A2BE49078
:101570006145F0A3F0EF24FE603004704C90617E72
:10158000E0600BE4F0121E5BE490619F80169061B6
:101590007E7401F0E47BE87A03906176121E61901C
:1015A000619F7401F012183A801C90617EE07019FE
:1015B00090617A1202B500000000E4121E5BE49014
:0915C000619FF012183A121E940A
:0115C90022FF
:100FA5000219A1E493A3F8E493A34003F68001F2A8
:100FB50008DFF48029E493A3F85407240CC8C3334D
:100FC500C4540F4420C8834004F456800146F6DF1C
:100FD500E4800B01020408102040809003EEE47EBB
:100FE500019360BCA3FF543F30E509541FFEE49311
:100FF500A360010ECF54C025E060A840B8E493A3D8
:10100500FAE493A3F8E493A3C8C582C8CAC583CA02
:10101500F0A3C8C582C8CAC583CADFE9DEE780BEBA
:0106120000E7
:10004500BB010689828A83E0225002E722BBFE02B9
:09005500E32289828A83E49322EC
:10005E00BB010CE58229F582E5833AF583E0225057
:10006E0006E92582F8E622BBFE06E92582F8E222A1
:0D007E00E58229F582E5833AF583E49322BB
:10008B00BB010FF8E58229F582E5833AF583E02879
:10009B00F0225009C58229F8E58226F622BBFE091B
:1000AB00C58229F8E22582F222F8EA2583F583E955
:0300BB0093282265
:1000BE00BB010689828A83F0225002F722BBFE0121
:0200CE00F3221B
:1000D000F8BB010DE58229F582E5833AF583E8F066
:1000E000225006E92582C8F622BBFE05E92582C812
:0200F000F222FA
:1000F200C5F0F8A3E028F0C5F0F8E5821582700299
:060102001583E038F02235
:10010800BB0110E58229F582E5833AF583E0F5F035
:10011800A3E0225009E92582F886F008E622BBFE12
:100128000AE92582F8E2F5F008E222E5832AF58358
:08013800E993F5F0A3E993221D
:0D014000EF2BFFEE3AFEED39FDEC38FC220E
:10014D00E88FF0A4CC8BF0A42CFCE98EF0A42CFC51
:10015D008AF0EDA42CFCEA8EF0A4CDA8F08BF0A4CF
:10016D002DCC3825F0FDE98FF0A42CCD35F0FCEB2E
:10017D008EF0A4FEA9F0EB8FF0A4CFC5F02ECD39F3
:0F018D00FEE43CFCEAA42DCE35F0FDE43CFC2260
:10019C0075F008758200EF2FFFEE33FECD33CDCC1A
:1001AC0033CCC58233C5829BED9AEC99E58298409D
:1001BC000CF582EE9BFEED9AFDEC99FC0FD5F0D67A
:1001CC00E4CEFBE4CDFAE4CCF9A88222B800C1B9A4
:1001DC000059BA002DEC8BF084CFCECDFCE5F0CBE2
:1001EC00F97818EF2FFFEE33FEED33FDEC33FCEB1B
:1001FC0033FB10D703994004EB99FB0FD8E5E4F9D6
:10020C00FA227818EF2FFFEE33FEED33FDEC33FCC2
:10021C00C933C910D7059BE99A4007EC9BFCE99AB6
:10022C00F90FD8E0E4C9FAE4CCFB2275F010EF2FFB
:10023C00FFEE33FEED33FDCC33CCC833C810D707FB
:10024C009BEC9AE899400AED9BFDEC9AFCE899F836
:0E025C000FD5F0DAE4CDFBE4CCFAE4C8F922C9
:10026A00EB9FF5F0EA9E42F0E99D42F0EC6480C80B
:06027A0064809845F022AB
:10028000EB9FF5F0EA9E42F0E99D42F0E89C45F0D4
:01029000224B
:0C029100E0FCA3E0FDA3E0FEA3E0FF22E0
:0C029D00E0F8A3E0F9A3E0FAA3E0FB22E4
:0C02A900ECF0A3EDF0A3EEF0A3EFF022C8
:1002B500A8828583F0D083D0821202CC1202CC12A0
:1002C50002CC1202CCE473E493A3C583C5F0C583C5
:1002D500C8C582C8F0A3C583C5F0C583C8C582C893
:0102E50022F6
:0C02E600A42582F582E5F03583F5832223
:0902F200E0FBA3E0FAA3E0F9220D
:1002FB00F8E0FBA3A3E0F925F0F0E582158270028C
:07030B001583E0FA38F0222F
:09031200EBF0A3EAF0A3E9F022EC
:10031B00BB010DE58229F582E5833AF5830202F2F2
:10032B005007E92582F80203D0BBFE07E92582F8C6
:10033B000203D9E58229F582E5833AF5830203E2CC
:10034B00D083D082F8E4937012740193700DA3A341
:10035B0093F8740193F5828883E473740293686055
:06036B00EFA3A3A380DF55
:060371008A838982E47317
:10037700EC8EF0A4CCC5F0CCCDF8EFA4CEC5F02D13
:10038700FDE43CFCE8A42EC8C5F03DFDE43CFCEFD1
:0D039700A4FFE5F028FEE43DFDE43CFC225F
:1003A400EF4E6012EF60010EEDBB010B89828A8370
:1003B400F0A3DFFCDEFA2289F05007F709DFFCA97D
:0C03C400F022BBFEFCF309DFFCA9F022D4
:0903D000E6FB08E6FA08E6F92252
:0903D900E2FB08E2FA08E2F92255
:0C03E200E493FB740193FA740293F92277
:00000001FF
