:0300000002152DB9
:10152D00787FE4F6D8FD9060007F007E07E4F0A39D
:0A153D00DFFCDEFA75812102158241
:0C000300000000000000000000000000F1
:0B261C00EF1FAC0670011E4C70F62290
:10002700AB07AA06EB1BAE0270011A4E600C7FAA43
:0B0037007E0512261C75D9AA80EA2263
:10108100907120E04480F07F057E0012261CE4FF71
:10109100FE12002775A75575AC5C9071327450F043
:1010A1009071307403F0907136742FF090715C740C
:1010B10003F090715BE054FCF07F18EF2466FDE4CF
:1010C10034718D82F583E4F00FEFB433EE9040116B
:1010D100E4935407FF90711CE054F84FF0904017CF
:1010E100E493547FFF90711DE054804FF0904010C5
:1010F100E493FF5401C43333335480FE907123E0F1
:10110100547F4EF0EFC313543F4440FFA3E054809B
:101111004FF0904012E493FF540FFE907146E0545B
:10112100F04EF0EFC4540FFF90714FE054F04FF0C8
:10113100904013E493543FFF907140E054C04FF04E
:10114100904014E493907126F0904015E4939071CF
:0B11510028F0904016E49390712AF003
:01115C002270
:101F9100E5B154CF42B153A8BFD2AF75D102789CFD
:101FA100E254E3F2E2441CF2E254FCF2E24401F2B4
:101FB10008E2547FF2E24420F278A17401F218742D
:101FC10076F2789CE2541FF2E244C0F243A8402228
:030021000215C7FE
:1015C700C0E0C0F0C083C082C0D075D000C000C0EA
:1015D70001C002C003C004C005C006C007789DE271
:1015E70030E756E24480F29061FEE0FEA3E0FFE4BC
:1015F700FCFD7BFF7AFFF9F8D31202CD400A906118
:10160700FEE475F0011201479061A7E0C394FF5013
:1016170003E004F01224C01224D7906200E475F0AE
:10162700011201471224EE12204D1224A91225C3DC
:101637001222B112251B122560D007D006D005D083
:1016470004D003D002D001D000D0D0D082D083D034
:04165700F0D0E032BD
:1021D400E5B254FC42B253A9FED2AF75D10490715A
:1021E400057409F0907104745FF0907101E0547FFC
:1021F400F0E04420F0907100E0E4F0E044C1F043EA
:03220400A901220B
:03002400021D6456
:101D6400C0E0C0F0C083C082C0D075D000C000C045
:101D740001C002C003C004C005C006C007907101C1
:101D8400E030E70AE04480F0121C20121BC1D007A7
:101D9400D006D005D004D003D002D001D000D0D0DA
:091DA400D082D083D0F0D0E032EF
:0E258E00906177EFF012263B906177E0FF221C
:1024130078C2E254FCF2E24401F290717EE044049B
:0B242300F075D60175D59F75D2102210
:08263B00E5D430E4FB8FD72247
:0407B6004162080094
:10250500907123E054D8F0E04459F0227869E24410
:0625150001F290620822B1
:10228B0078C3E24403F218E2440CF2786AE2447930
:10229B00F27591FF9071227407F0439E7043994041
:0622AB0043AA04D2AF2299
:102360005399E0EF24FE600B04700E12250543998B
:102370000480061225054399017869E24448F22257
:10204D00906208E014601914601D14602614600479
:10205D00240470257F011223609062087401F02220
:10206D001225117402F0227F02122360906208740F
:0A207D0003F0221225117404F02272
:030042000216E4BF
:1016E400C0E0C0F0C083C082C0D075D000C000C0CC
:0D16F40001C002C003C004C005C006C0074D
:10170100786BE230E142E24402F2AF93EF75F01000
:10171100A4FFE594C4540FFDEF4DFF906178E5F00F
:10172100F0A3EFF0906208E024FC6011240270182D
:10173100906178E0FEA3E0FF122238800B9061787F
:08174100E0FEA3E0FF12233FCC
:10174900D007D006D005D004D003D002D001D000F4
:0B175900D0D0D082D083D0F0D0E0329E
:10231E00906147F090620302035590000612005E32
:10232E00FE90000802005E9000091200D090000C92
:01233E00227C
:100A0B00E4906147F07FFFA374FFF0906203120341
:100A1B007590000112005EFE120045FDEEC39D5065
:100A2B0003020B9D122322900001E41200D09000D0
:100A3B000E12037E1203D4EFF4600890620274234B
:100A4B00F08009906202E06003E014F01223229020
:100A5B00000312005E6F601590000512005E600DC2
:100A6B00900004E41200D0900003020B9990000553
:100A7B0012005EFE90000412005EC39E500B122308
:100A8B0022900004740102008B12232290000212A8
:100A9B00005E6F6048EFF4701C122328C39E400A5F
:100AAB00740512231E900002806112232290000A0B
:100ABB007401020B90122322900008740112233848
:100ACB0012005E6F906203600C12035574011223C7
:100ADB0035EF020B90120355900009803DEFF47037
:100AEB004112232290000912005ED394005003029E
:100AFB000B9390000B12005EFE90000A12005ED367
:100B0B009E4011740112231E90000C12005E906126
:100B1B0048F0805412232290000A740112008B02B9
:100B2B000B9312232212232FC394FF50089000081B
:100B3B00740112008B122328B506089061477403C9
:100B4B00F0802012232290000712232B6E70399015
:100B5B006147740412232190000612005E90000876
:100B6B001200D0906148EFF0122322E41223357467
:100B7B00FF1200D0906148E09000111200D09061FC
:100B8B0047E09000121200D0122322900002EF12C5
:020B9B0000D088
:010B9D002235
:10252E0075AF3F8FAF75AEB975A402E5A530E1FB6F
:01253E00227A
:1021320090615212037575AF3F8FAF906155E0C346
:1021420094014022E5A530E0FB906152E475F00174
:1021520012035E120045F5A675AEB975A401906131
:0721620055E014F080D522C6
:1021A000906152120375906155E06027AE070FEE03
:1021B0002400FDE4343F8D82F583E493FE90615268
:1021C000E475F00112035EEE1200BE906155E0145A
:0421D000F080D322A6
:0507BA004261F60000A1
:072643007B017A6179E622B8
:1024A900C39061F7E094FF9061F6E094FF5007E470
:0724B90075F001120147223A
:1022D600E4FDFCEE30E703D38001C392A5D296EF6E
:1022E60025E0FFEE33FEC2960DBD00010CED641035
:0322F6004C70E049
:0122F90022C2
:0B1DF40090614712037590614AEDF00A
:101DFF00C296C2A4E4A3F090614AE0FFA3E0FEC341
:101E0F009F502190614712035575F002EEA4F582A1
:101E1F0085F08312015DFFAEF01222D690614BE088
:0A1E2F0004F080D3D2A4C2A4C2A51F
:011E39002286
:1023DB00C39061F7E094329061F6E09400400CE416
:0C23EB00F0A3F01226437D08121DF4221E
:101E80007E007F107D0012264312040778D3E254AF
:101E9000CFF2E24410F290718CE4F078E3E254F374
:101EA000F2E24404F2907193E4F0E254FCF2E24472
:101EB00001F2907192E4F0C2A5C296C2A412264328
:051EC0007D08021DF485
:0B2627007379732072657365740A00FC
:10000F0078E2E254F3F2E24404F290718FE4F0C22A
:02001F00A1221C
:1022070012000F1224137BFF7A2679271204BC12BF
:10221700259C1225F71225B61225D012228B121DE6
:10222700AD121E80121F911221D47F017E00020081
:01223700277F
:101F4F0012108175D95590715EE054FEF075D9BBB2
:101F5F0012220775D9AA1225A97B017A6179A612D7
:101F6F000A0B121A8D120F9F120CDA120DD11217C3
:101F7F00E31218611212311219B912194D1223DB23
:021F8F0080D1FF
:0D259C0078E0E24401F278E2E254FCF22221
:0D25A90020A0047F018002E4FF12246022C4
:1022FA007363616E206F7665722074696D650A007A
:10230A0073706565645F6F665F6C6167203D3D2031
:04231A0025750A001B
:1007BF00C10A44610D0000000044611100000000F7
:1007CF004461150000000044611900000000416100
:1007DF001D006028611E00000000000000000000E6
:1007EF0000000000000000000000000000000000FA
:1007FF000000000000000000000000000000416148
:10080F004600C109426108000041610A0041610BC5
:01081F0000D8
:1021690090614AE0FF241EF582E43461F58322126E
:1021790002F4EF2401FFE43EFEE43DFDE43CFC22D1
:10218900E4FDFC120300C30202E3E4FEFDFC0203CA
:072199000012030002019592
:0F255000E4FE741E2E122170EFF00EEEB428F38D
:01255F002259
:10247900906146E012216EEFF0906146E004F0E0D1
:08248900C394284002E4F02294
:1014830090614B12031800000000E490614FF0A339
:1014930074FFF0E490614AF090614B120300906195
:1014A3004AE012216EE0FFE4FCFDFE12019590611B
:1014B3004B12030C122169E0FE90614FE0C39E5072
:1014C3000B741E2F122170E090614FF0122169E01E
:1014D300FE906150E0D39E400B741E2F122170E0EA
:1014E300906150F090614AE004F0E0642870A990A4
:1014F300614B1202F4C006C007906150E0FF906197
:101503004FE02FFFE433AB07FA3395E0F9F8D00748
:10151300D0061201A290614B12030CE47B26FAF968
:0A152300F890614B1202F402023B43
:0D25B60078D3E254F3F278D0E24420F22210
:1020C1009061151202F490611112219A906115121A
:1020D100030C9061111203180000000090611912A5
:1020E10002F490610D12219A90611912030C906112
:0920F1000D12031800000000228A
:101BC100906108E475F001120147C3906109E09446
:101BD10014906108E09400402BE4F0A3F0906111AF
:101BE10012217890611112030C7F587E02906111CD
:101BF100122189400F200A0C906111120318000074
:101C01000000D20A30951520090F90610D1221783C
:0E1C110090610D12030C1220C1D20922C209EB
:011C1F0022A2
:100F9F009061471203180000000090614B12031874
:100FAF00000000007FF47E01906115122189500628
:100FBF00200A03021080E47F2E7E04FDFC9061194D
:100FCF001203001201B0E47B03FAF9F812023B900E
:100FDF00614B12030C300A2B7BFF7A2279FA120431
:100FEF00BCE4FFFEFDFC90611912218C90614760FB
:100FFF000912031800000001802C120318000000D2
:10100F000080237F2490614B1221931201B0E47B67
:10101F000AFAF9F812023B90611512030012023B13
:10102F0090614712030C9061FA1202F490614B1217
:10103F00219A9061FA12030C9061191203180000A3
:10104F00000090611512031800000000C20A7FC74C
:10105F00906147122193D31202E3400A9061471225
:10106F000318000000C79061471202F49061E1EF8E
:01107F00F080
:01108000224D
:0D25C30090611DE0C394FF5003E004F0227E
:100CDA00E4906148F0A3F090610AE0702A04F09071
:100CEA0061E1E090610BF09061E1E0906148F09081
:100CFA0061E1E090610CF090610BE0FF120EB99097
:100D0A0061E1E0FF12255090611DE0C3944B50034E
:100D1A00020DD0E4F09061E1E0FF1224791214830D
:100D2A00906147EFF0E0C3940A5007E090610CF03D
:100D3A00802590610CE075F003A4FDACF09061474A
:100D4A00E075F007A42DFFE5F03CFE7C007D0A1259
:100D5A0000F290610CEFF090610CE0906147F0E0D6
:100D6A00FF90610BE0FED39F4019906147E0FFEED0
:100D7A009FC3940A90610BE0400524F6F080291481
:100D8A00F08025906147E0FFEEC39F501B90610BF6
:100D9A00E0FF906147E0C39FC3940A90610BE04073
:100DAA0005240AF0800204F07BFF7A23790A906115
:100DBA000BE0FF906152E4F0A3EFF01204BC9061E3
:060DCA000BE0FF120EB960
:010DD0002200
:100820004261CF00004261D10000C10B4161BE00B6
:080830004161BF004161C000FD
:0D25DD009061CB020300E475F0010201479C
:0D25D00078C2E254CFF278C0E24404F22257
:101FD1009061C71202F49061C11203001201959041
:101FE10061C712030C9061C11203180000000012B6
:101FF10025DD9061C5E0FEA3E0FFE4FCFD12019543
:0E2001009061CB12030CE49061C5F0A3F022B5
:101C20009061BEE004F0E0C394144020E4F09061C1
:101C3000C51225E4C39061C6E094589061C5E09454
:101C4000024009200C06E4F0A3F0D20C30822220DE
:101C50000B1C9061C11202F4EF2401FFE43EFEE48C
:101C60003DFDE43CFC9061C112030C121FD1D20B6C
:031C700022C20B82
:011C7300224E
:1017E300E47FF47E01FDFC1225DDC31202E3500306
:1017F300300C6A300C0EC20C9061471203180000C3
:101803000000801CE47F607EEAFDFC9061C7120348
:10181300001201B01225DD12023B90614712030C46
:101823009061C7120318000000009061CB120318E7
:1018330000000000E47FFF7EFFFDFC906147120380
:1018430000C31202E3400A9061471203180000FF2D
:0D185300FF9061471202F49061DD12030C5A
:011860002265
:1022B100C39061D0E094FF9061CFE094FF5003128E
:1022C10025E3C39061D2E094FF9061D1E094FF5087
:0522D100031225E322C9
:10242E00E47BE87A03F9F89061DD1202F412023BC4
:08243E00EFD3940C40027F0C67
:012446002273
:10186100E4906147F09061C0E0700A04F012242E08
:101871009061BFEFF0C39061D0E094C89061CFE078
:1018810094004052E4F0A3F012242E906147EFF04F
:101891009061BFE0FEC39F5005E004F080169061A7
:1018A10047E0FFEED39F400C9061BFE0D39400402E
:1018B10003E014F09061BFE0C3940840089061E335
:1018C1007401F08009E49061E3F0FF12257F9061DB
:0618D100BFE0FF1213CA84
:0118D70022EE
:080838004161F9004161F80083
:102491001202F4EF2401FFE43EFEE43DFDE43CFCC6
:0824A10022120300C30202E352
:100DD100C39061FFE094E89061FEE09403400F301E
:100DE1000D0C1223F7C20DE49061FEF0A3F0E47F35
:100DF100E87E03FDFC9061FA1224A240657F187E13
:100E0100C67D9A7C3B9061D31224A2500C9061D391
:100E11001224919061D312030C7F9C7EE07DF57CBE
:100E2100059061D71224A2500C9061D712249190A1
:100E310061D712030C9061FA1202F4C3EF94E8FF38
:100E4100EE9403FEED9400FDEC9400FC9061FA1227
:020E5100030C90
:100E53009061F8E004F0E0C3940A4004E4F0D20D9A
:100E63009061F9E0600FC3906201E094E890620042
:100E7300E094034040E4906200F0A3F09061F90431
:100E8300F09061DBE06017E47BE87A03F9F89061A6
:100E9300D31202F412023B90614B74018013E47B82
:100EA30064FAF9F89061D71202F412023BE49061FC
:050EB3004BF0121D18B8
:010EB8002217
:100840004260B200004260B40000602860B6000060
:100850000000000000000000000000000000000098
:100860000000000000000000000000000000000088
:100870000000000000004160DE004160AF00602821
:1008800060DF000000000000000000000000000029
:100890000000000000000000000000000000000058
:1008A00000000000000000000000416107004160FE
:0608B000B0004160B10040
:1020870025E024B6F582E43460F583EEF0A3EFF0A3
:102097002225E024DFF582E4346022F583E0FEA305
:1020A700E0FFE4FCFD020195906147E0FEA3E0FF3D
:0A20B70022E47B14FAF9F80202F4A7
:0B260400E4FDED1220870DEDB414F78B
:01260F0022A8
:10233F009060AFE0700504F00226049060DEE012BA
:10234F0020879060DEE004F0E0C394144002E4F0D4
:01235F00225B
:10200F0090614B12031800000000E490614AF090B9
:10201F00614B12030090614AE025E024B6F582E49B
:10202F0034601220A290614B12030C90614AE004BD
:0E203F00F0E0B414DA90614B1220B802023BBC
:1024C000C39060B3E094FF9060B2E094FF5007E4E3
:0724D00075F0011201472223
:1024D700C39060B5E094FF9060B4E094FF5007E4C8
:0724E70075F001120147220C
:0E257000E4FDED1220981220900DEDB414F44D
:01257E00223A
:10244700906107E0122098122090906107E004F055
:09245700E0C394144002E4F022F9
:1020FA0090614B12031800000000E490614AF090CE
:10210A00614B12030090614AE01220981220A290BB
:10211A00614B12030C90614AE004F0E0B414E090C1
:08212A00614B1220B802023BD8
:101E3A00E4FDC3EF94AAEE940540028036C3EF9402
:101E4A00B4EE940440047D018029C3EF94BEEE945D
:101E5A000340047D02801CC3EF94C8EE9402400440
:101E6A007D03800FC3EF94D2EE940140047D048079
:051E7A00027D05AF052B
:011E7F002240
:10123100E4906149F0C39060B3E094C89060B2E07B
:10124100940050030212E9E4F0A3F012200F7C078E
:101251007DD01203DAE4FB7A10F9F812023B9061B7
:1012610047EEF0A3EFF09060B0E0702704F0122099
:10127100AF1225701220AF121E3AA3EFF09060B1A9
:10128100F0700B9061E5E070101212F8800B1212F1
:10129100EA80061220AF122447C39060B5E094881B
:1012A1009060B4E094134040E4F0A3F01220FA12ED
:1012B1001E3A906149EFF09060B1E0FEC39F500586
:1012C100E004F08010906149E0FFEED39F4006906A
:1012D10060B1E014F09060B1E0700A9061E5E070F7
:0812E100071212F8221212EAB2
:1012E90022E49061E5F09060B1E0FF121EC522FF93
:0A12F900121EC59061E57401F02299
:1008B6006028617D000000000000000000000000CC
:1008C6000000000000000000000000000000000022
:1008D6000000000000000000000000004161A500CB
:0408E60041617A00F2
:0C26100025E0247DF582E43461F583228E
:10253F00E4FDED122610EEF0A3EFF00DEDB414F262
:01254F002269
:1022380090617AE0700A12253F90617A7401F02269
:102248009061A5E0122610EEF0A3EFF09061A5E0F2
:0A22580004F0E0C394144002E4F027
:012262002259
:101C740090614A12031800000000E4906149F0905A
:101C8400614A120300906149E0122610E0FEA3E0CD
:101C9400FFE4FCFD12019590614A12030C90614926
:101CA400E004F0E0B414D890614A1202F4E47B1426
:101CB400FAF9F812023B90614A12030C90614A024D
:021CC40002F428
:1024EE00C390617CE094FF90617BE094FF5007E421
:0724FE0075F00112014722F5
:1019B900C390617CE094C890617BE09400405AE454
:1019C900F0A3F0121C74E4FCFD7B607A617902F8E3
:1019D9001201B0E47B0AFAF9F812023BE4FB7A102F
:1019E900F9F812023BEF2464FFE43EFE906147F0F0
:1019F900A3EFF0C3943CEE94284009E49061E4F02D
:101A0900FF0225EAC3906148E09410906147E09491
:091A19002750069061E47401F00D
:011A220022A1
:1008EA005361D30000000000000000000000000077
:0608FA00000000000000F8
:101DAD007B017A617947906155740AF0E4FF122145
:101DBD00A0906150E0B4C5219061471202F490618A
:101DCD00D312030C90614B1202F49061D712030CE5
:101DDD0090614FE09061DBF0229061DB7401F0A324
:061DED0074C5F01223F79B
:011DF30022CD
:1023F7009061DC74C5F0E4FF12252E7B017A6179C8
:0C240700D3906155740AF0E4FF0221320A
:100900004A60113F065B4F666D7D077F6F605460E4
:100910001B030D030C020D03080309030B030A0359
:1009200000030203050307030603030304040E0484
:100930000C04090408040A040D040B0401050F0447
:10094000040406040704000402050B050A0403045A
:1009500005050D050E050C05030502050405070533
:1009600009050605055C606F070F070E0701070202
:100970000700070D070C06020601060F0207060E08
:100980000600060D6020608B0707070607050704B1
:1009900007080709070A070B0603060406050606EB
:1009A000060706080609060A416010004260AB000F
:1009B00000C10E4260AD00004260000000416002D4
:1009C0000041600300426004000041600600416095
:1009D0000700426008000041600A0041600B0042CD
:0C09E000600C000041600E0041600F0040
:100B9E00E0FE75F00EA4246FF582E43460F58375E3
:100BAE00F002EF120349E025E024E6F582E4346119
:100BBE00F5832275F002120349E0FF7E007401A84E
:100BCE00070822E04402F0A3E04480F0A3E0F02204
:100BDE00E0FCA3E0FDEE75F00EA42470F582E43483
:100BEE0060F58322E04404F0A3E0F09061EAE04473
:100BFE0008F0A3E0F022E475F0010201479061EAEB
:100C0E00E04401F0A3E0F022F4FFEEF45CFEED5FB1
:100C1E00FF22AD07E054FBF0E054F7F022C39060E2
:100C2E0001E09496906000E0940022C390600DE085
:100C3E00942C90600CE0940122EFF074112DF5824B
:100C4E00E43460F583E02275F00EA4241CF582E4F2
:100C5E003460F58322E4F0A3F0A37402F022C39073
:100C6E006005E09464906004E0940022C3906009F3
:100C7E00E094C8906008E0940022E04440F0A3E0C5
:100C8E00F02275F00EA4241BF582E4346022FFECF2
:100C9E004EFEED4FFF2225E0248BF582E43460F505
:100CAE00832225E0248CF582E43460F58322EEF075
:100CBE00A3EFF090620AE004F022E0547FF0E054DB
:0C0CCE00BFF0A3E022E0FCA3E0FDEF2259
:102263009061E6120BD69061E9E04401F0E044107E
:10227300F09061E8120C0E9061E8E04410F0A3E0E6
:08228300F09061E8120BD62275
:0F257F009061E7E054FDF0EF6004E04402F022C9
:1013CA009061E9120C20E054DFF0E054BFF0E054E1
:1013DA007FF09061E8E054FDF0120C22E054DFF057
:1013EA00E054BFF09061E6E054FEF0E054FDF0ED09
:1013FA001203AE147B01147402146D0314660414F0
:10140A005F05145506144B07144508143B09143597
:10141A000A142F0B14250C000014829061E6E04494
:10142A0002F0A3E0F09061E6120C0E9061E8120C53
:10143A00889061E8E04420F0A3E0F09061E8120BA4
:10144A00FC9061E8E04404F0A3E0F09061E8E04435
:10145A0002F0A3E0F09061E9E04480F09061E9E0F5
:10146A004440F09061E9E04420F09061E9E04408EA
:09147A00F09061E9E04404F02265
:0D25EA009061EA120C20ED6003120BF2224A
:10246000AD079061EBE054EFF0E054DFF0ED600871
:09247000E04410F0E04420F022E9
:101EC500AD079061EA120CC854FEF0E054FDF0E055
:101ED50054FBF0ED14602714601E14601414600A9E
:101EE5001470219061EBE04404F09061EBE0440252
:101EF500F09061EBE04401F09061EA120C8890618A
:051F0500EA120BD622D8
:10238000E49061F0F0A3E05401F0E49061F0F0A378
:10239000E05402F0EF6008E04401F0E04402F02273
:03130300906151A5
:10130600120C47906153F0E4906152F0906152E004
:10131600FFC3940740030213C9906151E0FE120C0B
:1013260090120BABC083C082E0FCA3E0FDEE120C72
:1013360055C083C082906152E0FBD082D083120BED
:10134600C18005C333CE33CED8F9120C16D082D065
:1013560083EEF0A3EFF07E007401A803088005C3B6
:1013660033CE33CED8F9FF906153E0FDEF5D604A8E
:10137600906151E0FF120C90F583C083C0829061AA
:1013860052E0D082D08375F002120BB1C083C082C6
:10139600120CD3120C55C083C082906152E0D082E9
:1013A600D083120BC18005C333CE33CED8F9120CCD
:1013B6009CD082D083EEF0A3EFF0906152E004F06F
:0313C600021312FD
:0113C9002201
:061CC60090614C12030CBA
:101CCC00E4906150F0906150E0FFC39406503CC327
:101CDC0074059FFFC007E47B0AFAF9F890614C1277
:101CEC0002F412023BAF03AD07D00712130390614D
:101CFC004C1202F4E47B0AFAF9F812023B90614CA4
:0B1D0C0012030C906150E004F080BA5C
:011D170022A9
:101D180090614712030C9061EC120CC854FDF0A3BB
:101D2800E0547FF09061F0E054FEF07F01122380D0
:101D38009061471202F4121CC690614BE0600E904D
:101D480061EC120BD69061ECE04440800A9061EDA2
:0C1D5800120BD1A3E04401F0A3E0F02244
:1023A000AD079061F2E054F7F0E054EFF0ED600D0E
:0E23B000120BFC9061F2E04410F0A3E0F0226A
:03115D0090614F4F
:10116000120C47906151F0E4906150F0906150E0B2
:10117000FFC39407503A90614F120B9EC083C08208
:10118000120BDEC083C082906150E0D082D0831207
:101190000BC18005C333CE33CED8F9120C16D082E2
:1011A000D083EEF0A3EFF0906150E004F002116CF8
:1011B000E4906150F0906150E0FFC39407507112C9
:1011C0000BC98005C333CE33CED8F9FF906151E00F
:1011D000FDEF5D605290614FE0FF75F00EA4246F4B
:1011E000F582E43460F583C083C082906150E0D022
:1011F00082D08375F002120BB1C083C082120CD36F
:10120000120BE4C083C082906150E0D082D0831280
:101210000BC18005C333CE33CED8F9120C9CD082DB
:10122000D083EEF0A3EFF0906150E004F00211B52E
:01123000229B
:050EB90090614AEFF01A
:100EBE00E490614DF0A3F09061EAE054FEF0906191
:100ECE00F5E054F7F07F011223A0E490614BF0E4BB
:100EDE0090614CF090614CE0FFC39407503A9061E2
:100EEE004B120B9EC083C082120BDEC083C0829059
:100EFE00614CE0D082D083120BC18005C333CE3358
:100F0E00CED8F9120C16D082D083EEF0A3EFF0906B
:100F1E00614CE004F0020EE290614BE004F0E064FC
:100F2E000270AC90614AE090614EF090614DE00429
:100F3E00F0A3E075F00A84F070F190614AE0C3947A
:100F4E0064400A120C0B9061F5E04408F0E49061E5
:100F5E004BF090614BE0FFC39402503490614DE032
:100F6E00B40105EF6401602090614BE0FFC3740192
:100F7E009FFF90614AE075F00A84ADF012115D900A
:100F8E00614AE075F00A84F090614BE004F080C293
:010F9E002230
:0518D800906209EFF031
:1018DD00E4A3F090620AE0FF120CA4120BB4C083D3
:1018ED00C082120CD3120CB0120BC78005C333CEBD
:1018FD0033CED8F9120C16D082D083120CBCE0B4C2
:10190D0010D1E490620AF0906209E0FFA3E0FEC3FB
:10191D009F502CEE120CA4120BB4C083C082E0FCBD
:10192D00A3E0FDEE120CB0120BC78005C333CE330E
:0F193D00CED8F9120C9CD082D083120CBC80C87B
:01194C002278
:101A2300906000120C04906002E0FE7024120C2BF4
:101A33004057E4F0A3F0906003E004F0E0FF940C5F
:101A430040449060027401F0E4906000F0A3F080E1
:101A530035EEB40110C3906001E094C8120C32401B
:101A630028120C6322906002E0B4021D120C2B407A
:101A730018E4F0A3F0906003E0D394004003E01473
:091A8300F0906003E0FF1213CAA9
:011A8C002237
:101AF700906004120C04906006E0FB701D120C6CE1
:101B07004053E4F0A3F0906007E004F0E0FF941086
:101B170040409060067401F08038EBB40113C39025
:101B27006005E09490906004E094014028120C63F3
:101B370022906006E0B4021D120C6C4018E4F0A37A
:101B4700F0906007E0D394004003E014F090600742
:051B5700E0FF1218D8A8
:011B5C002266
:10165B00906008120C0490600AE0FA7027120C7A62
:10166B004044E4F0A3F01216B21216CC40FB90608B
:10167B000BE004F0E0C3940A402C7409F090600A6C
:10168B007401F022EA6401701D120C7A4018E4F028
:10169B00A3F090600BE0D394004003E014F012161B
:0616AB00B21216CC40FB58
:1016B1002290600BE0FDE4FF12115D90600BE0FDF4
:1016C1007F0112115DE490620BF02290620BE0FF4A
:1016D10090600BE0FD12130390620BE004F0E0C395
:0316E1009406224A
:101B5D0090600C120C0490600EE0FE701E120C3999
:101B6D004051E4F0A3F090600FE094055005E004BF
:101B7D00F0803890600E7401F08030EEB40110C327
:101B8D0090600DE09490120C404028120C6322904E
:101B9D00600EE0B4021D120C394018E4F0A3F09071
:101BAD00600FE0D394004003E014F090600FE0FF6D
:031BBD00121EC530
:011BC0002202
:10256000906010E0B401089060AB120C04D20E220F
:101764009060107401F01222637F0112257F12230E
:10177400801223A09061EC120BD69061EC120C88BD
:10178400120BD1A3120C0E7F011225EA122460124F
:101794000C0B9061F5E04408F0906010E0603F7538
:1017A400D9AA300EF4C20E121A23121AF712165BBB
:1017B400121B5DC39060ACE094A09060ABE0940F0A
:1017C4004017E4906010F0FF1213CA12257F12250F
:0F17D400EA1224607F101218D81223DB80BB2288
:10251B00C39060AEE094FF9060ADE094FF50031267
:03252B000C04227B
:10194D00C39060AEE094DB9060ADE09401405CE448
:10195D00F0A3F09061E3E060189061E6E013A3E07E
:10196D001330E006E054FDF080079061E7E044029B
:10197D00F09061E4E060169061EAE01313543F309B
:10198D00E005120C2280069061EA120BF29061E5DF
:10199D00E060189061EAE0C4131313540130E005C0
:0C19AD00E0547FF0229061EA120BD62279
:1009EC005361A60A00000000033241000000000021
:0E09FC0001FF263200004561B901010203042B
:1023BE007B64FA9061D7F9F81202F402023BEC75D5
:0D23CE00F005A424B9F582E43461F5832202
:0D25F70078C0E24420F278C3E254F3F222EF
:092632002085037F01227FFF22B5
:101F0A00E4FEFCFBEDB401030B8016EDB403047B85
:101F1A0002800EEDB404047B038006EDB405027B57
:101F2A0004ECC39401501B1223CCE0B50711122311
:101F3A00CCE5822BF582E43583F583E0FE80030C41
:041F4A0080DFAF067F
:011F4E002270
:101A8D009061B7E06063E0FFA3E0FD121F0AE490F0
:101A9D0061B7F0A3F0EF24FE603004704C9061DB71
:101AAD00E0600BE4F01223BEE490614B8016906170
:101ABD00DB7401F0E47BE87A039061D31223C490C8
:101ACD00614B7401F0121D18801C9061DBE07019E0
:101ADD009061D712031800000000E41223BEE490B9
:091AED00614BF0121D181223F7E1
:011AF60022CD
:10154700021F4FE493A3F8E493A34003F68001F24C
:1015570008DFF48029E493A3F85407240CC8C333A5
:10156700C4540F4420C8834004F456800146F6DF74
:10157700E4800B01020408102040809007B6E47E47
:10158700019360BCA3FF543F30E509541FFEE49369
:10159700A360010ECF54C025E060A840B8E493A330
:1015A700FAE493A3F8E493A3C8C582C8CAC583CA5B
:1015B700F0A3C8C582C8CAC583CADFE9DEE780BE13
:010A0A0000EB
:10004500BB010689828A83E0225002E722BBFE02B9
:09005500E32289828A83E49322EC
:10005E00BB010CE58229F582E5833AF583E0225057
:10006E0006E92582F8E622BBFE06E92582F8E222A1
:0D007E00E58229F582E5833AF583E49322BB
:10008B00BB010FF8E58229F582E5833AF583E02879
:10009B00F0225009C58229F8E58226F622BBFE091B
:1000AB00C58229F8E22582F222F8EA2583F583E955
:0300BB0093282265
:1000BE00BB010689828A83F0225002F722BBFE0121
:0200CE00F3221B
:1000D000F8BB010DE58229F582E5833AF583E8F066
:1000E000225006E92582C8F622BBFE05E92582C812
:0200F000F222FA
:1000F200BC000BBE0029EF8DF084FFADF022E4CCF2
:10010200F875F008EF2FFFEE33FEEC33FCEE9DECBA
:10011200984005FCEE9DFE0FD5F0E9E4CEFD22ED00
:10012200F8F5F0EE8420D21CFEADF075F008EF2F4A
:10013200FFED33FD4007985006D5F0F222C398FD3B
:050142000FD5F0EA22D8
:10014700C5F0F8A3E028F0C5F0F8E5821582700243
:060157001583E038F022E0
:10015D00BB0110E58229F582E5833AF583E0F5F0E0
:10016D00A3E0225009E92582F886F008E622BBFEBD
:10017D000AE92582F8E2F5F008E222E5832AF58303
:08018D00E993F5F0A3E99322C8
:0D019500EF2BFFEE3AFEED39FDEC38FC22B9
:0E01A200C3EF9BFFEE9AFEED99FDEC98FC2258
:1001B000E88FF0A4CC8BF0A42CFCE98EF0A42CFCEE
:1001C0008AF0EDA42CFCEA8EF0A4CDA8F08BF0A46C
:1001D0002DCC3825F0FDE98FF0A42CCD35F0FCEBCB
:1001E0008EF0A4FEA9F0EB8FF0A4CFC5F02ECD3990
:0F01F000FEE43CFCEAA42DCE35F0FDE43CFC22FD
:1001FF0075F008758200EF2FFFEE33FECD33CDCCB7
:10020F0033CCC58233C5829BED9AEC99E582984039
:10021F000CF582EE9BFEED9AFDEC99FC0FD5F0D616
:10022F00E4CEFBE4CDFAE4CCF9A88222B800C1B940
:10023F000059BA002DEC8BF084CFCECDFCE5F0CB7E
:10024F00F97818EF2FFFEE33FEED33FDEC33FCEBB7
:10025F0033FB10D703994004EB99FB0FD8E5E4F972
:10026F00FA227818EF2FFFEE33FEED33FDEC33FC5F
:10027F00C933C910D7059BE99A4007EC9BFCE99A53
:10028F00F90FD8E0E4C9FAE4CCFB2275F010EF2F98
:10029F00FFEE33FEED33FDCC33CCC833C810D70798
:1002AF009BEC9AE899400AED9BFDEC9AFCE899F8D3
:0E02BF000FD5F0DAE4CDFBE4CCFAE4C8F92266
:1002CD00EB9FF5F0EA9E42F0E99D42F0EC6480C8A8
:0602DD0064809845F02248
:1002E300EB9FF5F0EA9E42F0E99D42F0E89C45F071
:0102F30022E8
:0C02F400E0FCA3E0FDA3E0FEA3E0FF227D
:0C030000E0F8A3E0F9A3E0FAA3E0FB2280
:0C030C00ECF0A3EDF0A3EEF0A3EFF02264
:10031800A8828583F0D083D08212032F12032F1274
:10032800032F12032FE473E493A3C583C5F0C58399
:10033800C8C582C8F0A3C583C5F0C583C8C582C82F
:010348002292
:0C034900A42582F582E5F03583F58322BF
:09035500E0FBA3E0FAA3E0F922A9
:10035E00F8E0FBA3A3E0F925F0F0E5821582700228
:07036E001583E0FA38F022CC
:09037500EBF0A3EAF0A3E9F02289
:10037E00BB010DE58229F582E5833AF5830203552B
:10038E005007E92582F8020433BBFE07E92582F8FF
:10039E0002043CE58229F582E5833AF583020445A1
:1003AE00D083D082F8E4937012740193700DA3A3DE
:1003BE0093F8740193F5828883E4737402936860F2
:0603CE00EFA3A3A380DFF2
:0603D4008A838982E473B4
:1003DA00EC8EF0A4CCC5F0CCCDF8EFA4CEC5F02DB0
:1003EA00FDE43CFCE8A42EC8C5F03DFDE43CFCEF6E
:0D03FA00A4FFE5F028FEE43DFDE43CFC22FC
:10045100E5082452F582E43461F583E00508229031
:10046100614F300703906152E475F00112035E029F
:1004710000452000E97F2ED2008018EF540F249010
:10048100D43440D4FF30040BEF24BFB41A0050031E
:100491002461FFE50960021509050CE50C700205F0
:1004A1000B30070E90614FE475F00112035EEF020D
:1004B10000BE02258E7403D2078003E4C207F5084B
:1004C10090614F120375E4F509F50BF50CE5096030
:1004D100077F2012049480F5750AFFC201C200C291
:1004E10002C203C205C206C208120460FF700D30C9
:1004F10007057F001204A5AF0CAE0B22B4255FC225
:10050100D5C204120460FF24D0B40A00501A75F059
:100511000A780930D50508B6FF0106C6A426F620DB
:10052100D5047002D20380D924CFB41A00EF50044D
:10053100C2E5D2040206A6D20180C6D20080C0D292
:100541000280BCD2D580BAD20580B47F2012049437
:100551002002077401B5090040F1120451FF120491
:10056100940204CED208D2068095120451FB1204E3
:1005710051FA120451F94A4B700679777A077BFFD9
:1005810020022EE509602A7E008E8275830012000A
:100591005E60060EEE650A70F0C2D5EBC0E0EAC0FF
:1005A100E0E9C0E0EE1206EDD0E0F9D0E0FAD0E0EB
:1005B100FB120045FF60AAEBC0E0EAC0E0E9C0E041
:1005C100120494D0E02401F9D0E03400FAD0E0FB29
:1005D100E50A0460DCD50AD980877BFF7A0679E9D0
:1005E100D202809C791080027908C206C208800874
:1005F100D2D5790A8004790AC2D5E50A047002F5D8
:100601000AE4FAFDFEFF120451FC7B0820011312DB
:100611000451FD7B1030000A120451FE120451FFF7
:100621007B20EC3382D592D55013C3E43000069F72
:10063100FFE49EFEE42001039DFDE49CFCE4CBF875
:10064100C201EC700CCFCECDCCE824F8F870F38069
:1006510017C3EF33FFEE33FEED33FDEC33FCEB3329
:10066100FB994002FB0FD8E9EB300105F8D0E0C45B
:1006710048B201C0E00AEC4D4E4F78207B0070C2B9
:10068100EAB50A0040BCC0E01206EFD0F0D0E0208D
:100691000104C4C0E0C4B201C0F012047DD0F0D5A1
:1006A100F0EB0204CE1203AE056B5305E558053C91
:1006B1004C05384205E94F05F14405F1490551431F
:0806C10005F75505DB4605DBDA
:1006C9004505DB4707975005402D05442E05672B47
:1006D90005482305652007802A0500480000055FB5
:1006E9003F3F3F00790AA2D5200314300509B9100C
:1006F900020404B9080104A2D5200602500104200D
:1007090002689202B509005034C0E07F2030031915
:100719007F30A20272067205500F120746C202C24A
:1007290006C205C2087F30800F300503E9C0E01218
:100739000494300503D0E0F9D0E0B509CC300517B1
:100749007F30B9100C1204947F583004077F7880E9
:1007590003B908031204943002057F2D0204947F23
:10076900202008F87F2B2006F322920280CF286EE2
:10077900756C6C2900D2011204513001F8C201785C
:100789000930D50108F60205002D504349581204D5
:10079900512403B405004001E490079293120485A3
:0D07A900743A120485D2037509040205E5B7
:10040700EF4E6012EF60010EEDBB010B89828A830C
:10041700F0A3DFFCDEFA2289F05007F709DFFCA919
:0C042700F022BBFEFCF309DFFCA9F02270
:09043300E6FB08E6FA08E6F922EE
:09043C00E2FB08E2FA08E2F922F1
:0C044500E493FB740193FA740293F92213
:00000001FF
