:0300000002117377
:10117300787FE4F6D8FD9060007F007E07E4F0A35B
:0A118300DFFCDEFA7581210211C8BD
:0C000300000000000000000000000000F1
:0B20AC00EF1FAC0670011E4C70F62206
:10002700AB07AA06EB1BAE0270011A4E600C7FAA43
:0B0037007E051220AC75D9AA80EA22D9
:100BF300907120E04480F07F057E001220ACE4FF7A
:100C0300FE12002775A75575AC5C9071327450F0D5
:100C13009071307403F0907136742FF090715C749E
:100C230003F090715BE054FCF07F18EF2466FDE461
:100C330034718D82F583E4F00FEFB433EE904011FD
:100C4300E4935407FF90711CE054F84FF090401761
:100C5300E493547FFF90711DE054804FF090401057
:100C6300E493FF5401C43333335480FE907123E083
:100C7300547F4EF0EFC313543F4440FFA3E054802E
:100C83004FF0904012E493FF540FFE907146E054EE
:100C9300F04EF0EFC4540FFF90714FE054F04FF05B
:100CA300904013E493543FFF907140E054C04FF0E1
:100CB300904014E493907126F0904015E493907162
:0B0CC30028F0904016E49390712AF096
:010CCE002203
:101B6800E5B154CF42B153A8BFD2AF75D102789C2A
:101B7800E254E3F2E2441CF2E254FCF2E24401F2E1
:101B880008E2547FF2E24420F278A17401F218745A
:101B980076F2789CE2541FF2E244C0F243A8402255
:030021000210D8F2
:1010D800C0E0C0F0C083C082C0D075D000C000C0DE
:1010E80001C002C003C004C005C006C007789DE265
:1010F80030E75DE24480F2906183E0FEA3E0FFE424
:10110800FCFD7BFF7AFFF9F8D312055B400A90617A
:1011180083E475F0011203D59060B0120582EF24C4
:1011280001FFE43EFEE43DFDE43CFC9060B01205A6
:101138009A906185E475F0011203D5121FBB121B4A
:10114800E6121FA412206C121E7A121FD212201847
:10115800D007D006D005D004D003D002D001D000EB
:0B116800D0D0D082D083D0F0D0E03295
:101CC400E5B254FC42B253A9FED2AF75D10490716F
:101CD400057409F0907104745FF0907101E0547F11
:101CE400F0E04420F0907100E0E4F0E044C1F043FF
:031CF400A9012221
:03002400021A4F6E
:101A4F00C0E0C0F0C083C082C0D075D000C000C05D
:101A5F0001C002C003C004C005C006C007907101D9
:101A6F00E030E70AE04480F012186C1217B7D00785
:101A7F00D006D005D004D003D002D001D000D0D0F2
:091A8F00D082D083D0F0D0E03207
:0E20370090610BEFF01220D590610BE0FF22BC
:101F570078C2E254FCF2E24401F290717EE044045C
:0B1F6700F075D60175D59F75D21022D1
:0820D500E5D430E4FB8FD722B3
:04068B004161BB000E
:0A20C2007869E24401F29061BB224C
:101E540078C3E24403F218E2440CF2786AE244796B
:101E6400F27591FF9071227407F0439E704399407C
:061E740043AA04D2AF22D4
:101D28005399E0EF24FE601304701E907123E05471
:101D3800D8F0E04459F0439904800E907123E054A0
:101D4800D8F0E0445BF04399017869E24448F22214
:101BE6009061BBE014601914601D14602614600433
:101BF600240470257F01121D289061BB7401F02218
:101C06001220C27402F0227F02121D289061BB745A
:0A1C160003F0221220C27404F02231
:030042000213B1F5
:1013B100C0E0C0F0C083C082C0D075D000C000C002
:0D13C10001C002C003C004C005C006C00783
:1013CE00786BE230E142E24402F2AF93EF75F01037
:1013DE00A4FFE594C4540FFDEF4DFF90610CE5F0B2
:1013EE00F0A3EFF09061BBE024FC601124027018B2
:1013FE0090610CE0FEA3E0FF121D86800B90610C45
:08140E00E0FEA3E0FF1220CC78
:10141600D007D006D005D004D003D002D001D0002A
:0B142600D0D0D082D083D0F0D0E032D4
:101FE50075AF3F8FAF75AEB975A402E5A530E1FBBE
:011FF50022C9
:101C59009061A112060375AF3F8FAF9061A4E0C3F5
:101C690094014022E5A530E0FB9061A1E475F00103
:101C79001205EC1203AAF5A675AEB975A401906117
:071C8900A4E014F080D52255
:101C90009060E91206039060ECE06027AE070FEE5B
:101CA0002400FDE4343F8D82F583E493FE9060E9E7
:101CB000E475F0011205ECEE1203C39060ECE01441
:041CC000F080D322BB
:05068F0042617400004F
:0720DD007B017A61796422A6
:101FA400C3906175E094FF906174E094FF5007E47E
:071FB40075F0011203D522B4
:101E9F00E4FDFCEE30E703D38001C392A5D296EFA9
:101EAF0025E0FFEE33FEC2960DBD00010CED641070
:031EBF004C70E084
:011EC20022FD
:0B1A98009060DF1206039060E2EDF0AA
:101AA300C296C2A4E4A3F09060E2E0FFA3E0FEC309
:101AB3009F50219060DF1205E375F002EEA4F582DA
:101AC30085F0831203EBFFAEF0121E9F9060E3E0FC
:0A1AD30004F080D3D2A4C2A4C2A57F
:011ADD0022E6
:101F1F00C3906175E09432906174E09400400CE4DA
:0C1F2F00F0A3F01220DD7D08121A9822A9
:101ADE007E007F107D001220DD12063278D3E25494
:101AEE00CFF2E24410F290718CE4F078E3E254F31A
:101AFE00F2E24404F2907193E4F0E254FCF2E24418
:101B0E0001F2907192E4F0C2A5C296C2A41220DD39
:051B1E007D08021A9889
:0B20B7007379732072657365740A0072
:10000F0078E2E254F3F2E24404F290718FE4F0C22A
:02001F00A1221C
:101D580012000F121F577BFF7A2079B71200B012BA
:101D6800204512205F122079121E54121CF7121AF5
:0E1D7800DE121B68121CC47F017E00020027D1
:101DB200120BF375D95590715EE054FEF075D9BBE4
:101DC200121D5875D9AA12205212143112152B1253
:0A1DD200120D1219B6121F1F80E94E
:0D20450078E0E24401F278E2E254FCF2227D
:0D20520020A0047F018002E4FF121F8B22FA
:10069400C10A44613E0000000044614200000000C1
:1006A4004461460000000044614A000000004161CA
:1006B4004E00C10942613A000041613C0041613D84
:0106C4000035
:101DDC00120582EF2401FFE43EFEE43DFDE43CFCF1
:101DEC0022E4FDFC12058EC3020571E4FEFDFC022B
:081DFC00058E12058E0204237E
:0D205F0078D3E254F3F278D0E24420F2226C
:101C2000906146120582906142121DFE906146123B
:101C3000059A9061421205A60000000090614A12C8
:101C4000058290613E121DFE90614A12059A9061D4
:091C50003E1205A600000000226E
:1017B70090613AE475F0011203D5C390613BE09460
:1017C7001490613AE09400402BE4F0A3F09061425A
:1017D700121DDC90614212059A7F587E0290614289
:1017E700121DED400F200A0C9061421205A6000061
:1017F7000000D20A30951520090F90613E121DDCBA
:0E18070090613E12059A121C20D20922C209DD
:0118150022B0
:100DAB009061981205A60000000090619C1205A6A8
:100DBB00000000007FF47E01906146121DED50068D
:100DCB00200A03020E83E47F2E7E04FDFC90614A11
:100DDB0012058E12043EE47B03FAF9F81204C99053
:100DEB00619C12059A300A22E4FFFEFDFC90614AD9
:100DFB00121DF090619860091205A6000000018099
:100E0B002C1205A60000000080237F2490619C1209
:100E1B001DF712043EE47B0AFAF9F81204C990613B
:100E2B004612058E1204C990619812059A90617F43
:100E3B0012058290619C121DFE90617F12059A90A3
:100E4B00614A1205A6000000009061461205A6003B
:100E5B00000000C20A7FC7906198121DF7D31205DC
:100E6B0071400A9061981205A6000000C790619826
:080E7B00120582906194EFF072
:010E8300224C
:0D206C0090614EE0C394FF5003E004F022A9
:1018C00090613CE0700F04F0906194E090613DF015
:1018D000E0FF120B0D90614EE0C394324033E4F010
:1018E000906194E0FF90613DE0FED39F400BEED30A
:1018F00094004015E014F08010906194E0FFEEC376
:101900009F500690613DE004F090613DE0FF120BB6
:011910000DC9
:0119110022B3
:1006C50042616000004261620000C10B41614F0060
:0806D500416150004161510038
:0D20860090615C02058EE475F0010203D547
:0D20790078C2E254CFF278C0E24404F222B3
:101BA80090615812058290615212058E120423909A
:101BB800615812059A9061521205A60000000012A1
:101BC8002086906156E0FEA3E0FFE4FCFD120423AA
:0E1BD80090615C12059AE4906156F0A3F02231
:10186C0090614FE004F0E0C394144020E4F09061E8
:10187C005612208DC3906157E09458906156E094B5
:10188C00024009200C06E4F0A3F0D20C3082222096
:10189C000B1C906152120582EF2401FFE43EFEE422
:1018AC003DFDE43CFC90615212059A121BA8D20B30
:0318BC0022C20B3A
:0118BF002206
:10143100E47FF47E01FDFC122086C3120571500386
:10144100300C6A300C0EC20C9060DF1205A6000051
:101451000000801CE47F607EEAFDFC90615812056B
:101461008E12043E1220861204C99060DF12059A82
:101471009061581205A60000000090615C1205A65B
:1014810000000000E47FFF7EFFFDFC9060DF12059D
:101491008EC3120571400A9060DF1205A60000FF9D
:0D14A100FF9060DF12058290619012059AA5
:0114AE00221B
:101E7A00C3906161E094FF906160E094FF500312A7
:101E8A00208CC3906163E094FF906162E094FF50FC
:051E9A000312208C2260
:101F7200E47BE87A03F9F89061901205821204C9B1
:081F8200EFD3940C40027F0C28
:011F8A002234
:10152B00E49060DFF0906151E0700A04F0121F72DA
:10153B00906150EFF0C3906161E094C8906160E0FE
:10154B0094004052E4F0A3F0121F729060DFEFF0B2
:10155B00906150E0FEC39F5005E004F08016906050
:10156B00DFE0FFEED39F400C906150E0D39400403E
:10157B0003E014F0906150E0C3940840089061962A
:10158B007401F08009E4906196F0FF1220289061BD
:06159B0050E0FF12101FDA
:0115A1002227
:0606DD00C10E4161760030
:101E0400120582EF2401FFE43EFEE43DFDE43CFCC8
:101E140022120582120430E47B64FAF9F8C3020545
:081E24007112058EC302057165
:100CCF00C3906184E094E8906183E09403400F3017
:100CDF000D0C121F3BC20DE4906183F0A3F0E47F73
:100CEF00E87E03FDFC90617F121E2540657F187E14
:100CFF00C67D9A7C3B906187121E25500C906187B0
:100D0F00121E0490618712059A7F7F7E967D987CD4
:100D1F000090618B121E25500C90618B121E049057
:100D2F00618B12059A90617F120582C3EF94E8FFE1
:100D3F00EE9403FEED9400FDEC9400FC90617F12A5
:020D4F00059A03
:100D5100906176E004F0E0C3940A4004E4F0D20D1F
:100D610090617712058E906187121E15500C90616B
:100D71008712058290617712059A90617B12058E28
:100D810090618B121E15500C90618B12058290613F
:100D91007B12059AC3906186E09488906185E09406
:090DA100134006E4F0A3F0B20EC9
:010DAA002226
:1006E3004260B400004460B000000000602860B6BF
:1006F30000000000000000000000000000000000F7
:1007030000000000000000000000000000000000E6
:1007130000000000000000004160DE004160AF0007
:10181600FFEE34F9FEE434FFFDE434FFFCE4FAF9AC
:10182600F812043EE4229061C5E0FEA3E0FF22FA2E
:10183600F9F81204C9AD07C322FFEE34FAFEE43408
:10184600FFFDE434FFFCE42225E024B6F582E4340F
:1018560060F583229061B9E0FEA3E0FF22FDFC1251
:06186600058EC3020571AE
:0920CC009060B4EEF0A3EFF022E5
:04161700AB07AA066D
:10161B00E49061A5F0A31205A600000000AE02AF96
:10162B00039060DEE0FD04F0ED12184EEEF0A3EF38
:10163B00F09060DEE0C394144002E4F0E49061A506
:10164B00F09061A612058E9061A5E012184EE0FE97
:10165B00A3E0FFE4FCFD1204239061A612059A900F
:10166B0061A5E004F0E0B414D8E47B14FAF9F89027
:08167B0061A61205820204C9F8
:101FF600E4FDED12184EEEF0A3EFF00DEDB414F281
:0120060022B7
:080858009061C5EEF0A3EFF082
:10086000E4FDC3EF94C5EE940B500A12182C945576
:10087000EE940150057DFF0209CED3EF94B9EE94BA
:10088000074005E4FD0209CED3EF9433EE94045003
:10089000057D640209CED3EF94B9EE9407501FEFA3
:1008A00094D0EE9406401712182CEF24307B1212CD
:1008B00018167BE912183574129DFD0209CE121824
:1008C0002CD394D0EE9406502AEF9427EE94064051
:1008D000229061C5A3EF24D97B221218167BA9129E
:1008E000183574229DFDC3941240030209CE7D1277
:1008F0000209CE12182CD39427EE9406502DEF94B3
:10090000A8EE940540259061C5A3EF245812183F26
:100910007B331218247B7F12183574339DFDC394EA
:100920002240030209CE7D220209CE12182CD39454
:10093000A8EE9405502AEF944AEE94054022906167
:10094000C5A3EF24B612183F7B441218247B5E1215
:10095000183574449DFDC3943350737D330209CE22
:1009600012182CD3944AEE9405502DEF94BCEE94BB
:100970000440259061C5A3EF2444FFEE34FB121818
:10098000437B541218247B8E12183574549DFDC37A
:100990009444503A7D44803612182CD394BCEE9483
:1009A00004502BEF9433EE940440239061C5A3EFE1
:1009B00024CDFFEE34FB1218437B641218247B898C
:1009C00012183574649DFDC3945450027D54AF05D4
:0109D0002204
:10133000E49061BCF0A3F0A3F012185A12161790B3
:0713400061BDEEF0A3EFF028
:101347009060AFE0702D7FF47E01A31218634023F5
:101357009060B01205A60000000012185A121FF67E
:1013670012185A9061BDEEF0A3EFF012139D906032
:03137700AF04F0D0
:10137A00E47FE87E039060B012186340159060B075
:10138A001205A6000000009061BDE0FEA3E0FF1276
:02139A00139DA1
:10139C00221208589061BCEFF0906195F0E49061D6
:0513AC00BDF0A3F022DA
:101EE3006164635F76616C203D3D2025750A007651
:0E1EF3006F6C74616765203D3D2025750A0007
:1007230060286111000000000000000000000000CC
:1007330000000000000000000000000000000000B6
:1007430000000000000000000000000041613900CB
:0407530041610E00F2
:0C20A00025E02411F582E43461F5832270
:10200700E4FDED1220A0EEF0A3EFF00DEDB414F215
:0120170022A6
:101D860090610EE0700A12200790610E7401F02235
:101D9600906139E0FD04F0ED1220A0EEF0A3EFF023
:0B1DA600906139E0C394144002E4F0A7
:011DB100220F
:101912009060E41205A600000000E49060E3F090FD
:1019220060E412058E9060E3E01220A0E0FEA3E0E6
:10193200FFE4FCFD1204239060E412059A9060E338
:10194200E004F0E0B414D89060E4120582E47B1461
:10195200FAF9F81204C99060E412059A9060E40260
:021962000582FC
:101FBB00C3906110E094FF90610FE094FF5007E431
:071FCB0075F0011203D5229D
:10120D00C3906110E094C890610FE094004078E4C1
:10121D00F0A3F01219129060DFEEF0A3EFF0E4FCF2
:10122D00FD7B607A617902F812043EE47B0AFAF9DB
:10123D00F81204C9E4FB7A10F9F81204C9EF24641A
:10124D00FFE43EFE9060E1F0A3EFF0C3943CEE941A
:10125D0028400BE4906197F0FF1220938015C39006
:10126D0060E2E094109060E1E09427500690619761
:10127D007401F07A1E79E39060DF1212957A1E796F
:07128D00F29060E1121295DE
:10129400227BFFE0FFA3E09060E6CFF0A3EFF01223
:0312A40000B02275
:100757005161870000000000000000000000000059
:04076700000000008E
:101CF7007B017A6079DF9060EC7409F0E4FF121CD5
:101D0700909060E7E0B4C5189060DF12058290619B
:101D17008712059A9060E312058290618B12059AEB
:011D27002299
:101F3B0090618F74C5F0E4FF121FE57B017A617924
:0C1F4B00879061A47409F0E4FF021C59A7
:10076B004A60113F065B4F666D7D077F6F6054607B
:10077B001B030D030C020D03080309030B030A03F0
:10078B0000030203050307030603030304040E041B
:10079B000C04090408040A040D040B0401050F04DE
:1007AB00040406040704000402050B050A040304F1
:1007BB0005050D050E050C050305020504050705CA
:1007CB0009050605055C606F070F070E0701070299
:1007DB000700070D070C06020601060F0207060E9F
:1007EB000600060D6020608B070707060705070448
:1007FB0007080709070A070B060306040605060682
:10080B00060706080609060A416010004260AB00A5
:10081B0000C10F4260AD0000426000000041600269
:10082B00004160030042600400004160060041602B
:10083B000700426008000041600A0041600B004263
:0C084B00600C000041600E0041600F00D6
:1009D100E0FE75F00EA4246FF582E43460F58375B2
:1009E100F002EF1205D7E025E02464F582E43461DA
:1009F100F5832275F0021205D7E0FF7E007401A88D
:100A0100070822E04402F0A3E04480F0A3E0F022D2
:100A1100E0FCA3E0FDEE75F00EA42470F582E43451
:100A210060F58322E04404F0A3E0F0906168E044C3
:100A310008F0A3E0F022E475F0010203D5906168AB
:100A4100E04401F0A3E0F022F4FFEEF45CFEED5F80
:100A5100FF22AD07E054FBF0E054F7F022C39060B1
:100A610001E09496906000E0940022C390600DE054
:100A7100942C90600CE0940122EFF074112DF5821A
:100A8100E43460F583E02275F00EA4241CF582E4C1
:100A91003460F58322E4F0A3F0A37402F022C39042
:100AA1006005E09464906004E0940022C3906009C2
:100AB100E094C8906008E0940022E04440F0A3E094
:100AC100F02275F00EA4241BF582E4346022FFECC1
:100AD1004EFEED4FFF2225E0248BF582E43460F5D4
:100AE100832225E0248CF582E43460F58322EEF044
:100AF100A3EFF09061C8E004F022E0547FF0E054ED
:0C0B0100BFF0A3E022E0FCA3E0FDEF2227
:101E2C00906164120A09906167E04401F0E044108B
:101E3C00F0906166120A41906166E04410F0A3E0F4
:081E4C00F0906166120A092200
:0F202800906165E054FDF0EF6004E04402F022A7
:10101F00906167120A53E054DFF0E054BFF0E054E0
:10102F007FF0906166E054FDF0120A55E054DFF056
:10103F00E054BFF0906164E054FEF0E054FDF0ED39
:10104F0012060C10D00110C90210C20310BB0410FD
:10105F00B40510AA0610A007109A08109009108A5C
:10106F000A10840B107A0C000010D7906164E044D2
:10107F0002F0A3E0F0906164120A41906166120AD7
:10108F00BB906166E04420F0A3E0F0906166120A25
:10109F002F906166E04404F0A3E0F0906166E044B5
:1010AF0002F0A3E0F0906167E04480F0906167E0A8
:1010BF004440F0906167E04420F0906167E044089D
:0910CF00F0906167E04404F02296
:0D209300906168120A53ED6003120A2522C5
:101F8B00AD07906169E054EFF0E054DFF0ED6008CD
:091F9B00E04410F0E04420F022C3
:101B2300AD07906168120AFB54FEF0E054FDF0E04B
:101B330054FBF0ED14602714601E14601414600A43
:101B4300147021906169E04404F0906169E04402FB
:101B5300F0906169E04401F0906168120ABB906102
:051B630068120A0922CE
:101EC300E490616EF0A3E05401F0E490616EF0A33E
:101ED300E05402F0EF6008E04401F0E04402F02235
:030F58009061BFE6
:100F5B00120A7A9061C1F0E49061C0F09061C0E038
:100F6B00FFC39407400302101E9061BFE0FE120AFC
:100F7B00C31209DEC083C082E0FCA3E0FDEE120ABF
:100F8B0088C083C0829061C0E0FBD082D0831209FD
:100F9B00F48005C333CE33CED8F9120A49D082D0B0
:100FAB0083EEF0A3EFF07E007401A803088005C365
:100FBB0033CE33CED8F9FF9061C1E0FDEF5D604ACF
:100FCB009061BFE0FF120AC3F583C083C0829061BA
:100FDB00C0E0D082D08375F0021209E4C083C082D6
:100FEB00120B06120A88C083C0829061C0E0D082C7
:100FFB00D0831209F48005C333CE33CED8F9120A4D
:10100B00CFD082D083EEF0A3EFF09061C0E004F07C
:03101B00020F675A
:01101E0022AF
:061964009061AA12059A31
:10196A00E49061AEF09061AEE0FFC39406503CC3D0
:10197A0074059FFFC007E47B0AFAF9F89061AA127E
:10198A0005821204C9AF03AD07D007120F58906140
:10199A00AA120582E47B0AFAF9F81204C99061AA2C
:0B19AA0012059A9061AEE004F080BAD4
:0119B500220F
:101A03009061AF12059A90616A120AFB54FDF0A32C
:101A1300E0547FF090616EE054FEF07F01121EC32C
:101A23009061AF1205821219649061B3E0600E9069
:101A3300616A120A0990616AE04440800A90616B0E
:0C1A4300120A04A3E04401F0A3E0F0222A
:101F0100AD07906170E054F7F0E054EFF0ED600D33
:0E1F1100120A2F906170E04410F0A3E0F0225D
:030E84009061C2B8
:100E8700120A7A9061C4F0E49061C3F09061C3E004
:100E9700FFC39407503A9061C21209D1C083C08240
:100EA700120A11C083C0829061C3E0D082D083123E
:100EB70009F48005C333CE33CED8F9120A49D0825C
:100EC700D083EEF0A3EFF09061C3E004F0020E933D
:100ED700E49061C3F09061C3E0FFC39407507112BF
:100EE70009FC8005C333CE33CED8F9FF9061C4E047
:100EF700FDEF5D60529061C2E0FF75F00EA4246FB4
:100F0700F582E43460F583C083C0829061C3E0D08A
:100F170082D08375F0021209E4C083C082120B06E7
:100F2700120A17C083C0829061C3E0D082D08312B7
:100F370009F48005C333CE33CED8F9120ACFD08255
:100F4700D083EEF0A3EFF09061C3E004F0020EDC73
:010F57002277
:050B0D009061B4EFF05F
:100B1200E49061B7F0A3F0906168E054FEF0906158
:100B220073E054F7F07F01121F01E49061B5F0E425
:100B32009061B6F09061B6E0FFC39407503A9061BD
:100B4200B51209D1C083C082120A11C083C082903B
:100B520061B6E0D082D0831209F48005C333CE336C
:100B6200CED8F9120A49D082D083EEF0A3EFF090EA
:100B720061B6E004F0020B369061B5E004F0E06487
:100B82000270AC9061B4E09061B8F09061B7E0049B
:100B9200F0A3E075F00A84F070F19061B4E0C394C0
:100BA20064400A120A3E906173E04408F0E49061E6
:100BB200B5F09061B5E0FFC3940250349061B7E0A4
:100BC200B40105EF640160209061B5E0FFC37401D8
:100BD2009FFF9061B4E075F00A84ADF0120E84902C
:100BE20061B4E075F00A84F09061B5E004F080C26F
:010BF20022E0
:0515A2009061C7EFF0AD
:1015A700E4A3F09061C8E0FF120AD71209E7C083ED
:1015B700C082120B06120AE31209FA8005C333CE62
:1015C70033CED8F9120A49D082D083120AEFE0B499
:1015D70010D1E49061C8F09061C7E0FFA3E0FEC3BB
:1015E7009F502CEE120AD71209E7C083C082E0FC95
:1015F700A3E0FDEE120AE31209FA8005C333CE33E6
:0F160700CED8F9120ACFD082D083120AEF80C852
:0116160022B1
:10168300906000120A37906002E0FE7024120A5E36
:101693004057E4F0A3F0906003E004F0E0FF940C03
:1016A30040449060027401F0E4906000F0A3F08085
:1016B30035EEB40110C3906001E094C8120A65408E
:1016C30028120A9622906002E0B4021D120A5E40BC
:1016D30018E4F0A3F0906003E0D394004003E01417
:0916E300F0906003E0FF12101FFB
:0116EC0022DB
:1016ED00906004120A37906006E0FB701D120A9F8D
:1016FD004053E4F0A3F0906007E004F0E0FF941095
:10170D0040409060067401F08038EBB40113C39033
:10171D006005E09490906004E094014028120A96D0
:10172D0022906006E0B4021D120A9F4018E4F0A357
:10173D00F0906007E0D394004003E014F090600750
:05174D00E0FF1215A2EF
:011752002274
:1012A700906008120A3790600AE0FA7027120AADB8
:1012B7004044E4F0A3F01212FE12131840FB9060B2
:1012C7000BE004F0E0C3940A402C7409F090600A24
:1012D7007401F022EA6401701D120AAD4018E4F0AF
:1012E700A3F090600BE0D394004003E014F01212D7
:0612F700FE12131840FB7B
:1012FD002290600BE0FDE4FF120E8490600BE0FD88
:10130D007F01120E84E49061C9F0229061C9E0FF63
:10131D0090600BE0FD120F589061C9E004F0E0C33E
:03132D0094062201
:1017530090600C120A3790600EE0FE701E120A6C45
:101763004051E4F0A3F090600FE094055005E004CD
:10177300F0803890600E7401F08030EEB40110C335
:1017830090600DE09490120A734028120A962290FA
:10179300600EE0B4021D120A6C4018E4F0A3F0904E
:1017A300600FE0D394004003E014F090600FE0FF7B
:0317B300121B23E3
:0117B6002210
:10201800906010E0B401089060AB120A37D20F222A
:1014AF009060107401F0121E2C7F01122028121E62
:1014BF00C3121F0190616A120A0990616A120ABB76
:1014CF00120A04A3120A417F01122093121F8B12DA
:1014DF000A3E906173E04408F0906010E0603C3089
:1014EF000FF7C20F1216831216ED1212A71217530F
:1014FF00C39060ACE094A09060ABE0940F4017E411
:10150F00906010F0FF12101F122028122093121F4C
:0C151F008B7F101215A2121F1F80BE222D
:101FD200C39060AEE094FF9060ADE094FF500312B6
:031FE2000A372299
:1019B600C39060AEE094DB9060ADE09401403DE4FE
:1019C600F0A3F0906196E06018906164E013A3E0E4
:1019D6001330E006E054FDF08007906165E04402B4
:1019E600F0906197E06015906168E01313543F3002
:0D19F600E004120A5522906168120A2522B1
:10118D00021DB2E493A3F8E493A34003F68001F2A9
:10119D0008DFF48029E493A3F85407240CC8C33363
:1011AD00C4540F4420C8834004F456800146F6DF32
:1011BD00E4800B010204081020408090068BE47E31
:1011CD00019360BCA3FF543F30E509541FFEE49327
:1011DD00A360010ECF54C025E060A840B8E493A3EE
:1011ED00FAE493A3F8E493A3C8C582C8CAC583CA19
:1011FD00F0A3C8C582C8CAC583CADFE9DEE780BED1
:0108570000A0
:1003AA00BB010689828A83E0225002E722BBFE0251
:0903BA00E32289828A83E4932284
:1003C300BB010689828A83F0225002F722BBFE0119
:0203D300F32213
:1003D500C5F0F8A3E028F0C5F0F8E58215827002B3
:0603E5001583E038F02250
:1003EB00BB0110E58229F582E5833AF583E0F5F050
:1003FB00A3E0225009E92582F886F008E622BBFE2D
:10040B000AE92582F8E2F5F008E222E5832AF58372
:08041B00E993F5F0A3E9932237
:0D042300EF2BFFEE3AFEED39FDEC38FC2228
:0E043000C3EF9BFFEE9AFEED99FDEC98FC22C7
:10043E00E88FF0A4CC8BF0A42CFCE98EF0A42CFC5D
:10044E008AF0EDA42CFCEA8EF0A4CDA8F08BF0A4DB
:10045E002DCC3825F0FDE98FF0A42CCD35F0FCEB3A
:10046E008EF0A4FEA9F0EB8FF0A4CFC5F02ECD39FF
:0F047E00FEE43CFCEAA42DCE35F0FDE43CFC226C
:10048D0075F008758200EF2FFFEE33FECD33CDCC26
:10049D0033CCC58233C5829BED9AEC99E5829840A9
:1004AD000CF582EE9BFEED9AFDEC99FC0FD5F0D686
:1004BD00E4CEFBE4CDFAE4CCF9A88222B800C1B9B0
:1004CD000059BA002DEC8BF084CFCECDFCE5F0CBEE
:1004DD00F97818EF2FFFEE33FEED33FDEC33FCEB27
:1004ED0033FB10D703994004EB99FB0FD8E5E4F9E2
:1004FD00FA227818EF2FFFEE33FEED33FDEC33FCCF
:10050D00C933C910D7059BE99A4007EC9BFCE99AC2
:10051D00F90FD8E0E4C9FAE4CCFB2275F010EF2F07
:10052D00FFEE33FEED33FDCC33CCC833C810D70707
:10053D009BEC9AE899400AED9BFDEC9AFCE899F842
:0E054D000FD5F0DAE4CDFBE4CCFAE4C8F922D5
:10055B00EB9FF5F0EA9E42F0E99D42F0EC6480C817
:06056B0064809845F022B7
:10057100EB9FF5F0EA9E42F0E99D42F0E89C45F0E0
:010581002257
:0C058200E0FCA3E0FDA3E0FEA3E0FF22EC
:0C058E00E0F8A3E0F9A3E0FAA3E0FB22F0
:0C059A00ECF0A3EDF0A3EEF0A3EFF022D4
:1005A600A8828583F0D083D0821205BD1205BD12C4
:1005B60005BD1205BDE473E493A3C583C5F0C583E9
:1005C600C8C582C8F0A3C583C5F0C583C8C582C89F
:0105D6002202
:0C05D700A42582F582E5F03583F583222F
:0905E300E0FBA3E0FAA3E0F92219
:1005EC00F8E0FBA3A3E0F925F0F0E5821582700298
:0705FC001583E0FA38F0223C
:09060300EBF0A3EAF0A3E9F022F8
:10060C00D083D082F8E4937012740193700DA3A37D
:10061C0093F8740193F5828883E473740293686091
:06062C00EFA3A3A380DF91
:10004500E50824E6F582E43460F583E005082290AE
:1000550060E33007039060E6E475F0011205EC02F9
:1000650003AA2000E97F2ED2008018EF540F2490B8
:10007500D43440D4FF30040BEF24BFB41A0050032E
:100085002461FFE50960021509050CE50C70020500
:100095000B30070E9060E3E475F0011205ECEF02FA
:1000A50003C30220377403D2078003E4C207F508AF
:1000B5009060E3120603E4F509F50BF50CE509601C
:1000C500077F2012008880F5750AFFC201C200C2B1
:1000D50002C203C205C206C208120054FF700D30E9
:1000E50007057F00120099AF0CAE0B22B4255FC245
:1000F500D5C204120054FF24D0B40A00501A75F07A
:100105000A780930D50508B6FF0106C6A426F620EB
:10011500D5047002D20380D924CFB41A00EF50045D
:10012500C2E5D20402029AD20180C6D20080C0D2B2
:100135000280BCD2D580BAD20580B47F2012008857
:100145002002077401B5090040F1120045FF1200B5
:10015500880200C2D208D2068095120045FB120023
:1001650045FA120045F94A4B7006796B7A037BFF15
:1001750020022EE509602A7E008E82758300120614
:100185005E60060EEE650A70F0C2D5EBC0E0EAC00F
:10019500E0E9C0E0EE1202E1D0E0F9D0E0FAD0E00B
:1001A500FB1203AAFF60AAEBC0E0EAC0E0E9C0E0E9
:1001B500120088D0E02401F9D0E03400FAD0E0FB49
:1001C500E50A0460DCD50AD980877BFF7A0279DDF0
:1001D500D202809C791080027908C206C208800884
:1001E500D2D5790A8004790AC2D5E50A047002F5E8
:1001F5000AE4FAFDFEFF120045FC7B0820011312FC
:100205000045FD7B1030000A120045FE120045FF37
:100215007B20EC3382D592D55013C3E43000069F82
:10022500FFE49EFEE42001039DFDE49CFCE4CBF885
:10023500C201EC700CCFCECDCCE824F8F870F38079
:1002450017C3EF33FFEE33FEED33FDEC33FCEB3339
:10025500FB994002FB0FD8E9EB300105F8D0E0C46B
:1002650048B201C0E00AEC4D4E4F78207B0070C2C9
:10027500EAB50A0040BCC0E01202E3D0F0D0E020AD
:100285000104C4C0E0C4B201C0F0120071D0F0D5C1
:10029500F0EB0200C212060C015F5301D958013080
:1002A5004C012C4201DD4F01E54401E5490145437F
:0802B50001EB5501CF4601CF1A
:1002BD004501CF47038B5001342D01382E015B2BA7
:1002CD00013C2301592003742A00F4480000015316
:1002DD003F3F3F00790AA2D5200314300509B9101C
:1002ED00020404B9080104A2D5200602500104201D
:1002FD0002689202B509005034C0E07F2030031926
:10030D007F30A20272067205500F12033AC202C26A
:10031D0006C205C2087F30800F300503E9C0E01228
:10032D000088300503D0E0F9D0E0B509CC300517D1
:10033D007F30B9100C1200887F583004077F788009
:10034D0003B908031200883002057F2D0200887F53
:10035D00202008F87F2B2006F322920280CF286EF2
:10036D00756C6C2900D2011200453001F8C201787C
:10037D000930D50108F60200F42D504349581200FA
:10038D00452403B405004001E490038693120079DF
:0D039D00743A120079D2037509040201D9E7
:10063200EF4E6012EF60010EEDBB010B89828A83DF
:10064200F0A3DFFCDEFA2289F05007F709DFFCA9EC
:0C065200F022BBFEFCF309DFFCA9F02243
:10065E00BB010CE58229F582E5833AF583E0225051
:10066E0006E92582F8E622BBFE06E92582F8E2229B
:0D067E00E58229F582E5833AF583E49322B5
:00000001FF
